{
  "address": "0x7dF071fCEeE47C66E3Bf16667d2CD3d5b8c1b52C",
  "abi": [
    {
      "inputs": [
        {
          "internalType": "address",
          "name": "ensoBeacon_",
          "type": "address"
        }
      ],
      "stateMutability": "nonpayable",
      "type": "constructor"
    },
    {
      "inputs": [],
      "name": "AlreadyInit",
      "type": "error"
    },
    {
      "inputs": [],
      "name": "InvalidAccount",
      "type": "error"
    },
    {
      "inputs": [],
      "name": "NoLabel",
      "type": "error"
    },
    {
      "inputs": [],
      "name": "NotOwner",
      "type": "error"
    },
    {
      "inputs": [],
      "name": "NotPermitted",
      "type": "error"
    },
    {
      "anonymous": false,
      "inputs": [
        {
          "indexed": false,
          "internalType": "address",
          "name": "previousAdmin",
          "type": "address"
        },
        {
          "indexed": false,
          "internalType": "address",
          "name": "newAdmin",
          "type": "address"
        }
      ],
      "name": "AdminChanged",
      "type": "event"
    },
    {
      "anonymous": false,
      "inputs": [
        {
          "indexed": true,
          "internalType": "address",
          "name": "beacon",
          "type": "address"
        }
      ],
      "name": "BeaconUpgraded",
      "type": "event"
    },
    {
      "anonymous": false,
      "inputs": [
        {
          "indexed": false,
          "internalType": "contract IEnsoWallet",
          "name": "instance",
          "type": "address"
        },
        {
          "indexed": false,
          "internalType": "string",
          "name": "label",
          "type": "string"
        }
      ],
      "name": "Deployed",
      "type": "event"
    },
    {
      "anonymous": false,
      "inputs": [
        {
          "indexed": false,
          "internalType": "address",
          "name": "previousOwner",
          "type": "address"
        },
        {
          "indexed": false,
          "internalType": "address",
          "name": "newOwner",
          "type": "address"
        }
      ],
      "name": "OwnershipTransferStarted",
      "type": "event"
    },
    {
      "anonymous": false,
      "inputs": [
        {
          "indexed": false,
          "internalType": "address",
          "name": "previousOwner",
          "type": "address"
        },
        {
          "indexed": false,
          "internalType": "address",
          "name": "newOwner",
          "type": "address"
        }
      ],
      "name": "OwnershipTransferred",
      "type": "event"
    },
    {
      "anonymous": false,
      "inputs": [
        {
          "indexed": true,
          "internalType": "address",
          "name": "implementation",
          "type": "address"
        }
      ],
      "name": "Upgraded",
      "type": "event"
    },
    {
      "inputs": [],
      "name": "acceptOwnership",
      "outputs": [],
      "stateMutability": "nonpayable",
      "type": "function"
    },
    {
      "inputs": [
        {
          "internalType": "bytes32[]",
          "name": "commands",
          "type": "bytes32[]"
        },
        {
          "internalType": "bytes[]",
          "name": "state",
          "type": "bytes[]"
        }
      ],
      "name": "deploy",
      "outputs": [
        {
          "internalType": "contract IEnsoWallet",
          "name": "",
          "type": "address"
        }
      ],
      "stateMutability": "payable",
      "type": "function"
    },
    {
      "inputs": [
        {
          "internalType": "string",
          "name": "label",
          "type": "string"
        },
        {
          "internalType": "bytes32[]",
          "name": "commands",
          "type": "bytes32[]"
        },
        {
          "internalType": "bytes[]",
          "name": "state",
          "type": "bytes[]"
        }
      ],
      "name": "deployCustom",
      "outputs": [
        {
          "internalType": "contract IEnsoWallet",
          "name": "",
          "type": "address"
        }
      ],
      "stateMutability": "payable",
      "type": "function"
    },
    {
      "inputs": [],
      "name": "ensoBeacon",
      "outputs": [
        {
          "internalType": "address",
          "name": "",
          "type": "address"
        }
      ],
      "stateMutability": "view",
      "type": "function"
    },
    {
      "inputs": [],
      "name": "getAddress",
      "outputs": [
        {
          "internalType": "address payable",
          "name": "",
          "type": "address"
        }
      ],
      "stateMutability": "view",
      "type": "function"
    },
    {
      "inputs": [
        {
          "internalType": "address",
          "name": "user",
          "type": "address"
        },
        {
          "internalType": "string",
          "name": "label",
          "type": "string"
        }
      ],
      "name": "getCustomAddress",
      "outputs": [
        {
          "internalType": "address payable",
          "name": "",
          "type": "address"
        }
      ],
      "stateMutability": "view",
      "type": "function"
    },
    {
      "inputs": [
        {
          "internalType": "address",
          "name": "user",
          "type": "address"
        }
      ],
      "name": "getUserAddress",
      "outputs": [
        {
          "internalType": "address payable",
          "name": "",
          "type": "address"
        }
      ],
      "stateMutability": "view",
      "type": "function"
    },
    {
      "inputs": [],
      "name": "initialize",
      "outputs": [],
      "stateMutability": "nonpayable",
      "type": "function"
    },
    {
      "inputs": [],
      "name": "owner",
      "outputs": [
        {
          "internalType": "address",
          "name": "",
          "type": "address"
        }
      ],
      "stateMutability": "view",
      "type": "function"
    },
    {
      "inputs": [],
      "name": "proxiableUUID",
      "outputs": [
        {
          "internalType": "bytes32",
          "name": "",
          "type": "bytes32"
        }
      ],
      "stateMutability": "view",
      "type": "function"
    },
    {
      "inputs": [
        {
          "internalType": "address",
          "name": "newOwner",
          "type": "address"
        }
      ],
      "name": "transferOwnership",
      "outputs": [],
      "stateMutability": "nonpayable",
      "type": "function"
    },
    {
      "inputs": [
        {
          "internalType": "address",
          "name": "newImplementation",
          "type": "address"
        }
      ],
      "name": "upgradeTo",
      "outputs": [],
      "stateMutability": "nonpayable",
      "type": "function"
    },
    {
      "inputs": [
        {
          "internalType": "address",
          "name": "newImplementation",
          "type": "address"
        },
        {
          "internalType": "bytes",
          "name": "data",
          "type": "bytes"
        }
      ],
      "name": "upgradeToAndCall",
      "outputs": [],
      "stateMutability": "payable",
      "type": "function"
    }
  ],
  "transactionHash": "0xa51a0d196f28c7c15ab66729f2a42b84bddc6dc0671140e63e41304f19e99d22",
  "args": [
    "0xEB3Ae33373ead1022BB4E6a4d308cC6f79f3e925"
  ],
  "numDeployments": 4,
  "solcInputHash": "57e8446a1a1beec4cd2f90e168165735",
  "bytecode": "0x60c03461009357601f611be238819003918201601f19168301916001600160401b038311848410176100985780849260209460405283398101031261009357516001600160a01b0381168103610093573060805260a052604051611b3390816100af82396080518181816101960152818161055901526105fe015260a05181818161030a0152818161179b0152611a330152f35b600080fd5b634e487b7160e01b600052604160045260246000fdfe60806040526004361015610013575b600080fd5b60003560e01c80633659cfe61461011757806338cc48311461010e57806349061ae6146101055780634d6849d2146100fc5780634f1ef286146100f357806352d1902d146100ea57806379ba5097146100e15780638129fc1c146100d85780638454525b146100cf5780638da5cb5b146100c6578063abbea987146100bd578063cec7a69d146100b45763f2fde38b146100ac57600080fd5b61000e610b49565b5061000e610a85565b5061000e6109e8565b5061000e610945565b5061000e6108a8565b5061000e6107ee565b5061000e6106d7565b5061000e6105b7565b5061000e6104da565b5061000e61032e565b5061000e6102be565b5061000e610265565b5061000e610143565b6004359073ffffffffffffffffffffffffffffffffffffffff8216820361000e57565b503461000e5760207ffffffffffffffffffffffffffffffffffffffffffffffffffffffffffffffffc36011261000e5761017b610120565b73ffffffffffffffffffffffffffffffffffffffff6101ec817f0000000000000000000000000000000000000000000000000000000000000000166101c281301415610c72565b827f360894a13ba1a3210667c828492db98dca3e2076cc3735a920a3ca505d382bbc541614610cfd565b7febef2b212afb6c9cfdbd10b61834a8dc955e5fbf0aacd1c641d5cbdedf4022d0541633036102305760405161022e91610225826103e1565b60008252610e2f565b005b60046040517f30cd7471000000000000000000000000000000000000000000000000000000008152fd5b600091031261000e57565b503461000e5760007ffffffffffffffffffffffffffffffffffffffffffffffffffffffffffffffffc36011261000e5760206102a0336119bd565b73ffffffffffffffffffffffffffffffffffffffff60405191168152f35b503461000e5760007ffffffffffffffffffffffffffffffffffffffffffffffffffffffffffffffffc36011261000e57602060405173ffffffffffffffffffffffffffffffffffffffff7f0000000000000000000000000000000000000000000000000000000000000000168152f35b503461000e5760207ffffffffffffffffffffffffffffffffffffffffffffffffffffffffffffffffc36011261000e57602073ffffffffffffffffffffffffffffffffffffffff61038781610381610120565b166119bd565b60405191168152f35b507f4e487b7100000000000000000000000000000000000000000000000000000000600052604160045260246000fd5b67ffffffffffffffff81116103d457604052565b6103dc610390565b604052565b6020810190811067ffffffffffffffff8211176103d457604052565b6060810190811067ffffffffffffffff8211176103d457604052565b90601f7fffffffffffffffffffffffffffffffffffffffffffffffffffffffffffffffe0910116810190811067ffffffffffffffff8211176103d457604052565b7fffffffffffffffffffffffffffffffffffffffffffffffffffffffffffffffe0601f60209267ffffffffffffffff8111610496575b01160190565b61049e610390565b610490565b9291926104af8261045a565b916104bd6040519384610419565b82948184528183011161000e578281602093846000960137010152565b5060407ffffffffffffffffffffffffffffffffffffffffffffffffffffffffffffffffc36011261000e5761050d610120565b60243567ffffffffffffffff811161000e573660238201121561000e5761053e9036906024816004013591016104a3565b73ffffffffffffffffffffffffffffffffffffffff610585817f0000000000000000000000000000000000000000000000000000000000000000166101c281301415610c72565b7febef2b212afb6c9cfdbd10b61834a8dc955e5fbf0aacd1c641d5cbdedf4022d0541633036102305761022e91610fac565b503461000e5760007ffffffffffffffffffffffffffffffffffffffffffffffffffffffffffffffffc36011261000e5773ffffffffffffffffffffffffffffffffffffffff7f0000000000000000000000000000000000000000000000000000000000000000163003610653576040517f360894a13ba1a3210667c828492db98dca3e2076cc3735a920a3ca505d382bbc8152602090f35b0390f35b60846040517f08c379a000000000000000000000000000000000000000000000000000000000815260206004820152603860248201527f555550535570677261646561626c653a206d757374206e6f742062652063616c60448201527f6c6564207468726f7567682064656c656761746563616c6c00000000000000006064820152fd5b503461000e5760007ffffffffffffffffffffffffffffffffffffffffffffffffffffffffffffffffc36011261000e577f4be222fb9f9e9f4aed563932b8b081b3887ff710df7cb9700c19ef7af1497d8e73ffffffffffffffffffffffffffffffffffffffff81541633036107c457600090557febef2b212afb6c9cfdbd10b61834a8dc955e5fbf0aacd1c641d5cbdedf4022d0805433918290556040805173ffffffffffffffffffffffffffffffffffffffff909216825260208201929092527f8be0079c531659141344cd1fd0a4f28419497f9722a3daafe3b4186f6b6457e091819081015b0390a1005b60046040517f39218f3b000000000000000000000000000000000000000000000000000000008152fd5b503461000e5760007ffffffffffffffffffffffffffffffffffffffffffffffffffffffffffffffffc36011261000e577febef2b212afb6c9cfdbd10b61834a8dc955e5fbf0aacd1c641d5cbdedf4022d073ffffffffffffffffffffffffffffffffffffffff81541661086057339055005b60046040517fef34ca5c000000000000000000000000000000000000000000000000000000008152fd5b9080601f8301121561000e578160206108a5933591016104a3565b90565b503461000e5760407ffffffffffffffffffffffffffffffffffffffffffffffffffffffffffffffffc36011261000e576108e0610120565b60243567ffffffffffffffff811161000e5761090090369060040161088a565b80511561091b576109166102a091602093611950565b6119bd565b60046040517f19240aab000000000000000000000000000000000000000000000000000000008152fd5b503461000e5760007ffffffffffffffffffffffffffffffffffffffffffffffffffffffffffffffffc36011261000e5760207febef2b212afb6c9cfdbd10b61834a8dc955e5fbf0aacd1c641d5cbdedf4022d05473ffffffffffffffffffffffffffffffffffffffff60405191168152f35b9181601f8401121561000e5782359167ffffffffffffffff831161000e576020808501948460051b01011161000e57565b5060407ffffffffffffffffffffffffffffffffffffffffffffffffffffffffffffffffc36011261000e5767ffffffffffffffff60043581811161000e57610a349036906004016109b7565b91906024359180831161000e57602093610a556102a09436906004016109b7565b6040519094919387820190811182821017610a78575b6040526000815233611711565b610a80610390565b610a6b565b5060607ffffffffffffffffffffffffffffffffffffffffffffffffffffffffffffffffc36011261000e5767ffffffffffffffff60043581811161000e57610ad190369060040161088a565b60243582811161000e57610ae99036906004016109b7565b909260443590811161000e57610b039036906004016109b7565b9183511561091b5761064f9484610b1d610b229633611950565b611711565b60405173ffffffffffffffffffffffffffffffffffffffff90911681529081906020820190565b503461000e5760207ffffffffffffffffffffffffffffffffffffffffffffffffffffffffffffffffc36011261000e57610b81610120565b7febef2b212afb6c9cfdbd10b61834a8dc955e5fbf0aacd1c641d5cbdedf4022d0549073ffffffffffffffffffffffffffffffffffffffff808316908133036102305782168015610c485714610c48577f4be222fb9f9e9f4aed563932b8b081b3887ff710df7cb9700c19ef7af1497d8e8190556040805173ffffffffffffffffffffffffffffffffffffffff93841681529290911660208301527f38d16b8cac22d99fc7c124b9cd0de2d3fa1faef420bfe791d8c362d765e227009190819081016107bf565b60046040517f6d187b28000000000000000000000000000000000000000000000000000000008152fd5b15610c7957565b60846040517f08c379a000000000000000000000000000000000000000000000000000000000815260206004820152602c60248201527f46756e6374696f6e206d7573742062652063616c6c6564207468726f7567682060448201527f64656c656761746563616c6c00000000000000000000000000000000000000006064820152fd5b15610d0457565b60846040517f08c379a000000000000000000000000000000000000000000000000000000000815260206004820152602c60248201527f46756e6374696f6e206d7573742062652063616c6c6564207468726f7567682060448201527f6163746976652070726f787900000000000000000000000000000000000000006064820152fd5b9081602091031261000e575190565b506040513d6000823e3d90fd5b15610dab57565b60846040517f08c379a000000000000000000000000000000000000000000000000000000000815260206004820152602960248201527f45524331393637557067726164653a20756e737570706f727465642070726f7860448201527f6961626c655555494400000000000000000000000000000000000000000000006064820152fd5b90610e5b7f4910fdfa16fed3260ed0e7147f7cc6da11a60208b5b9406d12a635614ffd91435460ff1690565b15610e6c5750610e6a90611113565b565b604051917f52d1902d00000000000000000000000000000000000000000000000000000000835260208360048173ffffffffffffffffffffffffffffffffffffffff85165afa60009381610f7c575b50610f49576040517f08c379a000000000000000000000000000000000000000000000000000000000815260206004820152602e60248201527f45524331393637557067726164653a206e657720696d706c656d656e7461746960448201527f6f6e206973206e6f7420555550530000000000000000000000000000000000006064820152608490fd5b0390fd5b610f777f360894a13ba1a3210667c828492db98dca3e2076cc3735a920a3ca505d382bbc610e6a9414610da4565b6111ff565b610f9e91945060203d8111610fa5575b610f968183610419565b810190610d88565b9238610ebb565b503d610f8c565b90610fd87f4910fdfa16fed3260ed0e7147f7cc6da11a60208b5b9406d12a635614ffd91435460ff1690565b15610fe75750610e6a90611113565b604051917f52d1902d00000000000000000000000000000000000000000000000000000000835260208360048173ffffffffffffffffffffffffffffffffffffffff85165afa600093816110f3575b506110c0576040517f08c379a000000000000000000000000000000000000000000000000000000000815260206004820152602e60248201527f45524331393637557067726164653a206e657720696d706c656d656e7461746960448201527f6f6e206973206e6f7420555550530000000000000000000000000000000000006064820152608490fd5b6110ee7f360894a13ba1a3210667c828492db98dca3e2076cc3735a920a3ca505d382bbc610e6a9414610da4565b61139c565b61110c91945060203d8111610fa557610f968183610419565b9238611036565b803b1561117b5773ffffffffffffffffffffffffffffffffffffffff7f360894a13ba1a3210667c828492db98dca3e2076cc3735a920a3ca505d382bbc91167fffffffffffffffffffffffff0000000000000000000000000000000000000000825416179055565b60846040517f08c379a000000000000000000000000000000000000000000000000000000000815260206004820152602d60248201527f455243313936373a206e657720696d706c656d656e746174696f6e206973206e60448201527f6f74206120636f6e7472616374000000000000000000000000000000000000006064820152fd5b9061120982611113565b6040519060009073ffffffffffffffffffffffffffffffffffffffff84167fbc7cd75a20ee27fd9adebab32041f755214dbc6bffa90cc0225b39da2e5c2d3b8385a2805115801590611395575b611261575b50505050565b61126a836103fd565b602783527f416464726573733a206c6f772d6c6576656c2064656c65676174652063616c6c60208401527f206661696c6564000000000000000000000000000000000000000000000000006040840152833b156113115781816112fe9560208394519201905af43d15611308573d6112e18161045a565b906112ef6040519283610419565b8152809260203d92013e61150a565b503880808061125b565b6060915061150a565b60846040517f08c379a000000000000000000000000000000000000000000000000000000000815260206004820152602660248201527f416464726573733a2064656c65676174652063616c6c20746f206e6f6e2d636f60448201527f6e747261637400000000000000000000000000000000000000000000000000006064820152fd5b5081611256565b906113a682611113565b6040519073ffffffffffffffffffffffffffffffffffffffff83167fbc7cd75a20ee27fd9adebab32041f755214dbc6bffa90cc0225b39da2e5c2d3b600084a28051158015906114a4575b6113fa57505050565b611403826103fd565b602782527f416464726573733a206c6f772d6c6576656c2064656c65676174652063616c6c60208301527f206661696c6564000000000000000000000000000000000000000000000000006040830152823b15611311576000816114999460208394519201905af43d1561149c573d9061147c8261045a565b9161148a6040519384610419565b82523d6000602084013e61150a565b50565b60609061150a565b5060016113f1565b919082519283825260005b8481106114f65750507fffffffffffffffffffffffffffffffffffffffffffffffffffffffffffffffe0601f8460006020809697860101520116010190565b6020818301810151848301820152016114b7565b90919015611516575090565b8151156115265750805190602001fd5b610f45906040519182917f08c379a00000000000000000000000000000000000000000000000000000000083526020600484015260248301906114ac565b601f82602094937fffffffffffffffffffffffffffffffffffffffffffffffffffffffffffffffe0938186528686013760008582860101520116010190565b929073ffffffffffffffffffffffffffffffffffffffff9096959694929416835260209384840152608060408401528160808401527f07ffffffffffffffffffffffffffffffffffffffffffffffffffffffffffffff821161000e5784939295949160051b809160a088013785019460a0860190606060a0828903019101525260c084019360c08360051b82010194846000925b858410611648575050505050505090565b909192939495967fffffffffffffffffffffffffffffffffffffffffffffffffffffffffffffff4082820301845287357fffffffffffffffffffffffffffffffffffffffffffffffffffffffffffffffe18436030181121561000e57830186810191903567ffffffffffffffff811161000e57803603831361000e576116d388928392600195611564565b990194019401929594939190611637565b60409073ffffffffffffffffffffffffffffffffffffffff6108a5949316815281602082015201906114ac565b959492909273ffffffffffffffffffffffffffffffffffffffff8760c66040517f6080604052348015600f57600080fd5b5060a88061001e6000396000f3fe608081527f6040526040517f5c60da1b0000000000000000000000000000000000000000006020820152788152600060016020826004857300000000000000000000000060408201527f000000000000000000000000000000000000000000000000000000000000000060601b60548201527f5afa0360705780513682833781823684845af490503d82833e808015606c573d60688201527f83f35b3d83fd5b00fea264697066735822122002f8a2f5acabeb1d754972351e60888201527fc784958a7f99e64f368c267a38bb375594c03c64736f6c63430008100033000060a88201526000f5169283156118f2578397843b1561000e576118a56000937fd77691bae88eab2319cedd12dff464c41a42aff2533c6210c89662b695b731e59860405196879586957fd27b979500000000000000000000000000000000000000000000000000000000875233600488016115a3565b038134865af180156118e5575b6118cc575b506118c7604051928392836116e4565b0390a1565b806118d96118df926103c0565b8061025a565b386118b7565b6118ed610d97565b6118b2565b60646040517f08c379a000000000000000000000000000000000000000000000000000000000815260206004820152600e60248201527f63726561746532206661696c65640000000000000000000000000000000000006044820152fd5b906119b761198b9160405192839173ffffffffffffffffffffffffffffffffffffffff602084019616865260408084015260608301906114ac565b037fffffffffffffffffffffffffffffffffffffffffffffffffffffffffffffffe08101835282610419565b51902090565b605560c66108a592604051907f6080604052348015600f57600080fd5b5060a88061001e6000396000f3fe608082527f6040526040517f5c60da1b0000000000000000000000000000000000000000006020830152788152600060016020826004857300000000000000000000000060408301527f000000000000000000000000000000000000000000000000000000000000000060601b60548301527f5afa0360705780513682833781823684845af490503d82833e808015606c573d60688301527f83f35b3d83fd5b00fea264697066735822122002f8a2f5acabeb1d754972351e60888301527fc784958a7f99e64f368c267a38bb375594c03c64736f6c63430008100033ff0060a88301523060601b60c783015260db82015281812060fb820152012073ffffffffffffffffffffffffffffffffffffffff169056fea264697066735822122001b919eaf68ad04506b723206e1e8acaf048ccbdd7349e89086aba2897638bbd64736f6c63430008100033",
  "devdoc": {
    "kind": "dev",
    "methods": {
      "proxiableUUID()": {
        "details": "Implementation of the ERC1822 {proxiableUUID} function. This returns the storage slot used by the implementation. It is used to validate that the this implementation remains valid after an upgrade. IMPORTANT: A proxy pointing at a proxiable contract should not be considered proxiable itself, because this risks bricking a proxy that upgrades to it, by delegating to itself until out of gas. Thus it is critical that this function revert if invoked through a proxy. This is guaranteed by the `notDelegated` modifier."
      },
      "upgradeTo(address)": {
        "details": "Upgrade the implementation of the proxy to `newImplementation`. Calls {_authorizeUpgrade}. Emits an {Upgraded} event."
      },
      "upgradeToAndCall(address,bytes)": {
        "details": "Upgrade the implementation of the proxy to `newImplementation`, and subsequently execute the function call encoded in `data`. Calls {_authorizeUpgrade}. Emits an {Upgraded} event."
      }
    },
    "version": 1
  },
  "userdoc": {
    "kind": "user",
    "methods": {},
    "version": 1
  },
  "storageLayout": {
    "storage": [],
    "types": null
  }
}