{
  "address": "0x3ec73f79aE071fD72961A371c738939131A7123C",
  "abi": [
    {
      "inputs": [],
      "name": "VERSION",
      "outputs": [
        {
          "internalType": "uint256",
          "name": "",
          "type": "uint256"
        }
      ],
      "stateMutability": "view",
      "type": "function"
    },
    {
      "inputs": [
        {
          "internalType": "bytes32",
          "name": "input",
          "type": "bytes32"
        }
      ],
      "name": "bytes32ToAddress",
      "outputs": [
        {
          "internalType": "address",
          "name": "",
          "type": "address"
        }
      ],
      "stateMutability": "pure",
      "type": "function"
    },
    {
      "inputs": [
        {
          "internalType": "bytes32",
          "name": "input",
          "type": "bytes32"
        }
      ],
      "name": "bytes32ToUint256",
      "outputs": [
        {
          "internalType": "uint256",
          "name": "",
          "type": "uint256"
        }
      ],
      "stateMutability": "pure",
      "type": "function"
    },
    {
      "inputs": [
        {
          "internalType": "bytes",
          "name": "input",
          "type": "bytes"
        }
      ],
      "name": "bytesToString",
      "outputs": [
        {
          "internalType": "string",
          "name": "",
          "type": "string"
        }
      ],
      "stateMutability": "pure",
      "type": "function"
    },
    {
      "inputs": [
        {
          "internalType": "address",
          "name": "balanceAddress",
          "type": "address"
        }
      ],
      "name": "getBalance",
      "outputs": [
        {
          "internalType": "uint256",
          "name": "balance",
          "type": "uint256"
        }
      ],
      "stateMutability": "view",
      "type": "function"
    },
    {
      "inputs": [],
      "name": "getBlockTimestamp",
      "outputs": [
        {
          "internalType": "uint256",
          "name": "timestamp",
          "type": "uint256"
        }
      ],
      "stateMutability": "view",
      "type": "function"
    },
    {
      "inputs": [
        {
          "internalType": "int256",
          "name": "value",
          "type": "int256"
        }
      ],
      "name": "int256ToUint256",
      "outputs": [
        {
          "internalType": "uint256",
          "name": "",
          "type": "uint256"
        }
      ],
      "stateMutability": "pure",
      "type": "function"
    },
    {
      "inputs": [
        {
          "internalType": "uint256",
          "name": "value",
          "type": "uint256"
        }
      ],
      "name": "uint256ToInt256",
      "outputs": [
        {
          "internalType": "int256",
          "name": "",
          "type": "int256"
        }
      ],
      "stateMutability": "pure",
      "type": "function"
    }
  ],
  "transactionHash": "0x12916cf573111cd9f2f971e7cf8b1860cd677118d051fd340cbcc97591a51b9d",
  "args": [],
  "numDeployments": 1,
  "solcInputHash": "409b66573237965fd0ec3859c137dc04",
  "bytecode": "0x608060405234801561001057600080fd5b50610407806100206000396000f3fe608060405234801561001057600080fd5b50600436106100885760003560e01c8063b004cd0d1161005b578063b004cd0d1461010f578063ddcd522014610122578063f8b2cb4f14610130578063ffa1ad741461015857600080fd5b8063294dc2231461008d57806339614e4f146100b35780635ced058e146100d3578063796b89b914610109575b600080fd5b6100a061009b36600461028d565b610160565b6040519081526020015b60405180910390f35b6100c66100c13660046102a6565b6101d5565b6040516100aa9190610318565b6100e46100e136600461028d565b90565b60405173ffffffffffffffffffffffffffffffffffffffff90911681526020016100aa565b426100a0565b6100a061011d36600461028d565b610201565b6100a06100e136600461028d565b6100a061013e366004610384565b73ffffffffffffffffffffffffffffffffffffffff163190565b6100a0600281565b6000808212156101d1576040517f08c379a000000000000000000000000000000000000000000000000000000000815260206004820152601660248201527f56616c7565206d75737420626520706f7369746976650000000000000000000060448201526064015b60405180910390fd5b5090565b606082826040516020016101ea9291906103c1565b604051602081830303815290604052905092915050565b60007f7fffffffffffffffffffffffffffffffffffffffffffffffffffffffffffffff8211156101d1576040517f08c379a000000000000000000000000000000000000000000000000000000000815260206004820152601f60248201527f56616c756520646f6573206e6f742066697420696e20616e20696e743235360060448201526064016101c8565b60006020828403121561029f57600080fd5b5035919050565b600080602083850312156102b957600080fd5b823567ffffffffffffffff808211156102d157600080fd5b818501915085601f8301126102e557600080fd5b8135818111156102f457600080fd5b86602082850101111561030657600080fd5b60209290920196919550909350505050565b600060208083528351808285015260005b8181101561034557858101830151858201604001528201610329565b5060006040828601015260407fffffffffffffffffffffffffffffffffffffffffffffffffffffffffffffffe0601f8301168501019250505092915050565b60006020828403121561039657600080fd5b813573ffffffffffffffffffffffffffffffffffffffff811681146103ba57600080fd5b9392505050565b818382376000910190815291905056fea26469706673582212205c8cc54af5618a84b337c1de3f06a106c33ed6c7f7f945270507fae459068d5e64736f6c63430008100033",
  "devdoc": {
    "details": "SignedMathHelpers contract is recommended to use only in Shortcuts passed to EnsoWallet. This contract functions allow to dynamically get the data during Shortcut transaction execution that usually would be read between transactions",
    "kind": "dev",
    "methods": {
      "bytes32ToAddress(bytes32)": {
        "details": "Returns `input` bytes32 as address."
      },
      "bytes32ToUint256(bytes32)": {
        "details": "Returns `input` bytes32 as uint256."
      },
      "bytesToString(bytes)": {
        "details": "Returns `input` bytes as string."
      },
      "getBalance(address)": {
        "details": "Returns the ether balance of given `balanceAdderess`."
      },
      "getBlockTimestamp()": {
        "details": "Returns the current block timestamp."
      },
      "int256ToUint256(int256)": {
        "details": "Returns int256 `value` as uint256."
      },
      "uint256ToInt256(uint256)": {
        "details": "Returns uint256 `value` as int256."
      }
    },
    "version": 1
  },
  "userdoc": {
    "kind": "user",
    "methods": {},
    "version": 1
  },
  "storageLayout": {
    "storage": [],
    "types": null
  }
}