{
  "address": "0x19740262c9a413816EC2884a5241eA53aB7096Ed",
  "abi": [
    {
      "inputs": [],
      "name": "AlreadyInit",
      "type": "error"
    },
    {
      "inputs": [
        {
          "internalType": "uint256",
          "name": "command_index",
          "type": "uint256"
        },
        {
          "internalType": "address",
          "name": "target",
          "type": "address"
        },
        {
          "internalType": "string",
          "name": "message",
          "type": "string"
        }
      ],
      "name": "ExecutionFailed",
      "type": "error"
    },
    {
      "inputs": [],
      "name": "InvalidArrayLength",
      "type": "error"
    },
    {
      "inputs": [],
      "name": "NotPermitted",
      "type": "error"
    },
    {
      "inputs": [],
      "name": "UnsafeSetting",
      "type": "error"
    },
    {
      "inputs": [],
      "name": "WithdrawFailed",
      "type": "error"
    },
    {
      "anonymous": false,
      "inputs": [
        {
          "indexed": false,
          "internalType": "bytes32",
          "name": "role",
          "type": "bytes32"
        },
        {
          "indexed": false,
          "internalType": "address",
          "name": "account",
          "type": "address"
        },
        {
          "indexed": false,
          "internalType": "bool",
          "name": "permission",
          "type": "bool"
        }
      ],
      "name": "PermissionSet",
      "type": "event"
    },
    {
      "inputs": [],
      "name": "EXECUTOR_ROLE",
      "outputs": [
        {
          "internalType": "bytes32",
          "name": "",
          "type": "bytes32"
        }
      ],
      "stateMutability": "view",
      "type": "function"
    },
    {
      "inputs": [],
      "name": "OWNER_ROLE",
      "outputs": [
        {
          "internalType": "bytes32",
          "name": "",
          "type": "bytes32"
        }
      ],
      "stateMutability": "view",
      "type": "function"
    },
    {
      "inputs": [
        {
          "internalType": "address",
          "name": "target",
          "type": "address"
        },
        {
          "internalType": "uint256",
          "name": "value",
          "type": "uint256"
        },
        {
          "internalType": "bytes",
          "name": "data",
          "type": "bytes"
        }
      ],
      "name": "execute",
      "outputs": [
        {
          "internalType": "bool",
          "name": "success",
          "type": "bool"
        }
      ],
      "stateMutability": "payable",
      "type": "function"
    },
    {
      "inputs": [
        {
          "internalType": "bytes32",
          "name": "shortcutId",
          "type": "bytes32"
        },
        {
          "internalType": "bytes32[]",
          "name": "commands",
          "type": "bytes32[]"
        },
        {
          "internalType": "bytes[]",
          "name": "state",
          "type": "bytes[]"
        }
      ],
      "name": "executeShortcut",
      "outputs": [
        {
          "internalType": "bytes[]",
          "name": "returnData",
          "type": "bytes[]"
        }
      ],
      "stateMutability": "payable",
      "type": "function"
    },
    {
      "inputs": [
        {
          "internalType": "bytes32",
          "name": "role",
          "type": "bytes32"
        },
        {
          "internalType": "address",
          "name": "account",
          "type": "address"
        }
      ],
      "name": "getPermission",
      "outputs": [
        {
          "internalType": "bool",
          "name": "",
          "type": "bool"
        }
      ],
      "stateMutability": "view",
      "type": "function"
    },
    {
      "inputs": [
        {
          "internalType": "address",
          "name": "owner",
          "type": "address"
        },
        {
          "internalType": "bytes32",
          "name": "salt",
          "type": "bytes32"
        },
        {
          "internalType": "bytes32",
          "name": "shortcutId",
          "type": "bytes32"
        },
        {
          "internalType": "bytes32[]",
          "name": "commands",
          "type": "bytes32[]"
        },
        {
          "internalType": "bytes[]",
          "name": "state",
          "type": "bytes[]"
        }
      ],
      "name": "initialize",
      "outputs": [],
      "stateMutability": "payable",
      "type": "function"
    },
    {
      "inputs": [
        {
          "internalType": "bytes32",
          "name": "hash",
          "type": "bytes32"
        },
        {
          "internalType": "bytes",
          "name": "signature",
          "type": "bytes"
        }
      ],
      "name": "isValidSignature",
      "outputs": [
        {
          "internalType": "bytes4",
          "name": "magicValue",
          "type": "bytes4"
        }
      ],
      "stateMutability": "view",
      "type": "function"
    },
    {
      "inputs": [
        {
          "internalType": "bytes",
          "name": "message",
          "type": "bytes"
        },
        {
          "internalType": "bytes",
          "name": "signature",
          "type": "bytes"
        }
      ],
      "name": "isValidSignature",
      "outputs": [
        {
          "internalType": "bytes4",
          "name": "magicValue",
          "type": "bytes4"
        }
      ],
      "stateMutability": "view",
      "type": "function"
    },
    {
      "inputs": [
        {
          "internalType": "address",
          "name": "",
          "type": "address"
        },
        {
          "internalType": "address",
          "name": "",
          "type": "address"
        },
        {
          "internalType": "uint256[]",
          "name": "",
          "type": "uint256[]"
        },
        {
          "internalType": "uint256[]",
          "name": "",
          "type": "uint256[]"
        },
        {
          "internalType": "bytes",
          "name": "",
          "type": "bytes"
        }
      ],
      "name": "onERC1155BatchReceived",
      "outputs": [
        {
          "internalType": "bytes4",
          "name": "",
          "type": "bytes4"
        }
      ],
      "stateMutability": "nonpayable",
      "type": "function"
    },
    {
      "inputs": [
        {
          "internalType": "address",
          "name": "",
          "type": "address"
        },
        {
          "internalType": "address",
          "name": "",
          "type": "address"
        },
        {
          "internalType": "uint256",
          "name": "",
          "type": "uint256"
        },
        {
          "internalType": "uint256",
          "name": "",
          "type": "uint256"
        },
        {
          "internalType": "bytes",
          "name": "",
          "type": "bytes"
        }
      ],
      "name": "onERC1155Received",
      "outputs": [
        {
          "internalType": "bytes4",
          "name": "",
          "type": "bytes4"
        }
      ],
      "stateMutability": "nonpayable",
      "type": "function"
    },
    {
      "inputs": [
        {
          "internalType": "address",
          "name": "",
          "type": "address"
        },
        {
          "internalType": "address",
          "name": "",
          "type": "address"
        },
        {
          "internalType": "uint256",
          "name": "",
          "type": "uint256"
        },
        {
          "internalType": "bytes",
          "name": "",
          "type": "bytes"
        }
      ],
      "name": "onERC721Received",
      "outputs": [
        {
          "internalType": "bytes4",
          "name": "",
          "type": "bytes4"
        }
      ],
      "stateMutability": "nonpayable",
      "type": "function"
    },
    {
      "inputs": [
        {
          "components": [
            {
              "internalType": "enum MinimalWallet.Protocol",
              "name": "protocol",
              "type": "uint8"
            },
            {
              "internalType": "address",
              "name": "token",
              "type": "address"
            },
            {
              "internalType": "address[]",
              "name": "operators",
              "type": "address[]"
            }
          ],
          "internalType": "struct MinimalWallet.ApprovalNote[]",
          "name": "notes",
          "type": "tuple[]"
        }
      ],
      "name": "revokeApprovals",
      "outputs": [],
      "stateMutability": "nonpayable",
      "type": "function"
    },
    {
      "inputs": [
        {
          "internalType": "contract IERC1155",
          "name": "erc1155",
          "type": "address"
        },
        {
          "internalType": "address[]",
          "name": "operators",
          "type": "address[]"
        }
      ],
      "name": "revokeERC1155Approvals",
      "outputs": [],
      "stateMutability": "nonpayable",
      "type": "function"
    },
    {
      "inputs": [
        {
          "internalType": "contract IERC20",
          "name": "erc20",
          "type": "address"
        },
        {
          "internalType": "address[]",
          "name": "operators",
          "type": "address[]"
        }
      ],
      "name": "revokeERC20Approvals",
      "outputs": [],
      "stateMutability": "nonpayable",
      "type": "function"
    },
    {
      "inputs": [
        {
          "internalType": "contract IERC721",
          "name": "erc721",
          "type": "address"
        },
        {
          "internalType": "address[]",
          "name": "operators",
          "type": "address[]"
        }
      ],
      "name": "revokeERC721Approvals",
      "outputs": [],
      "stateMutability": "nonpayable",
      "type": "function"
    },
    {
      "inputs": [
        {
          "internalType": "bytes32",
          "name": "role",
          "type": "bytes32"
        },
        {
          "internalType": "address",
          "name": "account",
          "type": "address"
        },
        {
          "internalType": "bool",
          "name": "permission",
          "type": "bool"
        }
      ],
      "name": "setPermission",
      "outputs": [],
      "stateMutability": "nonpayable",
      "type": "function"
    },
    {
      "inputs": [
        {
          "internalType": "bytes4",
          "name": "interfaceId",
          "type": "bytes4"
        }
      ],
      "name": "supportsInterface",
      "outputs": [
        {
          "internalType": "bool",
          "name": "",
          "type": "bool"
        }
      ],
      "stateMutability": "view",
      "type": "function"
    },
    {
      "inputs": [
        {
          "components": [
            {
              "internalType": "enum MinimalWallet.Protocol",
              "name": "protocol",
              "type": "uint8"
            },
            {
              "internalType": "address",
              "name": "token",
              "type": "address"
            },
            {
              "internalType": "uint256[]",
              "name": "ids",
              "type": "uint256[]"
            },
            {
              "internalType": "uint256[]",
              "name": "amounts",
              "type": "uint256[]"
            }
          ],
          "internalType": "struct MinimalWallet.TransferNote[]",
          "name": "notes",
          "type": "tuple[]"
        }
      ],
      "name": "withdraw",
      "outputs": [],
      "stateMutability": "nonpayable",
      "type": "function"
    },
    {
      "inputs": [
        {
          "internalType": "contract IERC1155",
          "name": "erc1155",
          "type": "address"
        },
        {
          "internalType": "uint256[]",
          "name": "ids",
          "type": "uint256[]"
        },
        {
          "internalType": "uint256[]",
          "name": "amounts",
          "type": "uint256[]"
        }
      ],
      "name": "withdrawERC1155s",
      "outputs": [],
      "stateMutability": "nonpayable",
      "type": "function"
    },
    {
      "inputs": [
        {
          "internalType": "contract IERC20[]",
          "name": "erc20s",
          "type": "address[]"
        },
        {
          "internalType": "uint256[]",
          "name": "amounts",
          "type": "uint256[]"
        }
      ],
      "name": "withdrawERC20s",
      "outputs": [],
      "stateMutability": "nonpayable",
      "type": "function"
    },
    {
      "inputs": [
        {
          "internalType": "contract IERC721",
          "name": "erc721",
          "type": "address"
        },
        {
          "internalType": "uint256[]",
          "name": "ids",
          "type": "uint256[]"
        }
      ],
      "name": "withdrawERC721s",
      "outputs": [],
      "stateMutability": "nonpayable",
      "type": "function"
    },
    {
      "inputs": [
        {
          "internalType": "uint256",
          "name": "amount",
          "type": "uint256"
        }
      ],
      "name": "withdrawETH",
      "outputs": [],
      "stateMutability": "nonpayable",
      "type": "function"
    },
    {
      "stateMutability": "payable",
      "type": "receive"
    }
  ],
  "transactionHash": "0xab2ff11675a14358e92d4d0b956061cadfc3418cc4fc01fe8bcc76f494addc59",
  "args": [],
  "numDeployments": 5,
  "solcInputHash": "f492a406ee05b3836d68e4cbaf7d9cbf",
  "bytecode": "0x6080806040523461001657613603908161001c8239f35b600080fdfe6080604052600436101561001b575b361561001957600080fd5b005b60003560e01c806301ffc9a7146101ca57806307bd0265146101c15780630fe786e114610131578063150b7a02146101b85780631626ba7e146101af57806320c13b0b146101a657806331b455a51461019d57806356255c5314610194578063599e4c701461018b57806360d6c7cf146101825780638a2685a9146101795780638fd8d1bb14610170578063a4508b1f14610167578063b61d27f61461015e578063bc197c8114610155578063dedd65241461014c578063e1084a1314610143578063e58378bb1461013a578063e5cb370314610131578063f14210a614610128578063f23a6e611461011f5763f4adeb750361000e5761011a6114c2565b61000e565b5061011a611431565b5061011a6113e7565b5061011a610487565b5061011a61138d565b5061011a61125e565b5061011a61110a565b5061011a611038565b5061011a610fb5565b5061011a610f26565b5061011a610e8a565b5061011a610ca8565b5061011a610c54565b5061011a610b6c565b5061011a610aee565b5061011a610a1c565b5061011a610730565b5061011a610646565b5061011a6105b5565b5061011a61029a565b503461028a5760207ffffffffffffffffffffffffffffffffffffffffffffffffffffffffffffffffc36011261028a576004357fffffffff00000000000000000000000000000000000000000000000000000000811680910361028a57807f4e2312e00000000000000000000000000000000000000000000000000000000060209214908115610260575b506040519015158152f35b7f01ffc9a70000000000000000000000000000000000000000000000000000000091501438610255565b600080fd5b600091031261028a57565b503461028a5760007ffffffffffffffffffffffffffffffffffffffffffffffffffffffffffffffffc36011261028a5760206040517fd931ed5eea9427443091b211e417e6f83bd1d1a5235f4e7adbb05b55612080308152f35b73ffffffffffffffffffffffffffffffffffffffff81160361028a57565b507f4e487b7100000000000000000000000000000000000000000000000000000000600052604160045260246000fd5b6080810190811067ffffffffffffffff82111761035e57604052565b610366610312565b604052565b6060810190811067ffffffffffffffff82111761035e57604052565b67ffffffffffffffff811161035e57604052565b6040810190811067ffffffffffffffff82111761035e57604052565b90601f7fffffffffffffffffffffffffffffffffffffffffffffffffffffffffffffffe0910116810190811067ffffffffffffffff82111761035e57604052565b60209067ffffffffffffffff8111610412575b60051b0190565b61041a610312565b61040b565b81601f8201121561028a57803591610436836103f8565b9261044460405194856103b7565b808452602092838086019260051b82010192831161028a578301905b82821061046e575050505090565b838091833561047c816102f4565b815201910190610460565b503461028a5760407ffffffffffffffffffffffffffffffffffffffffffffffffffffffffffffffffc36011261028a576004356104c3816102f4565b60243567ffffffffffffffff811161028a576104e390369060040161041f565b6104ec336126e5565b54156104fb5761001991613503565b60046040517f39218f3b000000000000000000000000000000000000000000000000000000008152fd5b7fffffffffffffffffffffffffffffffffffffffffffffffffffffffffffffffe0601f60209267ffffffffffffffff8111610561575b01160190565b610569610312565b61055b565b81601f8201121561028a5780359061058582610525565b9261059360405194856103b7565b8284526020838301011161028a57816000926020809301838601378301015290565b503461028a5760807ffffffffffffffffffffffffffffffffffffffffffffffffffffffffffffffffc36011261028a576105f06004356102f4565b6105fb6024356102f4565b60643567ffffffffffffffff811161028a5761061b90369060040161056e565b5060206040517f150b7a02000000000000000000000000000000000000000000000000000000008152f35b503461028a5760407ffffffffffffffffffffffffffffffffffffffffffffffffffffffffffffffffc36011261028a5760243567ffffffffffffffff811161028a576106af6106a761069f6106b493369060040161056e565b600435612b0a565b919091612981565b6126e5565b54156107085760207f1626ba7e000000000000000000000000000000000000000000000000000000005b7fffffffff0000000000000000000000000000000000000000000000000000000060405191168152f35b60207fffffffff000000000000000000000000000000000000000000000000000000006106de565b503461028a5760407ffffffffffffffffffffffffffffffffffffffffffffffffffffffffffffffffc36011261028a5767ffffffffffffffff60043581811161028a5761078190369060040161056e565b9060243590811161028a5761079a90369060040161056e565b815191826000937a184f03e93ff9f4daa797ed6e38ed64bf6a1f01000000000000000080821015610a0e575b506d04ee2d6d415b85acef8100000000808310156109ff575b50662386f26fc10000808310156109f0575b506305f5e100808310156109e1575b50612710808310156109d2575b5060648210156109c2575b600a809210156109b8575b600190816021610834828901611c37565b97880101905b610957575b50505050906108cd926108946108c06108c89460405192839161088e602084019661088e88601a907f19457468657265756d205369676e6564204d6573736167653a0a00000000000081520190565b90612bf9565b037fffffffffffffffffffffffffffffffffffffffffffffffffffffffffffffffe081018352826103b7565b519020612932565b612bec565b1561092e5761092a7f20c13b0b000000000000000000000000000000000000000000000000000000005b6040517fffffffff0000000000000000000000000000000000000000000000000000000090911681529081906020820190565b0390f35b61092a7fffffffff000000000000000000000000000000000000000000000000000000006108f7565b7fffffffffffffffffffffffffffffffffffffffffffffffffffffffffffffffff849101917f30313233343536373839616263646566000000000000000000000000000000008282061a8353049182156109b35791908261083a565b61083f565b9360010193610823565b9390606460029104910193610818565b6004919592049101933861080d565b60089195920491019338610800565b601091959204910193386107f1565b602091959204910193386107df565b6040955081049150386107c6565b503461028a5760407ffffffffffffffffffffffffffffffffffffffffffffffffffffffffffffffffc36011261028a57600435610a58816102f4565b60243567ffffffffffffffff811161028a57610a7890369060040161041f565b610a81336126e5565b54156104fb576100199161345e565b81601f8201121561028a57803591610aa7836103f8565b92610ab560405194856103b7565b808452602092838086019260051b82010192831161028a578301905b828210610adf575050505090565b81358152908301908301610ad1565b503461028a5760407ffffffffffffffffffffffffffffffffffffffffffffffffffffffffffffffffc36011261028a57600435610b2a816102f4565b60243567ffffffffffffffff811161028a57610b4a903690600401610a90565b610b53336126e5565b54156104fb576100199161328e565b8015150361028a57565b503461028a5760607ffffffffffffffffffffffffffffffffffffffffffffffffffffffffffffffffc36011261028a57600435602435610bab816102f4565b60443590610bb882610b62565b610bc1336126e5565b54156104fb577f3fbe42dcb277543d3741131fe04ce9fb205e3b7154603a23a25efd63ed2c9e1c831480610c35575b80610c2d575b610c0357610019926128d6565b60046040517f337b9b30000000000000000000000000000000000000000000000000000000008152fd5b508115610bf6565b503373ffffffffffffffffffffffffffffffffffffffff821614610bf0565b503461028a5760407ffffffffffffffffffffffffffffffffffffffffffffffffffffffffffffffffc36011261028a576020610c9d602435610c95816102f4565b600435612791565b546040519015158152f35b503461028a5760407ffffffffffffffffffffffffffffffffffffffffffffffffffffffffffffffffc36011261028a5767ffffffffffffffff60043581811161028a573660238201121561028a578060040135610d04816103f8565b91610d1260405193846103b7565b81835260209160248385019160051b8301019136831161028a57602401905b828210610d5a576024358587821161028a57610d54610019923690600401610a90565b90612e34565b8380918335610d68816102f4565b815201910190610d31565b9181601f8401121561028a5782359167ffffffffffffffff831161028a576020808501948460051b01011161028a57565b60005b838110610db75750506000910152565b8181015183820152602001610da7565b907fffffffffffffffffffffffffffffffffffffffffffffffffffffffffffffffe0601f602093610e0381518092818752878088019101610da4565b0116010190565b602080820190808352835180925260408301928160408460051b8301019501936000915b848310610e3e5750505050505090565b9091929394958480610e7a837fffffffffffffffffffffffffffffffffffffffffffffffffffffffffffffffc086600196030187528a51610dc7565b9801930193019194939290610e2e565b5060607ffffffffffffffffffffffffffffffffffffffffffffffffffffffffffffffffc36011261028a5767ffffffffffffffff60243581811161028a57610ed6903690600401610d73565b909160443590811161028a57610ef0903690600401610d73565b929091610efc3361273e565b54156104fb57610f14610f1a9361092a953691611649565b916117db565b60405191829182610e0a565b503461028a5760607ffffffffffffffffffffffffffffffffffffffffffffffffffffffffffffffffc36011261028a57600435610f62816102f4565b67ffffffffffffffff60243581811161028a57610f83903690600401610a90565b9060443590811161028a57610f9c903690600401610a90565b90610fa6336126e5565b54156104fb5761001992613380565b5060607ffffffffffffffffffffffffffffffffffffffffffffffffffffffffffffffffc36011261028a57600435610fec816102f4565b60443567ffffffffffffffff811161028a5761100c90369060040161056e565b6110153361273e565b54156104fb5760008160209384839451920190602435905af16040519015158152f35b503461028a5760a07ffffffffffffffffffffffffffffffffffffffffffffffffffffffffffffffffc36011261028a576110736004356102f4565b61107e6024356102f4565b67ffffffffffffffff60443581811161028a5761109f903690600401610a90565b5060643581811161028a576110b8903690600401610a90565b5060843590811161028a576110d190369060040161056e565b506040517fbc197c81000000000000000000000000000000000000000000000000000000008152602090f35b3590600482101561028a57565b503461028a576020807ffffffffffffffffffffffffffffffffffffffffffffffffffffffffffffffffc36011261028a576004359067ffffffffffffffff9081831161028a573660238401121561028a5782600401359261116a846103f8565b9360409361117a855196876103b7565b818652838601906024809360051b8501019336851161028a57838101925b8584106111ae576000886111ab8b612c0c565b51f35b833583811161028a57820160807fffffffffffffffffffffffffffffffffffffffffffffffffffffffffffffffdc823603011261028a578851916111f183610342565b6111fc8783016110fd565b8352604482013561120c816102f4565b89840152606482013585811161028a5761122b90883691850101610a90565b8a84015260848201359285841161028a5761124e8a949389869536920101610a90565b6060820152815201930192611198565b503461028a576020807ffffffffffffffffffffffffffffffffffffffffffffffffffffffffffffffffc36011261028a576004359067ffffffffffffffff80831161028a573660238401121561028a578260040135916112bd836103f8565b916040936112cd855194856103b7565b8084528284016024809260051b8801019236841161028a57828801915b8483106112fd576000886111ab89612e96565b823582811161028a57890160607fffffffffffffffffffffffffffffffffffffffffffffffffffffffffffffffdc823603011261028a578851916113408361036b565b61134b8683016110fd565b8352604482013561135b816102f4565b8884015260648201359284841161028a5761137e8994938886953692010161041f565b8b8201528152019201916112ea565b503461028a5760007ffffffffffffffffffffffffffffffffffffffffffffffffffffffffffffffffc36011261028a5760206040517f3fbe42dcb277543d3741131fe04ce9fb205e3b7154603a23a25efd63ed2c9e1c8152f35b503461028a5760207ffffffffffffffffffffffffffffffffffffffffffffffffffffffffffffffffc36011261028a57611420336126e5565b54156104fb57610019600435612ff7565b503461028a5760a07ffffffffffffffffffffffffffffffffffffffffffffffffffffffffffffffffc36011261028a5761146c6004356102f4565b6114776024356102f4565b60843567ffffffffffffffff811161028a5761149790369060040161056e565b5060206040517ff23a6e61000000000000000000000000000000000000000000000000000000008152f35b5060a07ffffffffffffffffffffffffffffffffffffffffffffffffffffffffffffffffc36011261028a576004356114f9816102f4565b67ffffffffffffffff60643581811161028a5761151a903690600401610d73565b909160843590811161028a57611534903690600401610d73565b90937f8ace5aef1887be9219d1b04dbcfb5676ed5a12ec4a1129de5781d4d7ea71c9ed90815461158b57611575916024359055611570816127c5565b61285a565b8161157c57005b61001993610f14913691611649565b60046040517fef34ca5c000000000000000000000000000000000000000000000000000000008152fd5b507f4e487b7100000000000000000000000000000000000000000000000000000000600052601160045260246000fd5b907fffffffffffffffffffffffffffffffffffffffffffffffffffffffffffffffff820191821161161257565b61161a6115b5565b565b907fffffffffffffffffffffffffffffffffffffffffffffffffffffffffffffffe0820191821161161257565b92919092611656846103f8565b9161166460405193846103b7565b829480845260208094019060051b83019282841161028a5780915b84831061168e57505050505050565b823567ffffffffffffffff811161028a5786916116ae868493860161056e565b81520192019161167f565b507f4e487b7100000000000000000000000000000000000000000000000000000000600052603260045260246000fd5b91908110156116f95760051b0190565b61041a6116b9565b60209080511561170f570190565b6117176116b9565b0190565b6020918151811015611730575b60051b010190565b6117386116b9565b611728565b3d15611768573d9061174e82610525565b9161175c60405193846103b7565b82523d6000602084013e565b606090565b6040519061177a8261039b565b600782527f556e6b6e6f776e000000000000000000000000000000000000000000000000006020830152565b73ffffffffffffffffffffffffffffffffffffffff6117d8949360609383521660208201528160408201520190610dc7565b90565b9060005b8181106117ec5750505090565b6117f78183856116e9565b604091903560d881901c838116159283611bc7576001019361181a8587896116e9565b355b6003838116806119bb575050600080916020908186161583146119a457611866907fffffffff0000000000000000000000000000000000000000000000000000000088168d611c86565b905b8151910173ffffffffffffffffffffffffffffffffffffffff87165af49361188e61173d565b945b15611912575050608016156118d857600192917fff000000000000000000000000000000000000000000000000000000000000006118d29260581b1687612665565b016117df565b90600192957fff0000000000000000000000000000000000000000000000000000000000000061190c9360581b16906125b9565b936118d2565b6119789250938573ffffffffffffffffffffffffffffffffffffffff95825161199a575b1561198b57905b80511561197c57915b519485947fef3dcb2f0000000000000000000000000000000000000000000000000000000086521690600485016117a6565b0390fd5b5061198561176d565b91611946565b611994906115e5565b9061193d565b9160440191611936565b607f6119b49160f81c168c61171b565b5190611868565b60018103611a4957505060008091602090818616158314611a3257611a03907fffffffff0000000000000000000000000000000000000000000000000000000088168d611c86565b905b815191018273ffffffffffffffffffffffffffffffffffffffff88165af193611a2c61173d565b94611890565b607f611a429160f81c168c61171b565b5190611a05565b60028103611ad057505060008091602090818616158314611ab957611a91907fffffffff0000000000000000000000000000000000000000000000000000000088168d611c86565b905b8151910173ffffffffffffffffffffffffffffffffffffffff87165afa93611a2c61173d565b607f611ac99160f81c168c61171b565b5190611a93565b03611b69576000809160209081611aeb8d8360f81c9061171b565b51015190828716158414611b5257611b299060081b7fffffffff0000000000000000000000000000000000000000000000000000000089168e611c86565b915b825192019073ffffffffffffffffffffffffffffffffffffffff88165af193611a2c61173d565b607f611b629160f01c168d61171b565b5191611b2b565b50517f08c379a000000000000000000000000000000000000000000000000000000000815260206004820152601060248201527f496e76616c69642063616c6c74797065000000000000000000000000000000006044820152606490fd5b9379ffffffffffffffffffffffffffffffffffffffffffffffffffff8360281b1761181c565b60405190610160820182811067ffffffffffffffff821117611c1c575b604052600a8252610140366020840137565b611c24610312565b611c0a565b906004820180921161161257565b90611c4182610525565b611c4e60405191826103b7565b8281527fffffffffffffffffffffffffffffffffffffffffffffffffffffffffffffffe0611c7c8294610525565b0190602036910137565b929192600090818291611c97611bed565b916060928596865b60209081891015611f06578b891a60ff8114611d75576080811615611d675760fe8103611d035750865115611ce2575b90600191875101975b0197019695611c9f565b9550600190604051611cfa8161089489858301610e0a565b96909150611ccf565b92989197949193909260fd8103611d345750916001949391611d26938d88612060565b989294919790979493611cd8565b60fc8103611d4e5750916001949391611d26938d8861210b565b611d6190600193969992959a9488611fbd565b97611cd8565b611d61906001939288611f1b565b5097985090969194939250611d9391611d8e9150611c29565b611c37565b97602095868a0152600093849185965b898810611db65750505050505050505050565b889081891015611ef9575b8c838a1a6080811615611ed45760fe8103611e32575081611e22826001959460248d7fffffffffffffffffffffffffffffffffffffffffffffffffffffffffffffffe096010152611e1183611c29565b611e1b8c5161161c565b918c6126d3565b885101019701975b019695611da3565b929895919260fd8103611e6857509160019991858589868560248c611e599a010152612208565b90509891979097940197611e2a565b60fc8103611e8a57509160019991858589868560248c611e599a010152612259565b92611ecb87602493611eba8b859b9e979b611eab607f60019b16809361171b565b5151978895850101528c61171b565b5190611ec585611c29565b916126c1565b01970197611e2a565b9060248a85611eeb607f600198979e96168c61171b565b510151920101520197611e2a565b611f016116b9565b611dc1565b9050611d8e919750611d939295949350611c29565b611f2c90607f60209394169061171b565b515103611f395760200190565b60846040517f08c379a000000000000000000000000000000000000000000000000000000000815260206004820152602760248201527f537461746963207374617465207661726961626c6573206d757374206265203360448201527f32206279746573000000000000000000000000000000000000000000000000006064820152fd5b607f611fcb9293169061171b565b5151601f8116611fdc570160200190565b60846040517f08c379a000000000000000000000000000000000000000000000000000000000815260206004820152603660248201527f44796e616d6963207374617465207661726961626c6573206d7573742062652060448201527f61206d756c7469706c65206f66203332206279746573000000000000000000006064820152fd5b92919093946001019360208510156120fe575b6020612084607f83881a168661171b565b5151036120a057602061209896019361210b565b929391929091565b60646040517f08c379a000000000000000000000000000000000000000000000000000000000815260206004820152601d60248201527f4172726179206c656e677468206d7573742062652033322062797465730000006044820152fd5b6121066116b9565b612073565b9493909592600091600180960195808301986020809301985b8389106121375750505050505093929190565b81891a60808116156121f55760fb810361216157505050505061215a908361171b565b5293929190565b9a849b978860fd869d949697999a9c959c146000146121a15750906121899392918b86612060565b9b929b9a919a96909a9b975b01950197909291612124565b60fc9193959798508092949650146000146121d957509284926121c9928b958b8e999861210b565b9b929b9a919a96909a9b97612195565b9a6121ef81939c87958d9799989d949a9d611fbd565b9a612195565b936121ef849582949b989c849694611f1b565b93929190602060016122409801968188101561224c575b8161222f607f868b1a168561171b565b510151602482890101520194612259565b92939192602090910191565b6122546116b9565b61221f565b949095929196939660009661226e898561171b565b51906001808584019b019601975b602095868a10156123c557848a1a60808116156123965760fb81036122a957505050505050505093929190565b9b8498889d958660fd8a9f9b989e9596979a999e146000146122fd575060248697986122dc9697010152848c8988612208565b919c9781019095019a91979094019501926001905b0197929390949161227c565b92949650509193955060fc811460001461234557509161232c918594938960248f988f010152848c8988612259565b919c9781019095019a91979094019501926001906122f1565b9b8860248d83949b9f956123888a61237d8d607f60019b9e9d9c9e169061236c828261171b565b51519889988998899601015261171b565b518b611ec585611c29565b019e019801019a01936122f1565b96869b819294976024836123b4999e99607f6001989a9d168c61171b565b5101519188010152019a01936122f1565b5050505050505093929190565b156123d957565b60846040517f08c379a000000000000000000000000000000000000000000000000000000000815260206004820152602860248201527f4f6e6c79206f6e652072657475726e2076616c7565207065726d69747465642060448201527f28737461746963290000000000000000000000000000000000000000000000006064820152fd5b1561246457565b60846040517f08c379a000000000000000000000000000000000000000000000000000000000815260206004820152602a60248201527f4f6e6c79206f6e652072657475726e2076616c7565207065726d69747465642060448201527f287661726961626c6529000000000000000000000000000000000000000000006064820152fd5b602090818184031261028a57805167ffffffffffffffff9182821161028a57019083601f8301121561028a57815161251f816103f8565b9460409261252f845197886103b7565b828752858088019360051b8601019482861161028a57868101935b86851061255c57505050505050505090565b845183811161028a5782019084603f8301121561028a57888201519061258182610525565b61258d895191826103b7565b8281528689848601011161028a576125ae8b949385948b8685019101610da4565b81520194019361254a565b91908060f81c60ff811461265f5760808116156126325760fe036125ec57506117d89150602080825183010191016124e8565b610fe06020917fffffffffffffffffffffffffffffffffffffffffffffffffffffffffffffffe0838501946126238587511461245d565b5101845260f31c168301015290565b829150607f90612648602061265b9551146123d2565b1690612654828561171b565b528261171b565b5090565b50505090565b9060f81c9060ff82146126bc5760209161269d9161268d85518581018091116126b457611c37565b612697838361171b565b5261171b565b51918051604084018184840160045afa5051910152565b611d8e6115b5565b505050565b916020809185930101920160045afa50565b910160200190829060400160045afa50565b60405173ffffffffffffffffffffffffffffffffffffffff60208201927f3fbe42dcb277543d3741131fe04ce9fb205e3b7154603a23a25efd63ed2c9e1c8452166040820152604081526127388161036b565b51902090565b60405173ffffffffffffffffffffffffffffffffffffffff60208201927fd931ed5eea9427443091b211e417e6f83bd1d1a5235f4e7adbb05b55612080308452166040820152604081526127388161036b565b9073ffffffffffffffffffffffffffffffffffffffff6040519160208301938452166040820152604081526127388161036b565b60607ff7682c7604ab581823c6ee4b22f8283179771e57c8115328f4a698be07430a419160405160016020820173ffffffffffffffffffffffffffffffffffffffff7f3fbe42dcb277543d3741131fe04ce9fb205e3b7154603a23a25efd63ed2c9e1c948583521692836040820152604081526128418161036b565b51902055604051918252602082015260016040820152a1565b60607ff7682c7604ab581823c6ee4b22f8283179771e57c8115328f4a698be07430a419160405160016020820173ffffffffffffffffffffffffffffffffffffffff7fd931ed5eea9427443091b211e417e6f83bd1d1a5235f4e7adbb05b5561208030948583521692836040820152604081526128418161036b565b7ff7682c7604ab581823c6ee4b22f8283179771e57c8115328f4a698be07430a419273ffffffffffffffffffffffffffffffffffffffff6060938261291b8286612791565b5560405193845216602083015215156040820152a1565b6117d8916106a791612b0a565b507f4e487b7100000000000000000000000000000000000000000000000000000000600052602160045260246000fd5b6005111561297957565b61161a61293f565b61298a8161296f565b806129925750565b61299b8161296f565b60018103612a02576040517f08c379a000000000000000000000000000000000000000000000000000000000815260206004820152601860248201527f45434453413a20696e76616c6964207369676e617475726500000000000000006044820152606490fd5b612a0b8161296f565b60028103612a72576040517f08c379a000000000000000000000000000000000000000000000000000000000815260206004820152601f60248201527f45434453413a20696e76616c6964207369676e6174757265206c656e677468006044820152606490fd5b80612a7e60039261296f565b14612a8557565b6040517f08c379a000000000000000000000000000000000000000000000000000000000815260206004820152602260248201527f45434453413a20696e76616c6964207369676e6174757265202773272076616c60448201527f75650000000000000000000000000000000000000000000000000000000000006064820152608490fd5b906041815114600014612b3857612b34916020820151906060604084015193015160001a90612b4f565b9091565b5050600090600290565b506040513d6000823e3d90fd5b9291907f7fffffffffffffffffffffffffffffff5d576e7357a4501ddfe92f46681b20a08311612be05791608094939160ff602094604051948552168484015260408301526060820152600093849182805260015afa15612bd3575b815173ffffffffffffffffffffffffffffffffffffffff811615612bcd579190565b50600190565b612bdb612b42565b612bab565b50505050600090600390565b612bf5906126e5565b5490565b9061171760209282815194859201610da4565b612c15336126e5565b54156104fb57612c23612de5565b5080519060005b828110612c3657505050565b612c40818361171b565b5190815191612c4e83612e2a565b612c5783612e2a565b82612ccf576060015180519092507fffffffffffffffffffffffffffffffffffffffffffffffffffffffffffffffff01612ca557612c9f612c99600193611701565b51612ff7565b01612c2a565b60046040517f9d89020a000000000000000000000000000000000000000000000000000000008152fd5b612cd883612e2a565b600192808403612d485750606081015192835103612ca557600192612d3c612d36612d1d6020612d4395015173ffffffffffffffffffffffffffffffffffffffff1690565b73ffffffffffffffffffffffffffffffffffffffff1690565b91611701565b519061303d565b612c9f565b60019350612d5581612e2a565b60028103612d90575080612d8b612d1d60206040612d4395015193015173ffffffffffffffffffffffffffffffffffffffff1690565b61328e565b80612d9c600392612e2a565b14612da8575b50612c9f565b806040612ddf920151612dda612d1d6020606085015194015173ffffffffffffffffffffffffffffffffffffffff1690565b613380565b38612da2565b604051906080820182811067ffffffffffffffff821117612e1d575b6040526060808360008152600060208201528160408201520152565b612e25610312565b612e01565b6004111561297957565b90612e3e336126e5565b54156104fb5781519182825103612ca55760005b838110612e5f5750505050565b80612e9073ffffffffffffffffffffffffffffffffffffffff612e846001948661171b565b5116612d3c838761171b565b01612e52565b612e9f336126e5565b54156104fb57612ead612fb7565b5080519060005b828110612ec057505050565b612eca818361171b565b5190815191612ed883612e2a565b612ee183612e2a565b600192808403612f255750806040612f16612d1d6020612f1f95015173ffffffffffffffffffffffffffffffffffffffff1690565b9101519061345e565b01612eb4565b612f2e81612e2a565b60028103612f6f5750806040612f61612d1d6020612f6a95015173ffffffffffffffffffffffffffffffffffffffff1690565b91015190613503565b612f1f565b80612f7b600392612e2a565b14612f87575b50612f1f565b806040612f61612d1d6020612fb195015173ffffffffffffffffffffffffffffffffffffffff1690565b38612f81565b604051906060820182811067ffffffffffffffff821117612fea575b604052606060408360008152600060208201520152565b612ff2610312565b612fd3565b600080809260405190335af161300b61173d565b501561301357565b60046040517f750b219c000000000000000000000000000000000000000000000000000000008152fd5b9061161a91604051917fa9059cbb0000000000000000000000000000000000000000000000000000000060208401523360248401526044830152604482526080820182811067ffffffffffffffff82111761309b575b6040526130a8565b6130a3610312565b613093565b6040516131139173ffffffffffffffffffffffffffffffffffffffff166130ce8261039b565b6000806020958685527f5361666545524332303a206c6f772d6c6576656c2063616c6c206661696c656487860152868151910182855af161310d61173d565b916131c2565b80518061311f57505050565b8183918101031261028a5781015161313681610b62565b1561313e5750565b608490604051907f08c379a00000000000000000000000000000000000000000000000000000000082526004820152602a60248201527f5361666545524332303a204552433230206f7065726174696f6e20646964206e60448201527f6f742073756363656564000000000000000000000000000000000000000000006064820152fd5b9192901561323d57508151156131d6575090565b3b156131df5790565b60646040517f08c379a000000000000000000000000000000000000000000000000000000000815260206004820152601d60248201527f416464726573733a2063616c6c20746f206e6f6e2d636f6e74726163740000006044820152fd5b8251909150156132505750805190602001fd5b611978906040519182917f08c379a0000000000000000000000000000000000000000000000000000000008352602060048401526024830190610dc7565b81519060005b8281106132a15750505050565b73ffffffffffffffffffffffffffffffffffffffff8216906132c3818661171b565b5191803b1561028a5760008091606460019560405194859384927f42842e0e00000000000000000000000000000000000000000000000000000000845230600485015233602485015260448401525af1801561333f575b613326575b5001613294565b8061333361333992610387565b8061028f565b3861331f565b613347612b42565b61331a565b90815180825260208080930193019160005b82811061336c575050505090565b83518552938101939281019260010161335e565b73ffffffffffffffffffffffffffffffffffffffff1691823b1561028a57613426926000928360206133f5948260405198899788967f2eb2c2d600000000000000000000000000000000000000000000000000000000885230600489015233602489015260a0604489015260a488019061334c565b7ffffffffffffffffffffffffffffffffffffffffffffffffffffffffffffffffc938488830301606489015261334c565b85810392830160848701525201925af18015613451575b6134445750565b8061333361161a92610387565b613459612b42565b61343d565b81519160005b8381106134715750505050565b806134fd6108946134f773ffffffffffffffffffffffffffffffffffffffff61349c6001968861171b565b51166040519283917f095ea7b300000000000000000000000000000000000000000000000000000000602084015260248301602060009193929373ffffffffffffffffffffffffffffffffffffffff60408201951681520152565b856130a8565b01613464565b81519060005b8281106135165750505050565b73ffffffffffffffffffffffffffffffffffffffff908183169161353a828761171b565b5116823b1561028a576040517fa22cb46500000000000000000000000000000000000000000000000000000000815273ffffffffffffffffffffffffffffffffffffffff9190911660048201526000602482018190526001938290604490829084905af180156135c0575b6135b1575b5001613509565b6135ba90610387565b386135aa565b6135c8612b42565b6135a556fea2646970667358221220549c516fa3774d2335fafbaf1d68b27e5c23f91776b592f35a5c6311bac4eb1d64736f6c63430008100033",
  "devdoc": {
    "kind": "dev",
    "methods": {
      "onERC721Received(address,address,uint256,bytes)": {
        "details": "See {IERC721Receiver-onERC721Received}. Always returns `IERC721Receiver.onERC721Received.selector`."
      },
      "supportsInterface(bytes4)": {
        "details": "See {IERC165-supportsInterface}."
      }
    },
    "version": 1
  },
  "userdoc": {
    "kind": "user",
    "methods": {},
    "version": 1
  },
  "storageLayout": {
    "storage": [],
    "types": null
  }
}