{
  "address": "0x6380F9882123a912BbD165124CA2186075f6B802",
  "abi": [
    {
      "inputs": [],
      "name": "VERSION",
      "outputs": [
        {
          "internalType": "uint256",
          "name": "",
          "type": "uint256"
        }
      ],
      "stateMutability": "view",
      "type": "function"
    },
    {
      "inputs": [
        {
          "internalType": "bytes32",
          "name": "input",
          "type": "bytes32"
        }
      ],
      "name": "bytes32ToAddress",
      "outputs": [
        {
          "internalType": "address",
          "name": "",
          "type": "address"
        }
      ],
      "stateMutability": "pure",
      "type": "function"
    },
    {
      "inputs": [
        {
          "internalType": "bytes32",
          "name": "input",
          "type": "bytes32"
        }
      ],
      "name": "bytes32ToUint256",
      "outputs": [
        {
          "internalType": "uint256",
          "name": "",
          "type": "uint256"
        }
      ],
      "stateMutability": "pure",
      "type": "function"
    },
    {
      "inputs": [
        {
          "internalType": "bytes",
          "name": "input",
          "type": "bytes"
        }
      ],
      "name": "bytesToString",
      "outputs": [
        {
          "internalType": "string",
          "name": "",
          "type": "string"
        }
      ],
      "stateMutability": "pure",
      "type": "function"
    },
    {
      "inputs": [
        {
          "internalType": "address",
          "name": "balanceAddress",
          "type": "address"
        }
      ],
      "name": "getBalance",
      "outputs": [
        {
          "internalType": "uint256",
          "name": "balance",
          "type": "uint256"
        }
      ],
      "stateMutability": "view",
      "type": "function"
    },
    {
      "inputs": [],
      "name": "getBlockTimestamp",
      "outputs": [
        {
          "internalType": "uint256",
          "name": "timestamp",
          "type": "uint256"
        }
      ],
      "stateMutability": "view",
      "type": "function"
    },
    {
      "inputs": [
        {
          "internalType": "int256",
          "name": "value",
          "type": "int256"
        }
      ],
      "name": "int256ToUint256",
      "outputs": [
        {
          "internalType": "uint256",
          "name": "",
          "type": "uint256"
        }
      ],
      "stateMutability": "pure",
      "type": "function"
    },
    {
      "inputs": [
        {
          "internalType": "address",
          "name": "a",
          "type": "address"
        },
        {
          "internalType": "address",
          "name": "b",
          "type": "address"
        }
      ],
      "name": "isAddressEqual",
      "outputs": [
        {
          "internalType": "bool",
          "name": "",
          "type": "bool"
        }
      ],
      "stateMutability": "pure",
      "type": "function"
    },
    {
      "inputs": [
        {
          "internalType": "uint256",
          "name": "a",
          "type": "uint256"
        },
        {
          "internalType": "uint256",
          "name": "b",
          "type": "uint256"
        }
      ],
      "name": "isEqual",
      "outputs": [
        {
          "internalType": "bool",
          "name": "",
          "type": "bool"
        }
      ],
      "stateMutability": "pure",
      "type": "function"
    },
    {
      "inputs": [
        {
          "internalType": "uint256",
          "name": "a",
          "type": "uint256"
        },
        {
          "internalType": "uint256",
          "name": "b",
          "type": "uint256"
        }
      ],
      "name": "isEqualOrGreaterThan",
      "outputs": [
        {
          "internalType": "bool",
          "name": "",
          "type": "bool"
        }
      ],
      "stateMutability": "pure",
      "type": "function"
    },
    {
      "inputs": [
        {
          "internalType": "uint256",
          "name": "a",
          "type": "uint256"
        },
        {
          "internalType": "uint256",
          "name": "b",
          "type": "uint256"
        }
      ],
      "name": "isEqualOrLessThan",
      "outputs": [
        {
          "internalType": "bool",
          "name": "",
          "type": "bool"
        }
      ],
      "stateMutability": "pure",
      "type": "function"
    },
    {
      "inputs": [
        {
          "internalType": "uint256",
          "name": "a",
          "type": "uint256"
        },
        {
          "internalType": "uint256",
          "name": "b",
          "type": "uint256"
        }
      ],
      "name": "isGreaterThan",
      "outputs": [
        {
          "internalType": "bool",
          "name": "",
          "type": "bool"
        }
      ],
      "stateMutability": "pure",
      "type": "function"
    },
    {
      "inputs": [
        {
          "internalType": "uint256",
          "name": "a",
          "type": "uint256"
        },
        {
          "internalType": "uint256",
          "name": "b",
          "type": "uint256"
        }
      ],
      "name": "isLessThan",
      "outputs": [
        {
          "internalType": "bool",
          "name": "",
          "type": "bool"
        }
      ],
      "stateMutability": "pure",
      "type": "function"
    },
    {
      "inputs": [
        {
          "internalType": "bool",
          "name": "condition",
          "type": "bool"
        }
      ],
      "name": "not",
      "outputs": [
        {
          "internalType": "bool",
          "name": "",
          "type": "bool"
        }
      ],
      "stateMutability": "pure",
      "type": "function"
    },
    {
      "inputs": [
        {
          "internalType": "bool",
          "name": "condition",
          "type": "bool"
        },
        {
          "internalType": "uint256",
          "name": "a",
          "type": "uint256"
        },
        {
          "internalType": "uint256",
          "name": "b",
          "type": "uint256"
        }
      ],
      "name": "toggle",
      "outputs": [
        {
          "internalType": "uint256",
          "name": "",
          "type": "uint256"
        }
      ],
      "stateMutability": "pure",
      "type": "function"
    },
    {
      "inputs": [
        {
          "internalType": "uint256",
          "name": "value",
          "type": "uint256"
        }
      ],
      "name": "uint256ToInt256",
      "outputs": [
        {
          "internalType": "int256",
          "name": "",
          "type": "int256"
        }
      ],
      "stateMutability": "pure",
      "type": "function"
    }
  ],
  "transactionHash": "0x3f224128d49ef36be1f93ccd802fd7af83b23802ee26e11c4501a2dad518573b",
  "args": [],
  "numDeployments": 3,
  "solcInputHash": "c5bd95db501c40a4c333b1143683ebdd",
  "bytecode": "0x60808060405234610016576106ff908161001c8239f35b600080fdfe608060408181526004918236101561001657600080fd5b600092833560e01c918263294dc223146105ad5750816339614e4f146104775781633ced224a1461045c578163503971021461043f5781635ced058e146103ec5781636e7a43a3146103cf578163796b89b914610396578163b004cd0d146102cf578163b0ad3a5f1461028b578163ba5f9e8114610238578163dcf6a5921461021c578163ddcd5220146101db57508063e9970b6c146101c0578063f158392614610154578063f8b2cb4f146101115763ffa1ad74146100d557600080fd5b3461010d57817ffffffffffffffffffffffffffffffffffffffffffffffffffffffffffffffffc36011261010d576020905160028152f35b5080fd5b503461010d5760207ffffffffffffffffffffffffffffffffffffffffffffffffffffffffffffffffc36011261010d5760209061014c610695565b319051908152f35b503461010d57807ffffffffffffffffffffffffffffffffffffffffffffffffffffffffffffffffc36011261010d5761018b610695565b906024359073ffffffffffffffffffffffffffffffffffffffff908183168093036101bc5760209450519216148152f35b8480fd5b503461010d576020906101d23661064d565b90915191108152f35b919050346102185760207ffffffffffffffffffffffffffffffffffffffffffffffffffffffffffffffffc36011261021857602092505190358152f35b8280fd5b50503461010d5760209061022f3661064d565b90915191118152f35b50503461010d5760607ffffffffffffffffffffffffffffffffffffffffffffffffffffffffffffffffc36011261010d57602090610284610277610686565b60443590602435906106b8565b9051908152f35b50503461010d5760207ffffffffffffffffffffffffffffffffffffffffffffffffffffffffffffffffc36011261010d576020906102c7610686565b159051908152f35b905082346103935760207ffffffffffffffffffffffffffffffffffffffffffffffffffffffffffffffffc36011261039357508035907f7fffffffffffffffffffffffffffffffffffffffffffffffffffffffffffffff8211610336575060209151908152f35b60649060208451917f08c379a0000000000000000000000000000000000000000000000000000000008352820152601f60248201527f56616c756520646f6573206e6f742066697420696e20616e20696e74323536006044820152fd5b80fd5b50503461010d57817ffffffffffffffffffffffffffffffffffffffffffffffffffffffffffffffffc36011261010d5760209051428152f35b50503461010d576020906103e23661064d565b9091519110158152f35b905082346103935760207ffffffffffffffffffffffffffffffffffffffffffffffffffffffffffffffffc360112610393575073ffffffffffffffffffffffffffffffffffffffff602092519135168152f35b50503461010d576020906104523661064d565b9091519111158152f35b50503461010d5760209061046f3661064d565b915191148152f35b828434610393576020807ffffffffffffffffffffffffffffffffffffffffffffffffffffffffffffffffc36011261010d5767ffffffffffffffff9380358581116105a957366023820112156105a957808201358681116101bc5736602482840101116101bc57916024939183603f96948851968793018584013781018484820152038085527fffffffffffffffffffffffffffffffffffffffffffffffffffffffffffffffe095869101168401968488109088111761057d575085929391838652818452845191828186015281955b8387106105655750508394508582601f949501015201168101030190f35b86810182015189880189015295810195889550610547565b8260416024927f4e487b7100000000000000000000000000000000000000000000000000000000835252fd5b8380fd5b838591346102185760207ffffffffffffffffffffffffffffffffffffffffffffffffffffffffffffffffc3601126102185783359283126105f2576020838351908152f35b806020857f08c379a00000000000000000000000000000000000000000000000000000000060649452820152601660248201527f56616c7565206d75737420626520706f736974697665000000000000000000006044820152fd5b7ffffffffffffffffffffffffffffffffffffffffffffffffffffffffffffffffc6040910112610681576004359060243590565b600080fd5b60043590811515820361068157565b6004359073ffffffffffffffffffffffffffffffffffffffff8216820361068157565b909190156106c4575090565b90509056fea264697066735822122059a5f95d5886a40be62bd6b04dfc75eb97ab68c069a2a8917a319aa402f25da364736f6c63430008100033",
  "devdoc": {
    "details": "SignedMathHelpers contract is recommended to use only in Shortcuts passed to EnsoWallet. This contract functions allow to dynamically get the data during Shortcut transaction execution that usually would be read between transactions",
    "kind": "dev",
    "methods": {
      "bytes32ToAddress(bytes32)": {
        "details": "Returns `input` bytes32 as address."
      },
      "bytes32ToUint256(bytes32)": {
        "details": "Returns `input` bytes32 as uint256."
      },
      "bytesToString(bytes)": {
        "details": "Returns `input` bytes as string."
      },
      "getBalance(address)": {
        "details": "Returns the ether balance of given `balanceAdderess`."
      },
      "getBlockTimestamp()": {
        "details": "Returns the current block timestamp."
      },
      "int256ToUint256(int256)": {
        "details": "Returns int256 `value` as uint256."
      },
      "isAddressEqual(address,address)": {
        "details": "Returns bool for a == b"
      },
      "isEqual(uint256,uint256)": {
        "details": "Returns bool for a == b"
      },
      "isEqualOrGreaterThan(uint256,uint256)": {
        "details": "Returns bool for a >= b"
      },
      "isEqualOrLessThan(uint256,uint256)": {
        "details": "Returns bool for a <= b"
      },
      "isGreaterThan(uint256,uint256)": {
        "details": "Returns bool for a > b"
      },
      "isLessThan(uint256,uint256)": {
        "details": "Returns bool for a < b"
      },
      "not(bool)": {
        "details": "Returns the inverse bool"
      },
      "toggle(bool,uint256,uint256)": {
        "details": "Returns a value depending on a truth condition"
      },
      "uint256ToInt256(uint256)": {
        "details": "Returns uint256 `value` as int256."
      }
    },
    "version": 1
  },
  "userdoc": {
    "kind": "user",
    "methods": {},
    "version": 1
  },
  "storageLayout": {
    "storage": [],
    "types": null
  }
}