{
  "address": "0x683a1B16038041a1AAf09A4517daC3c16ad1C6A1",
  "abi": [
    {
      "inputs": [],
      "name": "VERSION",
      "outputs": [
        {
          "internalType": "uint256",
          "name": "",
          "type": "uint256"
        }
      ],
      "stateMutability": "view",
      "type": "function"
    },
    {
      "inputs": [
        {
          "internalType": "uint256",
          "name": "a",
          "type": "uint256"
        },
        {
          "internalType": "uint256",
          "name": "b",
          "type": "uint256"
        }
      ],
      "name": "add",
      "outputs": [
        {
          "internalType": "uint256",
          "name": "",
          "type": "uint256"
        }
      ],
      "stateMutability": "pure",
      "type": "function"
    },
    {
      "inputs": [
        {
          "internalType": "uint256",
          "name": "a",
          "type": "uint256"
        },
        {
          "internalType": "uint256",
          "name": "b",
          "type": "uint256"
        }
      ],
      "name": "average",
      "outputs": [
        {
          "internalType": "uint256",
          "name": "",
          "type": "uint256"
        }
      ],
      "stateMutability": "pure",
      "type": "function"
    },
    {
      "inputs": [
        {
          "internalType": "uint256",
          "name": "a",
          "type": "uint256"
        },
        {
          "internalType": "uint256",
          "name": "b",
          "type": "uint256"
        }
      ],
      "name": "div",
      "outputs": [
        {
          "internalType": "uint256",
          "name": "",
          "type": "uint256"
        }
      ],
      "stateMutability": "pure",
      "type": "function"
    },
    {
      "inputs": [
        {
          "internalType": "uint256",
          "name": "a",
          "type": "uint256"
        },
        {
          "internalType": "uint256",
          "name": "b",
          "type": "uint256"
        }
      ],
      "name": "max",
      "outputs": [
        {
          "internalType": "uint256",
          "name": "",
          "type": "uint256"
        }
      ],
      "stateMutability": "pure",
      "type": "function"
    },
    {
      "inputs": [
        {
          "internalType": "uint256",
          "name": "a",
          "type": "uint256"
        },
        {
          "internalType": "uint256",
          "name": "b",
          "type": "uint256"
        }
      ],
      "name": "min",
      "outputs": [
        {
          "internalType": "uint256",
          "name": "",
          "type": "uint256"
        }
      ],
      "stateMutability": "pure",
      "type": "function"
    },
    {
      "inputs": [
        {
          "internalType": "uint256",
          "name": "a",
          "type": "uint256"
        },
        {
          "internalType": "uint256",
          "name": "b",
          "type": "uint256"
        }
      ],
      "name": "mod",
      "outputs": [
        {
          "internalType": "uint256",
          "name": "",
          "type": "uint256"
        }
      ],
      "stateMutability": "pure",
      "type": "function"
    },
    {
      "inputs": [
        {
          "internalType": "uint256",
          "name": "a",
          "type": "uint256"
        },
        {
          "internalType": "uint256",
          "name": "b",
          "type": "uint256"
        }
      ],
      "name": "mul",
      "outputs": [
        {
          "internalType": "uint256",
          "name": "",
          "type": "uint256"
        }
      ],
      "stateMutability": "pure",
      "type": "function"
    },
    {
      "inputs": [
        {
          "internalType": "uint256",
          "name": "a",
          "type": "uint256"
        },
        {
          "internalType": "uint256",
          "name": "b",
          "type": "uint256"
        }
      ],
      "name": "sub",
      "outputs": [
        {
          "internalType": "uint256",
          "name": "",
          "type": "uint256"
        }
      ],
      "stateMutability": "pure",
      "type": "function"
    }
  ],
  "transactionHash": "0xbe2c3c4d15dfcd3994d472a7ab0f90e689dade491f3358373f5828a87ea0f144",
  "args": [],
  "numDeployments": 1,
  "solcInputHash": "409b66573237965fd0ec3859c137dc04",
  "bytecode": "0x608060405234801561001057600080fd5b50610321806100206000396000f3fe608060405234801561001057600080fd5b50600436106100a35760003560e01c8063a391c15b11610076578063c8a4ac9c1161005b578063c8a4ac9c1461012c578063f43f523a1461013f578063ffa1ad741461015257600080fd5b8063a391c15b14610106578063b67d77c51461011957600080fd5b80632b7423ab146100a85780636d5433e6146100cd578063771602f7146100e05780637ae2b5c7146100f3575b600080fd5b6100bb6100b63660046101e0565b61015a565b60405190815260200160405180910390f35b6100bb6100db3660046101e0565b61017e565b6100bb6100ee3660046101e0565b610195565b6100bb6101013660046101e0565b6101a1565b6100bb6101143660046101e0565b6101b0565b6100bb6101273660046101e0565b6101bc565b6100bb61013a3660046101e0565b6101c8565b6100bb61014d3660046101e0565b6101d4565b6100bb600181565b60006101696002848418610260565b61017590848416610274565b90505b92915050565b60008183101561018e5781610175565b5090919050565b60006101758284610274565b600081831061018e5781610175565b60006101758284610260565b60006101758284610287565b6000610175828461029a565b600061017582846102d7565b600080604083850312156101f357600080fd5b50508035926020909101359150565b7f4e487b7100000000000000000000000000000000000000000000000000000000600052601260045260246000fd5b7f4e487b7100000000000000000000000000000000000000000000000000000000600052601160045260246000fd5b60008261026f5761026f610202565b500490565b8082018082111561017857610178610231565b8181038181111561017857610178610231565b6000817fffffffffffffffffffffffffffffffffffffffffffffffffffffffffffffffff04831182151516156102d2576102d2610231565b500290565b6000826102e6576102e6610202565b50069056fea26469706673582212200bd4477ea76cda016e222611d842d89780886e1851c6726d208565878d53de9964736f6c63430008100033",
  "devdoc": {
    "details": "MathHelpers contract is recommended to use only in Shortcuts passed to EnsoWallet Based on OpenZepplin Contracts v4.7.3: - utils/math/Math.sol (https://github.com/OpenZeppelin/openzeppelin-contracts/blob/master/contracts/utils/math/Math.sol) - utils/math/SafeMath.sol (https://github.com/OpenZeppelin/openzeppelin-contracts/blob/master/contracts/utils/math/SafeMath.sol)",
    "kind": "dev",
    "methods": {
      "add(uint256,uint256)": {
        "details": "Returns the addition of two unsigned integers, reverting on overflow. Counterpart to Solidity's `+` operator. Requirements: - Addition cannot overflow."
      },
      "average(uint256,uint256)": {
        "details": "Returns the average of two numbers. The result is rounded towards zero."
      },
      "div(uint256,uint256)": {
        "details": "Returns the integer division of two unsigned integers, reverting on division by zero. The result is rounded towards zero. Counterpart to Solidity's `/` operator. Requirements: - The divisor cannot be zero."
      },
      "max(uint256,uint256)": {
        "details": "Returns the largest of two numbers."
      },
      "min(uint256,uint256)": {
        "details": "Returns the smallest of two numbers."
      },
      "mod(uint256,uint256)": {
        "details": "Returns the remainder of dividing two unsigned integers. (unsigned integer modulo), reverting when dividing by zero. Counterpart to Solidity's `%` operator. This function uses a `revert` opcode (which leaves remaining gas untouched) while Solidity uses an invalid opcode to revert (consuming all remaining gas). Requirements: - The divisor cannot be zero."
      },
      "mul(uint256,uint256)": {
        "details": "Returns the multiplication of two unsigned integers, reverting on overflow. Counterpart to Solidity's `*` operator. Requirements: - Multiplication cannot overflow."
      },
      "sub(uint256,uint256)": {
        "details": "Returns the subtraction of two unsigned integers, reverting on overflow (when the result is negative). Counterpart to Solidity's `-` operator. Requirements: - Subtraction cannot overflow."
      }
    },
    "version": 1
  },
  "userdoc": {
    "kind": "user",
    "methods": {},
    "version": 1
  },
  "storageLayout": {
    "storage": [],
    "types": null
  }
}