{
  "address": "0xb8c70beFAd54641951FC43604d5e0CEFeE5F0565",
  "abi": [
    {
      "inputs": [],
      "name": "InvalidArrayLength",
      "type": "error"
    },
    {
      "inputs": [],
      "name": "NotPermitted",
      "type": "error"
    },
    {
      "inputs": [],
      "name": "WithdrawFailed",
      "type": "error"
    },
    {
      "inputs": [],
      "name": "EXECUTOR_ROLE",
      "outputs": [
        {
          "internalType": "bytes32",
          "name": "",
          "type": "bytes32"
        }
      ],
      "stateMutability": "view",
      "type": "function"
    },
    {
      "inputs": [],
      "name": "OWNER_ROLE",
      "outputs": [
        {
          "internalType": "bytes32",
          "name": "",
          "type": "bytes32"
        }
      ],
      "stateMutability": "view",
      "type": "function"
    },
    {
      "inputs": [
        {
          "internalType": "bytes32",
          "name": "role",
          "type": "bytes32"
        },
        {
          "internalType": "address",
          "name": "account",
          "type": "address"
        }
      ],
      "name": "getPermission",
      "outputs": [
        {
          "internalType": "bool",
          "name": "",
          "type": "bool"
        }
      ],
      "stateMutability": "view",
      "type": "function"
    },
    {
      "inputs": [
        {
          "internalType": "address",
          "name": "",
          "type": "address"
        },
        {
          "internalType": "address",
          "name": "",
          "type": "address"
        },
        {
          "internalType": "uint256[]",
          "name": "",
          "type": "uint256[]"
        },
        {
          "internalType": "uint256[]",
          "name": "",
          "type": "uint256[]"
        },
        {
          "internalType": "bytes",
          "name": "",
          "type": "bytes"
        }
      ],
      "name": "onERC1155BatchReceived",
      "outputs": [
        {
          "internalType": "bytes4",
          "name": "",
          "type": "bytes4"
        }
      ],
      "stateMutability": "nonpayable",
      "type": "function"
    },
    {
      "inputs": [
        {
          "internalType": "address",
          "name": "",
          "type": "address"
        },
        {
          "internalType": "address",
          "name": "",
          "type": "address"
        },
        {
          "internalType": "uint256",
          "name": "",
          "type": "uint256"
        },
        {
          "internalType": "uint256",
          "name": "",
          "type": "uint256"
        },
        {
          "internalType": "bytes",
          "name": "",
          "type": "bytes"
        }
      ],
      "name": "onERC1155Received",
      "outputs": [
        {
          "internalType": "bytes4",
          "name": "",
          "type": "bytes4"
        }
      ],
      "stateMutability": "nonpayable",
      "type": "function"
    },
    {
      "inputs": [
        {
          "internalType": "address",
          "name": "",
          "type": "address"
        },
        {
          "internalType": "address",
          "name": "",
          "type": "address"
        },
        {
          "internalType": "uint256",
          "name": "",
          "type": "uint256"
        },
        {
          "internalType": "bytes",
          "name": "",
          "type": "bytes"
        }
      ],
      "name": "onERC721Received",
      "outputs": [
        {
          "internalType": "bytes4",
          "name": "",
          "type": "bytes4"
        }
      ],
      "stateMutability": "nonpayable",
      "type": "function"
    },
    {
      "inputs": [
        {
          "components": [
            {
              "internalType": "enum MinimalWallet.Protocol",
              "name": "protocol",
              "type": "uint8"
            },
            {
              "internalType": "address",
              "name": "token",
              "type": "address"
            },
            {
              "internalType": "address[]",
              "name": "operators",
              "type": "address[]"
            }
          ],
          "internalType": "struct MinimalWallet.ApprovalNote[]",
          "name": "notes",
          "type": "tuple[]"
        }
      ],
      "name": "revokeApprovals",
      "outputs": [],
      "stateMutability": "nonpayable",
      "type": "function"
    },
    {
      "inputs": [
        {
          "internalType": "contract IERC1155",
          "name": "erc1155",
          "type": "address"
        },
        {
          "internalType": "address[]",
          "name": "operators",
          "type": "address[]"
        }
      ],
      "name": "revokeERC1155Approvals",
      "outputs": [],
      "stateMutability": "nonpayable",
      "type": "function"
    },
    {
      "inputs": [
        {
          "internalType": "contract IERC20",
          "name": "erc20",
          "type": "address"
        },
        {
          "internalType": "address[]",
          "name": "operators",
          "type": "address[]"
        }
      ],
      "name": "revokeERC20Approvals",
      "outputs": [],
      "stateMutability": "nonpayable",
      "type": "function"
    },
    {
      "inputs": [
        {
          "internalType": "contract IERC721",
          "name": "erc721",
          "type": "address"
        },
        {
          "internalType": "address[]",
          "name": "operators",
          "type": "address[]"
        }
      ],
      "name": "revokeERC721Approvals",
      "outputs": [],
      "stateMutability": "nonpayable",
      "type": "function"
    },
    {
      "inputs": [
        {
          "internalType": "bytes4",
          "name": "interfaceId",
          "type": "bytes4"
        }
      ],
      "name": "supportsInterface",
      "outputs": [
        {
          "internalType": "bool",
          "name": "",
          "type": "bool"
        }
      ],
      "stateMutability": "view",
      "type": "function"
    },
    {
      "inputs": [
        {
          "components": [
            {
              "internalType": "enum MinimalWallet.Protocol",
              "name": "protocol",
              "type": "uint8"
            },
            {
              "internalType": "address",
              "name": "token",
              "type": "address"
            },
            {
              "internalType": "uint256[]",
              "name": "ids",
              "type": "uint256[]"
            },
            {
              "internalType": "uint256[]",
              "name": "amounts",
              "type": "uint256[]"
            }
          ],
          "internalType": "struct MinimalWallet.TransferNote[]",
          "name": "notes",
          "type": "tuple[]"
        }
      ],
      "name": "withdraw",
      "outputs": [],
      "stateMutability": "nonpayable",
      "type": "function"
    },
    {
      "inputs": [
        {
          "internalType": "contract IERC1155",
          "name": "erc1155",
          "type": "address"
        },
        {
          "internalType": "uint256[]",
          "name": "ids",
          "type": "uint256[]"
        },
        {
          "internalType": "uint256[]",
          "name": "amounts",
          "type": "uint256[]"
        }
      ],
      "name": "withdrawERC1155s",
      "outputs": [],
      "stateMutability": "nonpayable",
      "type": "function"
    },
    {
      "inputs": [
        {
          "internalType": "contract IERC20[]",
          "name": "erc20s",
          "type": "address[]"
        },
        {
          "internalType": "uint256[]",
          "name": "amounts",
          "type": "uint256[]"
        }
      ],
      "name": "withdrawERC20s",
      "outputs": [],
      "stateMutability": "nonpayable",
      "type": "function"
    },
    {
      "inputs": [
        {
          "internalType": "contract IERC721",
          "name": "erc721",
          "type": "address"
        },
        {
          "internalType": "uint256[]",
          "name": "ids",
          "type": "uint256[]"
        }
      ],
      "name": "withdrawERC721s",
      "outputs": [],
      "stateMutability": "nonpayable",
      "type": "function"
    },
    {
      "inputs": [
        {
          "internalType": "uint256",
          "name": "amount",
          "type": "uint256"
        }
      ],
      "name": "withdrawETH",
      "outputs": [],
      "stateMutability": "nonpayable",
      "type": "function"
    },
    {
      "stateMutability": "payable",
      "type": "receive"
    }
  ],
  "transactionHash": "0x31e69034816a9423f7df8fc1420d421abf92066c3f5cc61a2ad03300978d9a0f",
  "args": [],
  "numDeployments": 1,
  "solcInputHash": "57e8446a1a1beec4cd2f90e168165735",
  "bytecode": "0x60808060405234610016576118a8908161001c8239f35b600080fdfe6080604081815260049182361015610022575b505050361561002057600080fd5b005b600090813560e01c90816301ffc9a714610e825750806307bd026514610e295780630fe786e1146101e1578063150b7a0214610d9d57806331b455a514610d2b57806356255c5314610cb957806360d6c7cf14610c405780638a2685a914610acd578063a4508b1f14610a18578063bc197c811461095b578063dedd6524146105c8578063e1084a13146102db578063e58378bb1461027e578063e5cb3703146101e1578063f14210a6146101695763f23a6e610361001257346101665760a07ffffffffffffffffffffffffffffffffffffffffffffffffffffffffffffffffc36011261016657610112610f3f565b5061011b61103b565b506084359067ffffffffffffffff8211610166575060209261013f9136910161111f565b50517ff23a6e61000000000000000000000000000000000000000000000000000000008152f35b80fd5b5091346101dd5760207ffffffffffffffffffffffffffffffffffffffffffffffffffffffffffffffffc3601126101dd576101a3336111c4565b54156101b6576101b3903561129d565b51f35b90517f39218f3b000000000000000000000000000000000000000000000000000000008152fd5b8280fd5b5091346101dd57817ffffffffffffffffffffffffffffffffffffffffffffffffffffffffffffffffc3601126101dd57610219610f3f565b60243567ffffffffffffffff811161027a57610238903690840161107f565b91610242336111c4565b54156102535750906101b3916117cb565b83517f39218f3b000000000000000000000000000000000000000000000000000000008152fd5b8480fd5b5090346102d757817ffffffffffffffffffffffffffffffffffffffffffffffffffffffffffffffffc3601126102d757602090517f3fbe42dcb277543d3741131fe04ce9fb205e3b7154603a23a25efd63ed2c9e1c8152f35b5080fd5b5091346101dd576020807ffffffffffffffffffffffffffffffffffffffffffffffffffffffffffffffffc3601126105c45781359067ffffffffffffffff8083116105c057366023840112156105c057828401359061033982611023565b9361034687519586610fe2565b8285528385016024809460051b830101913683116105bc57848101915b8383106104ee5750505050610377336111c4565b54156104c657855190606082019081118282101761049b576060918791825288815288858201520152825192865b8481106103b157878751f35b6103bb8183611259565b51908151918783101561047057600192808403610400575085810151908901516103fa9173ffffffffffffffffffffffffffffffffffffffff16611740565b016103a5565b60028103610435575085810151908901516104309173ffffffffffffffffffffffffffffffffffffffff166117cb565b6103fa565b600314610443575b506103fa565b858101519089015161046a9173ffffffffffffffffffffffffffffffffffffffff166117cb565b3861043d565b848a60218a7f4e487b7100000000000000000000000000000000000000000000000000000000835252fd5b82886041887f4e487b7100000000000000000000000000000000000000000000000000000000835252fd5b8486517f39218f3b000000000000000000000000000000000000000000000000000000008152fd5b82358581116105b8578201606091827fffffffffffffffffffffffffffffffffffffffffffffffffffffffffffffffdc83360301126105b4578b5192830183811088821117610589578c52878201358b8110156105855783526105536044830161105e565b89840152606482013592878411610585576105768a94938a86953692010161107f565b8d820152815201920191610363565b8d80fd5b888e60418e7f4e487b7100000000000000000000000000000000000000000000000000000000835252fd5b8c80fd5b8b80fd5b8980fd5b8580fd5b8380fd5b5091346101dd57602090817ffffffffffffffffffffffffffffffffffffffffffffffffffffffffffffffffc3601126105c45780359167ffffffffffffffff908184116105c057366023850112156105c057838301359061062882611023565b9461063587519687610fe2565b8286528186016024809460051b830101913683116105bc57848101915b8383106108795750505050610666336111c4565b54156108515785519260808401908111848210176108265786528683528681840152606080848189819701520152845194875b8681106106a557888851f35b6106af8183611259565b518051878110156107fb57869190806107115750015160018151036106e957906106e36106dd60019361121d565b5161129d565b01610699565b8689517f9d89020a000000000000000000000000000000000000000000000000000000008152fd5b600192508281036107875750868101519182510361075f576001929161075373ffffffffffffffffffffffffffffffffffffffff8761075a940151169161121d565b51906112e3565b6106e3565b878a517f9d89020a000000000000000000000000000000000000000000000000000000008152fd5b6001939250600281036107bc57508073ffffffffffffffffffffffffffffffffffffffff868c61075a94015192015116611580565b6003146107ca575b506106e3565b808a6107f592015173ffffffffffffffffffffffffffffffffffffffff878a84015193015116611668565b386107c4565b858b60218a7f4e487b7100000000000000000000000000000000000000000000000000000000835252fd5b82886041877f4e487b7100000000000000000000000000000000000000000000000000000000835252fd5b8386517f39218f3b000000000000000000000000000000000000000000000000000000008152fd5b82358781116105b8578201608091827fffffffffffffffffffffffffffffffffffffffffffffffffffffffffffffffdc83360301126105b4578b519283018381108a821117610930578c52878201358a8110156105855783526108de6044830161105e565b878401526064820135898111610585576108fd90893691850101611166565b8c840152608482013592898411610585576109208894938a869536920101611166565b6060820152815201920191610652565b888e60418d7f4e487b7100000000000000000000000000000000000000000000000000000000835252fd5b50346101665760a07ffffffffffffffffffffffffffffffffffffffffffffffffffffffffffffffffc36011261016657610993610f3f565b5061099c61103b565b5067ffffffffffffffff906044358281116102d7576109be9036908601611166565b506064358281116102d7576109d69036908601611166565b5060843591821161016657506020926109f19136910161111f565b50517fbc197c81000000000000000000000000000000000000000000000000000000008152f35b5091346101dd5760607ffffffffffffffffffffffffffffffffffffffffffffffffffffffffffffffffc3601126101dd57610a51610f3f565b67ffffffffffffffff906024358281116105c057610a729036908501611166565b916044359081116105c057610a8a9036908501611166565b92610a94336111c4565b5415610aa65750906101b39291611668565b84517f39218f3b000000000000000000000000000000000000000000000000000000008152fd5b5091346101dd57817ffffffffffffffffffffffffffffffffffffffffffffffffffffffffffffffffc3601126101dd57803567ffffffffffffffff80821161027a573660238301121561027a5781830135610b2781611023565b92610b3486519485610fe2565b81845260209160248386019160051b83010191368311610c3c57602401905b828210610c25575050505060243590811161027a57610b759036908401611166565b90610b7f336111c4565b5415610bfd5780519283835103610bd65750845b838110610b9f57858551f35b80610bd073ffffffffffffffffffffffffffffffffffffffff610bc460019486611259565b51166107538387611259565b01610b93565b84517f9d89020a000000000000000000000000000000000000000000000000000000008152fd5b8284517f39218f3b000000000000000000000000000000000000000000000000000000008152fd5b838091610c318461105e565b815201910190610b53565b8880fd5b5091346101dd57817ffffffffffffffffffffffffffffffffffffffffffffffffffffffffffffffffc3601126101dd5760209250610c7c61103b565b73ffffffffffffffffffffffffffffffffffffffff835191858301933584521683820152828152610cac81610faa565b5190205490519015158152f35b5091346101dd57817ffffffffffffffffffffffffffffffffffffffffffffffffffffffffffffffffc3601126101dd57610cf1610f3f565b60243567ffffffffffffffff811161027a57610d109036908401611166565b91610d1a336111c4565b54156102535750906101b391611580565b5091346101dd57817ffffffffffffffffffffffffffffffffffffffffffffffffffffffffffffffffc3601126101dd57610d63610f3f565b60243567ffffffffffffffff811161027a57610d82903690840161107f565b91610d8c336111c4565b54156102535750906101b391611740565b50346101665760807ffffffffffffffffffffffffffffffffffffffffffffffffffffffffffffffffc36011261016657610dd5610f3f565b50610dde61103b565b506064359067ffffffffffffffff82116101665750602092610e029136910161111f565b50517f150b7a02000000000000000000000000000000000000000000000000000000008152f35b5090346102d757817ffffffffffffffffffffffffffffffffffffffffffffffffffffffffffffffffc3601126102d757602090517fd931ed5eea9427443091b211e417e6f83bd1d1a5235f4e7adbb05b55612080308152f35b905083346101dd5760207ffffffffffffffffffffffffffffffffffffffffffffffffffffffffffffffffc3601126101dd57357fffffffff0000000000000000000000000000000000000000000000000000000081168091036101dd57602092507f4e2312e0000000000000000000000000000000000000000000000000000000008114908115610f15575b5015158152f35b7f01ffc9a70000000000000000000000000000000000000000000000000000000091501483610f0e565b6004359073ffffffffffffffffffffffffffffffffffffffff82168203610f6257565b600080fd5b67ffffffffffffffff8111610f7b57604052565b7f4e487b7100000000000000000000000000000000000000000000000000000000600052604160045260246000fd5b6060810190811067ffffffffffffffff821117610f7b57604052565b6080810190811067ffffffffffffffff821117610f7b57604052565b90601f7fffffffffffffffffffffffffffffffffffffffffffffffffffffffffffffffe0910116810190811067ffffffffffffffff821117610f7b57604052565b67ffffffffffffffff8111610f7b5760051b60200190565b6024359073ffffffffffffffffffffffffffffffffffffffff82168203610f6257565b359073ffffffffffffffffffffffffffffffffffffffff82168203610f6257565b81601f82011215610f625780359161109683611023565b926110a46040519485610fe2565b808452602092838086019260051b820101928311610f62578301905b8282106110ce575050505090565b8380916110da8461105e565b8152019101906110c0565b67ffffffffffffffff8111610f7b57601f017fffffffffffffffffffffffffffffffffffffffffffffffffffffffffffffffe01660200190565b81601f82011215610f6257803590611136826110e5565b926111446040519485610fe2565b82845260208383010111610f6257816000926020809301838601378301015290565b81601f82011215610f625780359161117d83611023565b9261118b6040519485610fe2565b808452602092838086019260051b820101928311610f62578301905b8282106111b5575050505090565b813581529083019083016111a7565b60405173ffffffffffffffffffffffffffffffffffffffff60208201927f3fbe42dcb277543d3741131fe04ce9fb205e3b7154603a23a25efd63ed2c9e1c84521660408201526040815261121781610faa565b51902090565b80511561122a5760200190565b7f4e487b7100000000000000000000000000000000000000000000000000000000600052603260045260246000fd5b805182101561122a5760209160051b010190565b3d15611298573d9061127e826110e5565b9161128c6040519384610fe2565b82523d6000602084013e565b606090565b600080809260405190335af16112b161126d565b50156112b957565b60046040517f750b219c000000000000000000000000000000000000000000000000000000008152fd5b9061132f91604051917fa9059cbb00000000000000000000000000000000000000000000000000000000602084015233602484015260448301526044825261132a82610fc6565b611331565b565b73ffffffffffffffffffffffffffffffffffffffff16906040516040810181811067ffffffffffffffff821117610f7b576040526020928382527f5361666545524332303a206c6f772d6c6576656c2063616c6c206661696c656484830152803b1561147257906113ba9160008481959282888195519301915af16113b461126d565b906114d0565b8051806113c8575b50505050565b818491810103126102d7578201519081159182150361016657506113ee578080806113c2565b608490604051907f08c379a00000000000000000000000000000000000000000000000000000000082526004820152602a60248201527f5361666545524332303a204552433230206f7065726174696f6e20646964206e60448201527f6f742073756363656564000000000000000000000000000000000000000000006064820152fd5b606484604051907f08c379a00000000000000000000000000000000000000000000000000000000082526004820152601d60248201527f416464726573733a2063616c6c20746f206e6f6e2d636f6e74726163740000006044820152fd5b909190156114dc575090565b8151156114ec5750805190602001fd5b604051907f08c379a000000000000000000000000000000000000000000000000000000000825281602080600483015282519283602484015260005b848110611569575050507fffffffffffffffffffffffffffffffffffffffffffffffffffffffffffffffe0601f836000604480968601015201168101030190fd5b818101830151868201604401528593508201611528565b81519060005b8281106115935750505050565b73ffffffffffffffffffffffffffffffffffffffff82166115b48286611259565b51813b15610f6257600080926064604093845195869384927f42842e0e00000000000000000000000000000000000000000000000000000000845230600485015233602485015260448401525af190811561162a5750906001929161161b575b5001611586565b61162490610f67565b38611614565b513d6000823e3d90fd5b90815180825260208080930193019160005b828110611654575050505090565b835185529381019392810192600101611646565b73ffffffffffffffffffffffffffffffffffffffff1691823b15610f625761170e926000928360206116dd948260405198899788967f2eb2c2d600000000000000000000000000000000000000000000000000000000885230600489015233602489015260a0604489015260a4880190611634565b7ffffffffffffffffffffffffffffffffffffffffffffffffffffffffffffffffc9384888303016064890152611634565b85810392830160848701525201925af180156117345761172b5750565b61132f90610f67565b6040513d6000823e3d90fd5b90805191600091825b848110611757575050505050565b806117c573ffffffffffffffffffffffffffffffffffffffff61177c60019486611259565b5116604051907f095ea7b300000000000000000000000000000000000000000000000000000000602083015260248201526044878183015281526117bf81610fc6565b85611331565b01611749565b81519060005b8281106117de5750505050565b73ffffffffffffffffffffffffffffffffffffffff808316906118018387611259565b5116813b15610f6257600080926044604093845195869384927fa22cb46500000000000000000000000000000000000000000000000000000000845260048401528160248401525af190811561162a57509060019291611863575b50016117d1565b61186c90610f67565b3861185c56fea2646970667358221220619d640fd27ffa14b999fec6eeee0f6426864aa81927e88eba4612e02884d1a464736f6c63430008100033",
  "devdoc": {
    "kind": "dev",
    "methods": {
      "onERC721Received(address,address,uint256,bytes)": {
        "details": "See {IERC721Receiver-onERC721Received}. Always returns `IERC721Receiver.onERC721Received.selector`."
      },
      "supportsInterface(bytes4)": {
        "details": "See {IERC165-supportsInterface}."
      }
    },
    "version": 1
  },
  "userdoc": {
    "kind": "user",
    "methods": {},
    "version": 1
  },
  "storageLayout": {
    "storage": [],
    "types": null
  }
}