{
  "address": "0xb6Bc9B50b4AC1397AB03d8a24d8fa529a5070ff0",
  "abi": [
    {
      "inputs": [],
      "stateMutability": "nonpayable",
      "type": "constructor"
    },
    {
      "inputs": [],
      "name": "AlreadyInit",
      "type": "error"
    },
    {
      "inputs": [
        {
          "internalType": "uint256",
          "name": "command_index",
          "type": "uint256"
        },
        {
          "internalType": "address",
          "name": "target",
          "type": "address"
        },
        {
          "internalType": "string",
          "name": "message",
          "type": "string"
        }
      ],
      "name": "ExecutionFailed",
      "type": "error"
    },
    {
      "inputs": [],
      "name": "InvalidAccount",
      "type": "error"
    },
    {
      "inputs": [],
      "name": "InvalidArrayLength",
      "type": "error"
    },
    {
      "inputs": [],
      "name": "NoDelegateCalls",
      "type": "error"
    },
    {
      "inputs": [],
      "name": "NotPermitted",
      "type": "error"
    },
    {
      "inputs": [],
      "name": "UnsafeSetting",
      "type": "error"
    },
    {
      "inputs": [],
      "name": "WithdrawFailed",
      "type": "error"
    },
    {
      "anonymous": false,
      "inputs": [
        {
          "indexed": true,
          "internalType": "address",
          "name": "module",
          "type": "address"
        }
      ],
      "name": "ExecutionFromModuleFailure",
      "type": "event"
    },
    {
      "anonymous": false,
      "inputs": [
        {
          "indexed": true,
          "internalType": "address",
          "name": "module",
          "type": "address"
        }
      ],
      "name": "ExecutionFromModuleSuccess",
      "type": "event"
    },
    {
      "anonymous": false,
      "inputs": [
        {
          "indexed": false,
          "internalType": "bytes32",
          "name": "role",
          "type": "bytes32"
        },
        {
          "indexed": false,
          "internalType": "address",
          "name": "account",
          "type": "address"
        },
        {
          "indexed": false,
          "internalType": "bool",
          "name": "permission",
          "type": "bool"
        }
      ],
      "name": "PermissionSet",
      "type": "event"
    },
    {
      "inputs": [],
      "name": "EXECUTOR_ROLE",
      "outputs": [
        {
          "internalType": "bytes32",
          "name": "",
          "type": "bytes32"
        }
      ],
      "stateMutability": "view",
      "type": "function"
    },
    {
      "inputs": [],
      "name": "MODULE_ROLE",
      "outputs": [
        {
          "internalType": "bytes32",
          "name": "",
          "type": "bytes32"
        }
      ],
      "stateMutability": "view",
      "type": "function"
    },
    {
      "inputs": [],
      "name": "OWNER_ROLE",
      "outputs": [
        {
          "internalType": "bytes32",
          "name": "",
          "type": "bytes32"
        }
      ],
      "stateMutability": "view",
      "type": "function"
    },
    {
      "inputs": [
        {
          "internalType": "address",
          "name": "to",
          "type": "address"
        },
        {
          "internalType": "uint256",
          "name": "value",
          "type": "uint256"
        },
        {
          "internalType": "bytes",
          "name": "data",
          "type": "bytes"
        },
        {
          "internalType": "enum IModuleManager.Operation",
          "name": "operation",
          "type": "uint8"
        }
      ],
      "name": "execTransactionFromModule",
      "outputs": [
        {
          "internalType": "bool",
          "name": "success",
          "type": "bool"
        }
      ],
      "stateMutability": "nonpayable",
      "type": "function"
    },
    {
      "inputs": [
        {
          "internalType": "address",
          "name": "to",
          "type": "address"
        },
        {
          "internalType": "uint256",
          "name": "value",
          "type": "uint256"
        },
        {
          "internalType": "bytes",
          "name": "data",
          "type": "bytes"
        },
        {
          "internalType": "enum IModuleManager.Operation",
          "name": "operation",
          "type": "uint8"
        }
      ],
      "name": "execTransactionFromModuleReturnData",
      "outputs": [
        {
          "internalType": "bool",
          "name": "success",
          "type": "bool"
        },
        {
          "internalType": "bytes",
          "name": "returnData",
          "type": "bytes"
        }
      ],
      "stateMutability": "nonpayable",
      "type": "function"
    },
    {
      "inputs": [
        {
          "internalType": "address",
          "name": "target",
          "type": "address"
        },
        {
          "internalType": "uint256",
          "name": "value",
          "type": "uint256"
        },
        {
          "internalType": "bytes",
          "name": "data",
          "type": "bytes"
        }
      ],
      "name": "execute",
      "outputs": [
        {
          "internalType": "bool",
          "name": "success",
          "type": "bool"
        }
      ],
      "stateMutability": "payable",
      "type": "function"
    },
    {
      "inputs": [
        {
          "internalType": "bytes32",
          "name": "shortcutId",
          "type": "bytes32"
        },
        {
          "internalType": "bytes32[]",
          "name": "commands",
          "type": "bytes32[]"
        },
        {
          "internalType": "bytes[]",
          "name": "state",
          "type": "bytes[]"
        }
      ],
      "name": "executeShortcut",
      "outputs": [
        {
          "internalType": "bytes[]",
          "name": "returnData",
          "type": "bytes[]"
        }
      ],
      "stateMutability": "payable",
      "type": "function"
    },
    {
      "inputs": [
        {
          "internalType": "bytes32",
          "name": "role",
          "type": "bytes32"
        },
        {
          "internalType": "address",
          "name": "account",
          "type": "address"
        }
      ],
      "name": "getPermission",
      "outputs": [
        {
          "internalType": "bool",
          "name": "",
          "type": "bool"
        }
      ],
      "stateMutability": "view",
      "type": "function"
    },
    {
      "inputs": [
        {
          "internalType": "address",
          "name": "owner",
          "type": "address"
        },
        {
          "internalType": "bytes32",
          "name": "salt",
          "type": "bytes32"
        },
        {
          "internalType": "bytes32",
          "name": "shortcutId",
          "type": "bytes32"
        },
        {
          "internalType": "bytes32[]",
          "name": "commands",
          "type": "bytes32[]"
        },
        {
          "internalType": "bytes[]",
          "name": "state",
          "type": "bytes[]"
        }
      ],
      "name": "initialize",
      "outputs": [],
      "stateMutability": "payable",
      "type": "function"
    },
    {
      "inputs": [
        {
          "internalType": "bytes32",
          "name": "hash",
          "type": "bytes32"
        },
        {
          "internalType": "bytes",
          "name": "signature",
          "type": "bytes"
        }
      ],
      "name": "isValidSignature",
      "outputs": [
        {
          "internalType": "bytes4",
          "name": "magicValue",
          "type": "bytes4"
        }
      ],
      "stateMutability": "view",
      "type": "function"
    },
    {
      "inputs": [
        {
          "internalType": "bytes",
          "name": "message",
          "type": "bytes"
        },
        {
          "internalType": "bytes",
          "name": "signature",
          "type": "bytes"
        }
      ],
      "name": "isValidSignature",
      "outputs": [
        {
          "internalType": "bytes4",
          "name": "magicValue",
          "type": "bytes4"
        }
      ],
      "stateMutability": "view",
      "type": "function"
    },
    {
      "inputs": [
        {
          "internalType": "address",
          "name": "",
          "type": "address"
        },
        {
          "internalType": "address",
          "name": "",
          "type": "address"
        },
        {
          "internalType": "uint256[]",
          "name": "",
          "type": "uint256[]"
        },
        {
          "internalType": "uint256[]",
          "name": "",
          "type": "uint256[]"
        },
        {
          "internalType": "bytes",
          "name": "",
          "type": "bytes"
        }
      ],
      "name": "onERC1155BatchReceived",
      "outputs": [
        {
          "internalType": "bytes4",
          "name": "",
          "type": "bytes4"
        }
      ],
      "stateMutability": "nonpayable",
      "type": "function"
    },
    {
      "inputs": [
        {
          "internalType": "address",
          "name": "",
          "type": "address"
        },
        {
          "internalType": "address",
          "name": "",
          "type": "address"
        },
        {
          "internalType": "uint256",
          "name": "",
          "type": "uint256"
        },
        {
          "internalType": "uint256",
          "name": "",
          "type": "uint256"
        },
        {
          "internalType": "bytes",
          "name": "",
          "type": "bytes"
        }
      ],
      "name": "onERC1155Received",
      "outputs": [
        {
          "internalType": "bytes4",
          "name": "",
          "type": "bytes4"
        }
      ],
      "stateMutability": "nonpayable",
      "type": "function"
    },
    {
      "inputs": [
        {
          "internalType": "address",
          "name": "",
          "type": "address"
        },
        {
          "internalType": "address",
          "name": "",
          "type": "address"
        },
        {
          "internalType": "uint256",
          "name": "",
          "type": "uint256"
        },
        {
          "internalType": "bytes",
          "name": "",
          "type": "bytes"
        }
      ],
      "name": "onERC721Received",
      "outputs": [
        {
          "internalType": "bytes4",
          "name": "",
          "type": "bytes4"
        }
      ],
      "stateMutability": "nonpayable",
      "type": "function"
    },
    {
      "inputs": [
        {
          "components": [
            {
              "internalType": "enum MinimalWallet.Protocol",
              "name": "protocol",
              "type": "uint8"
            },
            {
              "internalType": "address",
              "name": "token",
              "type": "address"
            },
            {
              "internalType": "address[]",
              "name": "operators",
              "type": "address[]"
            }
          ],
          "internalType": "struct MinimalWallet.ApprovalNote[]",
          "name": "notes",
          "type": "tuple[]"
        }
      ],
      "name": "revokeApprovals",
      "outputs": [],
      "stateMutability": "nonpayable",
      "type": "function"
    },
    {
      "inputs": [
        {
          "internalType": "contract IERC1155",
          "name": "erc1155",
          "type": "address"
        },
        {
          "internalType": "address[]",
          "name": "operators",
          "type": "address[]"
        }
      ],
      "name": "revokeERC1155Approvals",
      "outputs": [],
      "stateMutability": "nonpayable",
      "type": "function"
    },
    {
      "inputs": [
        {
          "internalType": "contract IERC20",
          "name": "erc20",
          "type": "address"
        },
        {
          "internalType": "address[]",
          "name": "operators",
          "type": "address[]"
        }
      ],
      "name": "revokeERC20Approvals",
      "outputs": [],
      "stateMutability": "nonpayable",
      "type": "function"
    },
    {
      "inputs": [
        {
          "internalType": "contract IERC721",
          "name": "erc721",
          "type": "address"
        },
        {
          "internalType": "address[]",
          "name": "operators",
          "type": "address[]"
        }
      ],
      "name": "revokeERC721Approvals",
      "outputs": [],
      "stateMutability": "nonpayable",
      "type": "function"
    },
    {
      "inputs": [
        {
          "internalType": "bytes32",
          "name": "role",
          "type": "bytes32"
        },
        {
          "internalType": "address",
          "name": "account",
          "type": "address"
        },
        {
          "internalType": "bool",
          "name": "permission",
          "type": "bool"
        }
      ],
      "name": "setPermission",
      "outputs": [],
      "stateMutability": "nonpayable",
      "type": "function"
    },
    {
      "inputs": [
        {
          "internalType": "bytes4",
          "name": "interfaceId",
          "type": "bytes4"
        }
      ],
      "name": "supportsInterface",
      "outputs": [
        {
          "internalType": "bool",
          "name": "",
          "type": "bool"
        }
      ],
      "stateMutability": "view",
      "type": "function"
    },
    {
      "inputs": [
        {
          "components": [
            {
              "internalType": "enum MinimalWallet.Protocol",
              "name": "protocol",
              "type": "uint8"
            },
            {
              "internalType": "address",
              "name": "token",
              "type": "address"
            },
            {
              "internalType": "uint256[]",
              "name": "ids",
              "type": "uint256[]"
            },
            {
              "internalType": "uint256[]",
              "name": "amounts",
              "type": "uint256[]"
            }
          ],
          "internalType": "struct MinimalWallet.TransferNote[]",
          "name": "notes",
          "type": "tuple[]"
        }
      ],
      "name": "withdraw",
      "outputs": [],
      "stateMutability": "nonpayable",
      "type": "function"
    },
    {
      "inputs": [
        {
          "internalType": "contract IERC1155",
          "name": "erc1155",
          "type": "address"
        },
        {
          "internalType": "uint256[]",
          "name": "ids",
          "type": "uint256[]"
        },
        {
          "internalType": "uint256[]",
          "name": "amounts",
          "type": "uint256[]"
        }
      ],
      "name": "withdrawERC1155s",
      "outputs": [],
      "stateMutability": "nonpayable",
      "type": "function"
    },
    {
      "inputs": [
        {
          "internalType": "contract IERC20[]",
          "name": "erc20s",
          "type": "address[]"
        },
        {
          "internalType": "uint256[]",
          "name": "amounts",
          "type": "uint256[]"
        }
      ],
      "name": "withdrawERC20s",
      "outputs": [],
      "stateMutability": "nonpayable",
      "type": "function"
    },
    {
      "inputs": [
        {
          "internalType": "contract IERC721",
          "name": "erc721",
          "type": "address"
        },
        {
          "internalType": "uint256[]",
          "name": "ids",
          "type": "uint256[]"
        }
      ],
      "name": "withdrawERC721s",
      "outputs": [],
      "stateMutability": "nonpayable",
      "type": "function"
    },
    {
      "inputs": [
        {
          "internalType": "uint256",
          "name": "amount",
          "type": "uint256"
        }
      ],
      "name": "withdrawETH",
      "outputs": [],
      "stateMutability": "nonpayable",
      "type": "function"
    },
    {
      "stateMutability": "payable",
      "type": "receive"
    }
  ],
  "transactionHash": "0x1669a96da1a1208f73fa23bdc3e96232491b513245991761dfd96c78d16dddfe",
  "args": [],
  "numDeployments": 1,
  "solcInputHash": "6e9a09176756a7e15ef5f84545755d11",
  "bytecode": "0x6080806040523461003b576000197f8ace5aef1887be9219d1b04dbcfb5676ed5a12ec4a1129de5781d4d7ea71c9ed55613a6f90816100418239f35b600080fdfe6080604052600436101561001b575b361561001957600080fd5b005b60003560e01c806301ffc9a71461020f57806307bd0265146102065780630fe786e1146101fd578063150b7a02146101f45780631626ba7e146101eb57806320c13b0b146101e257806331b455a5146101d9578063468721a7146101d05780635229073f146101c757806356255c53146101be578063599e4c70146101b557806360d6c7cf146101ac5780638a2685a9146101a35780638fd8d1bb1461019a578063a4508b1f14610191578063a6b520c014610188578063b61d27f61461017f578063bc197c8114610176578063dedd65241461016d578063e1084a1314610164578063e58378bb1461015b578063e5cb370314610152578063f14210a614610149578063f23a6e61146101405763f4adeb750361000e5761013b6117bc565b61000e565b5061013b61172b565b5061013b6116e1565b5061013b6116d2565b5061013b611678565b5061013b611545565b5061013b611384565b5061013b611276565b5061013b611160565b5061013b611106565b5061013b61105e565b5061013b610fc2565b5061013b610e57565b5061013b610e03565b5061013b610ce7565b5061013b610ca7565b5061013b610c04565b5061013b610b77565b5061013b610a8a565b5061013b61079e565b5061013b6106b4565b5061013b610623565b5061013b61041c565b5061013b610373565b50346102cf5760207ffffffffffffffffffffffffffffffffffffffffffffffffffffffffffffffffc3601126102cf576004357fffffffff0000000000000000000000000000000000000000000000000000000081168091036102cf57807f4e2312e000000000000000000000000000000000000000000000000000000000602092149081156102a5575b506040519015158152f35b7f01ffc9a7000000000000000000000000000000000000000000000000000000009150143861029a565b600080fd5b60009103126102cf57565b507f4e487b7100000000000000000000000000000000000000000000000000000000600052601160045260246000fd5b907fffffffffffffffffffffffffffffffffffffffffffffffffffffffffffffffff820191821161033c57565b6103446102df565b565b907fffffffffffffffffffffffffffffffffffffffffffffffffffffffffffffffe0820191821161033c57565b50346102cf5760007ffffffffffffffffffffffffffffffffffffffffffffffffffffffffffffffffc3601126102cf5760206040517fd931ed5eea9427443091b211e417e6f83bd1d1a5235f4e7adbb05b556120802f8152f35b73ffffffffffffffffffffffffffffffffffffffff8116036102cf57565b9181601f840112156102cf5782359167ffffffffffffffff83116102cf576020808501948460051b0101116102cf57565b50346102cf5760407ffffffffffffffffffffffffffffffffffffffffffffffffffffffffffffffffc3601126102cf57600435610458816103cd565b60243567ffffffffffffffff81116102cf576104789036906004016103eb565b61048492919233612b92565b541561049f5761001992610499913691613268565b90613853565b60046040517f39218f3b000000000000000000000000000000000000000000000000000000008152fd5b507f4e487b7100000000000000000000000000000000000000000000000000000000600052604160045260246000fd5b67ffffffffffffffff811161050d57604052565b6105156104c9565b604052565b6040810190811067ffffffffffffffff82111761050d57604052565b6060810190811067ffffffffffffffff82111761050d57604052565b90601f7fffffffffffffffffffffffffffffffffffffffffffffffffffffffffffffffe0910116810190811067ffffffffffffffff82111761050d57604052565b7fffffffffffffffffffffffffffffffffffffffffffffffffffffffffffffffe0601f60209267ffffffffffffffff81116105cf575b01160190565b6105d76104c9565b6105c9565b81601f820112156102cf578035906105f382610593565b926106016040519485610552565b828452602083830101116102cf57816000926020809301838601378301015290565b50346102cf5760807ffffffffffffffffffffffffffffffffffffffffffffffffffffffffffffffffc3601126102cf5761065e6004356103cd565b6106696024356103cd565b60643567ffffffffffffffff81116102cf576106899036906004016105dc565b5060206040517f150b7a02000000000000000000000000000000000000000000000000000000008152f35b50346102cf5760407ffffffffffffffffffffffffffffffffffffffffffffffffffffffffffffffffc3601126102cf5760243567ffffffffffffffff81116102cf5761071d61071561070d6107229336906004016105dc565b600435612f9e565b919091612e15565b612b92565b54156107765760207f1626ba7e000000000000000000000000000000000000000000000000000000005b7fffffffff0000000000000000000000000000000000000000000000000000000060405191168152f35b60207fffffffff0000000000000000000000000000000000000000000000000000000061074c565b50346102cf5760407ffffffffffffffffffffffffffffffffffffffffffffffffffffffffffffffffc3601126102cf5767ffffffffffffffff6004358181116102cf576107ef9036906004016105dc565b906024359081116102cf576108089036906004016105dc565b815191826000937a184f03e93ff9f4daa797ed6e38ed64bf6a1f01000000000000000080821015610a7c575b506d04ee2d6d415b85acef810000000080831015610a6d575b50662386f26fc1000080831015610a5e575b506305f5e10080831015610a4f575b5061271080831015610a40575b506064821015610a30575b600a80921015610a26575b6001908160216108a2828901611f17565b97880101905b6109c5575b505050509061093b9261090261092e610936946040519283916108fc60208401966108fc88601a907f19457468657265756d205369676e6564204d6573736167653a0a00000000000081520190565b90613089565b037fffffffffffffffffffffffffffffffffffffffffffffffffffffffffffffffe08101835282610552565b519020612dc6565b61307c565b1561099c576109987f20c13b0b000000000000000000000000000000000000000000000000000000005b6040517fffffffff0000000000000000000000000000000000000000000000000000000090911681529081906020820190565b0390f35b6109987fffffffff00000000000000000000000000000000000000000000000000000000610965565b7fffffffffffffffffffffffffffffffffffffffffffffffffffffffffffffffff849101917f30313233343536373839616263646566000000000000000000000000000000008282061a835304918215610a21579190826108a8565b6108ad565b9360010193610891565b9390606460029104910193610886565b6004919592049101933861087b565b6008919592049101933861086e565b6010919592049101933861085f565b6020919592049101933861084d565b604095508104915038610834565b50346102cf5760407ffffffffffffffffffffffffffffffffffffffffffffffffffffffffffffffffc3601126102cf57600435610ac6816103cd565b60243567ffffffffffffffff81116102cf57610ae69036906004016103eb565b610af292919233612b92565b541561049f5761001992610b07913691613268565b906137ae565b60807ffffffffffffffffffffffffffffffffffffffffffffffffffffffffffffffffc8201126102cf57600435610b43816103cd565b91602435916044359067ffffffffffffffff82116102cf57610b67916004016105dc565b9060643560028110156102cf5790565b50346102cf576020610b94610b8b36610b0d565b9291909161391d565b6040519015158152f35b60005b838110610bb15750506000910152565b8181015183820152602001610ba1565b907fffffffffffffffffffffffffffffffffffffffffffffffffffffffffffffffe0601f602093610bfd81518092818752878088019101610b9e565b0116010190565b50346102cf57610c16610b8b36610b0d565b6040519060203d8301016040523d82523d6000602084013e61099860405192839215158352604060208401526040830190610bc1565b9060407ffffffffffffffffffffffffffffffffffffffffffffffffffffffffffffffffc8301126102cf57600435610c83816103cd565b916024359067ffffffffffffffff82116102cf57610ca3916004016103eb565b9091565b50346102cf57610cb636610c4c565b610cc292919233612b92565b541561049f5761001992610cd791369161120a565b906135de565b801515036102cf57565b50346102cf5760607ffffffffffffffffffffffffffffffffffffffffffffffffffffffffffffffffc3601126102cf57600435602435610d26816103cd565b60443590610d3382610cdd565b610d3c33612b92565b541561049f5773ffffffffffffffffffffffffffffffffffffffff81168015610dd9577f3fbe42dcb277543d3741131fe04ce9fb205e3b7154603a23a25efd63ed2c9e1b84149081610dcf575b5080610dc7575b610d9d5761001992612d6a565b60046040517f337b9b30000000000000000000000000000000000000000000000000000000008152fd5b508115610d90565b9050331438610d89565b60046040517f6d187b28000000000000000000000000000000000000000000000000000000008152fd5b50346102cf5760407ffffffffffffffffffffffffffffffffffffffffffffffffffffffffffffffffc3601126102cf576020610e4c602435610e44816103cd565b600435612c3e565b546040519015158152f35b50346102cf5760407ffffffffffffffffffffffffffffffffffffffffffffffffffffffffffffffffc3601126102cf5767ffffffffffffffff6004358181116102cf57610ea89036906004016103eb565b90916024359081116102cf57610ec29036906004016103eb565b90610ecc33612b92565b541561049f57828203610f185760005b838110610ee557005b80610f12610ef6600193878961194f565b35610f00816103cd565b610f0b83878761194f565b359061338d565b01610edc565b60046040517f9d89020a000000000000000000000000000000000000000000000000000000008152fd5b602080820190808352835180925260408301928160408460051b8301019501936000915b848310610f765750505050505090565b9091929394958480610fb2837fffffffffffffffffffffffffffffffffffffffffffffffffffffffffffffffc086600196030187528a51610bc1565b9801930193019194939290610f66565b5060607ffffffffffffffffffffffffffffffffffffffffffffffffffffffffffffffffc3601126102cf5767ffffffffffffffff6024358181116102cf5761100e9036906004016103eb565b90916044359081116102cf576110289036906004016103eb565b92909161103433612beb565b541561049f5761104c611052936109989536916118af565b91611ae4565b60405191829182610f42565b50346102cf5760607ffffffffffffffffffffffffffffffffffffffffffffffffffffffffffffffffc3601126102cf5760043561109a816103cd565b67ffffffffffffffff906024358281116102cf576110bc9036906004016103eb565b926044359081116102cf576110d59036906004016103eb565b91906110e033612b92565b541561049f576110f86111009261001996369161120a565b92369161120a565b916136d0565b50346102cf5760007ffffffffffffffffffffffffffffffffffffffffffffffffffffffffffffffffc3601126102cf5760206040517fc3757b2598fc76eee6f032de6e0c1a33b52273c8afc630e889b8d170f8a26b1a8152f35b5060607ffffffffffffffffffffffffffffffffffffffffffffffffffffffffffffffffc3601126102cf57600435611197816103cd565b60443567ffffffffffffffff81116102cf576111b79036906004016105dc565b6111c033612beb565b541561049f5760008160209384839451920190602435905af16040519015158152f35b60209067ffffffffffffffff81116111fd575b60051b0190565b6112056104c9565b6111f6565b9291611215826111e3565b916112236040519384610552565b829481845260208094019160051b81019283116102cf57905b8282106112495750505050565b8135815290830190830161123c565b9080601f830112156102cf578160206112739335910161120a565b90565b50346102cf5760a07ffffffffffffffffffffffffffffffffffffffffffffffffffffffffffffffffc3601126102cf576112b16004356103cd565b6112bc6024356103cd565b67ffffffffffffffff6044358181116102cf576112dd903690600401611258565b506064358181116102cf576112f6903690600401611258565b506084359081116102cf5761130f9036906004016105dc565b506040517fbc197c81000000000000000000000000000000000000000000000000000000008152602090f35b60207ffffffffffffffffffffffffffffffffffffffffffffffffffffffffffffffffc8201126102cf576004359067ffffffffffffffff82116102cf57610ca3916004016103eb565b50346102cf576113933661133b565b9061139d33612b92565b541561049f576113ab61309c565b5060005b8281106113b857005b6113cb6113c68285856130e1565b61313c565b908151916113d8836131d0565b6113e1836131d0565b8261142f576060015180519092507fffffffffffffffffffffffffffffffffffffffffffffffffffffffffffffffff01610f1857611429611423600193611967565b51613347565b016113af565b611438836131d0565b6001928084036114a85750606081015192835103610f185760019261149c61149661147d60206114a395015173ffffffffffffffffffffffffffffffffffffffff1690565b73ffffffffffffffffffffffffffffffffffffffff1690565b91611967565b519061338d565b611429565b600193506114b5816131d0565b600281036114f05750806114eb61147d602060406114a395015193015173ffffffffffffffffffffffffffffffffffffffff1690565b6135de565b806114fc6003926131d0565b14611508575b50611429565b80604061153f92015161153a61147d6020606085015194015173ffffffffffffffffffffffffffffffffffffffff1690565b6136d0565b38611502565b50346102cf576115543661133b565b9061155e33612b92565b541561049f5761156c6131da565b5060005b82811061157957005b61158c61158782858561321a565b6132c0565b90815191611599836131d0565b6115a2836131d0565b6001928084036115e657508060406115d761147d60206115e095015173ffffffffffffffffffffffffffffffffffffffff1690565b910151906137ae565b01611570565b6115ef816131d0565b60028103611630575080604061162261147d602061162b95015173ffffffffffffffffffffffffffffffffffffffff1690565b91015190613853565b6115e0565b8061163c6003926131d0565b14611648575b506115e0565b80604061162261147d602061167295015173ffffffffffffffffffffffffffffffffffffffff1690565b38611642565b50346102cf5760007ffffffffffffffffffffffffffffffffffffffffffffffffffffffffffffffffc3601126102cf5760206040517f3fbe42dcb277543d3741131fe04ce9fb205e3b7154603a23a25efd63ed2c9e1b8152f35b50346102cf5761047836610c4c565b50346102cf5760207ffffffffffffffffffffffffffffffffffffffffffffffffffffffffffffffffc3601126102cf5761171a33612b92565b541561049f57610019600435613347565b50346102cf5760a07ffffffffffffffffffffffffffffffffffffffffffffffffffffffffffffffffc3601126102cf576117666004356103cd565b6117716024356103cd565b60843567ffffffffffffffff81116102cf576117919036906004016105dc565b5060206040517ff23a6e61000000000000000000000000000000000000000000000000000000008152f35b5060a07ffffffffffffffffffffffffffffffffffffffffffffffffffffffffffffffffc3601126102cf576004356117f3816103cd565b67ffffffffffffffff6064358181116102cf576118149036906004016103eb565b90916084359081116102cf5761182e9036906004016103eb565b90937f8ace5aef1887be9219d1b04dbcfb5676ed5a12ec4a1129de5781d4d7ea71c9ed9081546118855761186f91602435905561186a81612c72565b612cee565b8161187657005b6100199361104c9136916118af565b60046040517fef34ca5c000000000000000000000000000000000000000000000000000000008152fd5b929190926118bc846111e3565b916118ca6040519384610552565b829480845260208094019060051b8301928284116102cf5780915b8483106118f457505050505050565b823567ffffffffffffffff81116102cf57869161191486849386016105dc565b8152019201916118e5565b507f4e487b7100000000000000000000000000000000000000000000000000000000600052603260045260246000fd5b919081101561195f5760051b0190565b61120561191f565b602090805115611975570190565b61197d61191f565b0190565b6020918151811015611996575b60051b010190565b61199e61191f565b61198e565b156119aa57565b60646040517f08c379a000000000000000000000000000000000000000000000000000000000815260206004820152601660248201527f56616c7565206d757374206265203332206279746573000000000000000000006044820152fd5b602081519101519060208110611a1c575090565b7fffffffffffffffffffffffffffffffffffffffffffffffffffffffffffffffff9060200360031b1b1690565b3d15611a74573d90611a5a82610593565b91611a686040519384610552565b82523d6000602084013e565b606090565b60405190611a868261051a565b600782527f556e6b6e6f776e000000000000000000000000000000000000000000000000006020830152565b73ffffffffffffffffffffffffffffffffffffffff611273949360609383521660208201528160408201520190610bc1565b9060005b818110611af55750505090565b611b0081838561194f565b6040903560d881901c828116159384611ea55760010193611b2285878961194f565b3560205b600384811660018103611cfb5750600092839260209250868316611ce357611b71917fffffffff0000000000000000000000000000000000000000000000000000000089168e611f66565b905b815191018273ffffffffffffffffffffffffffffffffffffffff88165af193611b9a611a49565b94915b859215611c225750505060801615611be857600192917fff00000000000000000000000000000000000000000000000000000000000000611be29260581b1687612a4b565b01611ae8565b90600192957fff00000000000000000000000000000000000000000000000000000000000000611c1c9360581b1690612982565b93611be2565b611c929350869073ffffffffffffffffffffffffffffffffffffffff96611c47611a79565b9460449182815111611ca5575b505050600014611c9657905b519485947fef3dcb2f000000000000000000000000000000000000000000000000000000008652169060048501611ab2565b0390fd5b611c9f9061030f565b90611c60565b6020611cbc6004611cb584612ad0565b9301611a08565b03611c5457611ccd60248301611a08565b14611cd9575b80611c54565b0193508780611cd3565b50607f611cf49160f81c168c611981565b5190611b73565b60028103611d885750600092839260209250868316611d7057611d41917fffffffff0000000000000000000000000000000000000000000000000000000089168e611f66565b905b8151910173ffffffffffffffffffffffffffffffffffffffff87165afa93611d69611a49565b9491611b9d565b50607f611d819160f81c168c611981565b5190611d43565b03611e47576000918291607f90611da58d838560f81c1690611981565b51928d611dbf602095611dba878251146119a3565b611a08565b93858a16158714611e2e5750611dd7611e059361030f565b9160081b907fffffffff000000000000000000000000000000000000000000000000000000008b1690611f66565b915b825192019073ffffffffffffffffffffffffffffffffffffffff88165af193611d69611a49565b919050611e40925060f01c168d611981565b5191611e07565b85517f08c379a000000000000000000000000000000000000000000000000000000000815260206004820152601060248201527f496e76616c69642063616c6c74797065000000000000000000000000000000006044820152606490fd5b9379ffffffffffffffffffffffffffffffffffffffffffffffffffff8360281b176006611b26565b60405190610160820182811067ffffffffffffffff821117611efc575b604052600a8252610140366020840137565b611f046104c9565b611eea565b906004820180921161033c57565b90611f2182610593565b611f2e6040519182610552565b8281527fffffffffffffffffffffffffffffffffffffffffffffffffffffffffffffffe0611f5c8294610593565b0190602036910137565b600094939285918290611f77611ecd565b9760609281905b8882106120f0575b5050611f94611f9991611f09565b611f17565b97602095868a015260009060248a019482965b898810611fbf5750505050505050505050565b8890818910156120e3575b8c838a1a60808116156120c45760fe81036120365750816120267fffffffffffffffffffffffffffffffffffffffffffffffffffffffffffffffe092600195948c5261201583611f09565b61201f8c51610346565b918c612abe565b88510101975b0197019695611fac565b929895919260fd81036120645750916001999185858961205896858b52612591565b5098919790979461202c565b60fc81036120815750916001999185858961205896858b526125e4565b926120bd8782936120ac8b6120a09b9e979b607f60019a168092611981565b5151968794528c611981565b51906120b785611f09565b91612aac565b019761202c565b8392999150926120d9607f6001951689611981565b510151815261202c565b6120eb61191f565b611fca565b90949591602090818710156121a1575b87871a60ff811461218b5760808116156121775760fe81036121595750855115612138575b90600191865101935b0196950190611f7e565b94506001906040516121508161090288858301610f42565b95909150612125565b9261216b9360019893959d8a88612250565b9691939093929b61212e565b6121859060019392876121ae565b9361212e565b509598509195949150611f949050611f99611f86565b6121a961191f565b612100565b6121bf90607f602093941690611981565b5151036121cc5760200190565b60846040517f08c379a000000000000000000000000000000000000000000000000000000000815260206004820152602760248201527f537461746963207374617465207661726961626c6573206d757374206265203360448201527f32206279746573000000000000000000000000000000000000000000000000006064820152fd5b90969594939260fd810361227057509561226a959661233f565b90919293565b60fc810361228457509561226a959661246d565b919650919493929161229991607f1690611981565b515180151580612334575b156122b0570160200191565b60846040517f08c379a000000000000000000000000000000000000000000000000000000000815260206004820152603660248201527f44796e616d6963207374617465207661726961626c6573206d7573742062652060448201527f61206d756c7469706c65206f66203332206279746573000000000000000000006064820152fd5b50601f8116156122a4565b92919093946001019360208510156123d5575b6020612363607f83881a1686611981565b51510361237757602061226a96019361246d565b60646040517f08c379a000000000000000000000000000000000000000000000000000000000815260206004820152601d60248201527f4172726179206c656e677468206d7573742062652033322062797465730000006044820152fd5b6123dd61191f565b612352565b156123e957565b60846040517f08c379a000000000000000000000000000000000000000000000000000000000815260206004820152602960248201527f43616e6e6f74207573652073746174652066726f6d20696e736964652064796e60448201527f616d6963207479706500000000000000000000000000000000000000000000006064820152fd5b6001808501976020968701978201969095600094909392915b808910612511576040517f08c379a0000000000000000000000000000000000000000000000000000000008152602060048201526024808201527f44796e616d6963207479706520776173206e6f742070726f7065726c7920636c60448201527f6f736564000000000000000000000000000000000000000000000000000000006064820152608490fd5b81891a60808116156125775760fb810361253b5750505050506125349083611981565b5293929190565b99849b8b83989985879e9861255a61255f989f97999a60fe14156123e2565b612250565b9b929b9a919a96909a9b975b01950197909291612486565b9061258b8495939a979b92829593856121ae565b9a61256b565b93929190602060016125c9980196818810156125d7575b816125b8607f868b1a1685611981565b5101516024828901015201946125e4565b929391929091602090910190565b6125df61191f565b6125a8565b9395969290916000946125f78884611981565b51936024600180878b019b019b0198830101915b602094858a101561272d57848a1a60808116156127075760fb8103612634575050505050505050565b9b8c60fd889d939598979c94969b999e1460001461267f57509061265f92918d8b52848c8988612591565b929c919b978301909501989101956001915b01930197929193909361260b565b9091929394955060fc81146000146126bd5750916126a7918b9594938d8b52848c89886125e4565b929c919b97830190950198910195600191612671565b9a89878e83949f9e956126fb607f6001989b9a999b16946126f06126e18787611981565b51519687968796879452611981565b518b6120b785611f09565b019d0198010198612671565b95600192949981612721607f8295979a9e999e168a611981565b5101518b520198612671565b50505050505050565b1561273d57565b60646040517f08c379a000000000000000000000000000000000000000000000000000000000815260206004820152601360248201527f496e646578206f75742d6f662d626f756e6473000000000000000000000000006044820152fd5b156127a257565b60846040517f08c379a000000000000000000000000000000000000000000000000000000000815260206004820152602860248201527f4f6e6c79206f6e652072657475726e2076616c7565207065726d69747465642060448201527f28737461746963290000000000000000000000000000000000000000000000006064820152fd5b1561282d57565b60846040517f08c379a000000000000000000000000000000000000000000000000000000000815260206004820152602a60248201527f4f6e6c79206f6e652072657475726e2076616c7565207065726d69747465642060448201527f287661726961626c6529000000000000000000000000000000000000000000006064820152fd5b60209081818403126102cf57805167ffffffffffffffff918282116102cf57019083601f830112156102cf5781516128e8816111e3565b946040926128f884519788610552565b828752858088019360051b860101948286116102cf57868101935b86851061292557505050505050505090565b84518381116102cf5782019084603f830112156102cf57888201519061294a82610593565b61295689519182610552565b828152868984860101116102cf576129778b949385948b8685019101610b9e565b815201940193612913565b91908060f81c60ff8114612a45576080811615612a0d5760fe81036129b75750506112739150602080825183010191016128b1565b6020916129cd610fe092607f8751911610612736565b7fffffffffffffffffffffffffffffffffffffffffffffffffffffffffffffffe0838501946129fe85875114612826565b5101845260f31c168301015290565b612a41929150607f1690612a2384518310612736565b612a30602082511461279b565b612a3a8285611981565b5282611981565b5090565b50505090565b9060f81c9060ff8214612aa757602091612a8891607f612a758651868101809111612a9f57611f17565b921691612a828383611981565b52611981565b51918051604084018184840160045afa5051910152565b611f946102df565b505050565b916020809185930101920160045afa50565b910160200190829060400160045afa50565b9081517fffffffffffffffffffffffffffffffffffffffffffffffffffffffffffffffbc808201828111612b85575b9360445b838110612b11575b50505050565b8151811015612b78575b7fff00000000000000000000000000000000000000000000000000000000000000602082840101511615612b5157600101612b03565b9394505090508101908111612b6b575b9038808080612b0b565b612b736102df565b612b61565b612b8061191f565b612b1b565b612b8d6102df565b612aff565b60405173ffffffffffffffffffffffffffffffffffffffff60208201927f3fbe42dcb277543d3741131fe04ce9fb205e3b7154603a23a25efd63ed2c9e1b845216604082015260408152612be581610536565b51902090565b60405173ffffffffffffffffffffffffffffffffffffffff60208201927fd931ed5eea9427443091b211e417e6f83bd1d1a5235f4e7adbb05b556120802f845216604082015260408152612be581610536565b9073ffffffffffffffffffffffffffffffffffffffff604051916020830193845216604082015260408152612be581610536565b60607ff7682c7604ab581823c6ee4b22f8283179771e57c8115328f4a698be07430a41916001612ca182612b92565b5573ffffffffffffffffffffffffffffffffffffffff604051917f3fbe42dcb277543d3741131fe04ce9fb205e3b7154603a23a25efd63ed2c9e1b835216602082015260016040820152a1565b60607ff7682c7604ab581823c6ee4b22f8283179771e57c8115328f4a698be07430a41916001612d1d82612beb565b5573ffffffffffffffffffffffffffffffffffffffff604051917fd931ed5eea9427443091b211e417e6f83bd1d1a5235f4e7adbb05b556120802f835216602082015260016040820152a1565b7ff7682c7604ab581823c6ee4b22f8283179771e57c8115328f4a698be07430a419273ffffffffffffffffffffffffffffffffffffffff60609382612daf8286612c3e565b5560405193845216602083015215156040820152a1565b6112739161071591612f9e565b507f4e487b7100000000000000000000000000000000000000000000000000000000600052602160045260246000fd5b60051115612e0d57565b610344612dd3565b612e1e81612e03565b80612e265750565b612e2f81612e03565b60018103612e96576040517f08c379a000000000000000000000000000000000000000000000000000000000815260206004820152601860248201527f45434453413a20696e76616c6964207369676e617475726500000000000000006044820152606490fd5b612e9f81612e03565b60028103612f06576040517f08c379a000000000000000000000000000000000000000000000000000000000815260206004820152601f60248201527f45434453413a20696e76616c6964207369676e6174757265206c656e677468006044820152606490fd5b80612f12600392612e03565b14612f1957565b6040517f08c379a000000000000000000000000000000000000000000000000000000000815260206004820152602260248201527f45434453413a20696e76616c6964207369676e6174757265202773272076616c60448201527f75650000000000000000000000000000000000000000000000000000000000006064820152608490fd5b906041815114600014612fc857610ca3916020820151906060604084015193015160001a90612fdf565b5050600090600290565b506040513d6000823e3d90fd5b9291907f7fffffffffffffffffffffffffffffff5d576e7357a4501ddfe92f46681b20a083116130705791608094939160ff602094604051948552168484015260408301526060820152600093849182805260015afa15613063575b815173ffffffffffffffffffffffffffffffffffffffff81161561305d579190565b50600190565b61306b612fd2565b61303b565b50505050600090600390565b61308590612b92565b5490565b9061197d60209282815194859201610b9e565b604051906080820182811067ffffffffffffffff8211176130d4575b6040526060808360008152600060208201528160408201520152565b6130dc6104c9565b6130b8565b9190811015613122575b60051b810135907fffffffffffffffffffffffffffffffffffffffffffffffffffffffffffffff81813603018212156102cf570190565b61312a61191f565b6130eb565b359060048210156102cf57565b6080813603126102cf576040519067ffffffffffffffff9060808301828111848210176131c3575b6040526131708161312f565b83526020810135613180816103cd565b602084015260408101358281116102cf5761319e9036908301611258565b604084015260608101359182116102cf576131bb91369101611258565b606082015290565b6131cb6104c9565b613164565b60041115612e0d57565b604051906060820182811067ffffffffffffffff82111761320d575b604052606060408360008152600060208201520152565b6132156104c9565b6131f6565b919081101561325b575b60051b810135907fffffffffffffffffffffffffffffffffffffffffffffffffffffffffffffffa1813603018212156102cf570190565b61326361191f565b613224565b9291613273826111e3565b916132816040519384610552565b829481845260208094019160051b81019283116102cf57905b8282106132a75750505050565b83809183356132b5816103cd565b81520191019061329a565b6060813603126102cf576040519067ffffffffffffffff90606083018281118482101761333a575b6040526132f48161312f565b83526020810135613304816103cd565b602084015260408101359182116102cf570136601f820112156102cf57613332903690602081359101613268565b604082015290565b6133426104c9565b6132e8565b600080809260405190335af161335b611a49565b501561336357565b60046040517f750b219c000000000000000000000000000000000000000000000000000000008152fd5b9061034491604051917fa9059cbb0000000000000000000000000000000000000000000000000000000060208401523360248401526044830152604482526080820182811067ffffffffffffffff8211176133eb575b6040526133f8565b6133f36104c9565b6133e3565b6040516134639173ffffffffffffffffffffffffffffffffffffffff1661341e8261051a565b6000806020958685527f5361666545524332303a206c6f772d6c6576656c2063616c6c206661696c656487860152868151910182855af161345d611a49565b91613512565b80518061346f57505050565b818391810103126102cf5781015161348681610cdd565b1561348e5750565b608490604051907f08c379a00000000000000000000000000000000000000000000000000000000082526004820152602a60248201527f5361666545524332303a204552433230206f7065726174696f6e20646964206e60448201527f6f742073756363656564000000000000000000000000000000000000000000006064820152fd5b9192901561358d5750815115613526575090565b3b1561352f5790565b60646040517f08c379a000000000000000000000000000000000000000000000000000000000815260206004820152601d60248201527f416464726573733a2063616c6c20746f206e6f6e2d636f6e74726163740000006044820152fd5b8251909150156135a05750805190602001fd5b611c92906040519182917f08c379a0000000000000000000000000000000000000000000000000000000008352602060048401526024830190610bc1565b81519060005b8281106135f15750505050565b73ffffffffffffffffffffffffffffffffffffffff8216906136138186611981565b5191803b156102cf5760008091606460019560405194859384927f42842e0e00000000000000000000000000000000000000000000000000000000845230600485015233602485015260448401525af1801561368f575b613676575b50016135e4565b80613683613689926104f9565b806102d4565b3861366f565b613697612fd2565b61366a565b90815180825260208080930193019160005b8281106136bc575050505090565b8351855293810193928101926001016136ae565b73ffffffffffffffffffffffffffffffffffffffff1691823b156102cf5761377692600092836020613745948260405198899788967f2eb2c2d600000000000000000000000000000000000000000000000000000000885230600489015233602489015260a0604489015260a488019061369c565b7ffffffffffffffffffffffffffffffffffffffffffffffffffffffffffffffffc938488830301606489015261369c565b85810392830160848701525201925af180156137a1575b6137945750565b80613683610344926104f9565b6137a9612fd2565b61378d565b81519160005b8381106137c15750505050565b8061384d61090261384773ffffffffffffffffffffffffffffffffffffffff6137ec60019688611981565b51166040519283917f095ea7b300000000000000000000000000000000000000000000000000000000602084015260248301602060009193929373ffffffffffffffffffffffffffffffffffffffff60408201951681520152565b856133f8565b016137b4565b81519060005b8281106138665750505050565b73ffffffffffffffffffffffffffffffffffffffff908183169161388a8287611981565b5116823b156102cf576040517fa22cb46500000000000000000000000000000000000000000000000000000000815273ffffffffffffffffffffffffffffffffffffffff9190911660048201526000602482018190526001938290604490829084905af18015613910575b613901575b5001613859565b61390a906104f9565b386138fa565b613918612fd2565b6138f5565b90604093845160208101907fc3757b2598fc76eee6f032de6e0c1a33b52273c8afc630e889b8d170f8a26b1a8252338782015286815261395c81610536565b5190205415613a065761396e81613a2f565b6139dd5791600092918392602083519301915af19081156139b3577f6895c13664aa4f67288b25d7a21d7aaa34916e355fb9b6fae0a139a9085becb86000339251a290565b7facd2c8702804128fdb0db2bb49f6d127dd0181c13fd45dbfe16de0930e2bd3756000339251a290565b600484517f7ddbd43b000000000000000000000000000000000000000000000000000000008152fd5b600485517f39218f3b000000000000000000000000000000000000000000000000000000008152fd5b60021115612e0d5756fea264697066735822122055c1e9d99b334c359a375b3e8deb296d79806faf677b905b37ffc3b209d182d364736f6c63430008100033",
  "devdoc": {
    "kind": "dev",
    "methods": {
      "execTransactionFromModule(address,uint256,bytes,uint8)": {
        "details": "Allows a Module to execute a Safe transaction without any further confirmations.",
        "params": {
          "data": "Data payload of module transaction.",
          "operation": "Operation type of module transaction.",
          "to": "Destination address of module transaction.",
          "value": "Ether value of module transaction."
        }
      },
      "execTransactionFromModuleReturnData(address,uint256,bytes,uint8)": {
        "details": "Allows a Module to execute a Safe transaction without any further confirmations and return data",
        "params": {
          "data": "Data payload of module transaction.",
          "operation": "Operation type of module transaction.",
          "to": "Destination address of module transaction.",
          "value": "Ether value of module transaction."
        }
      },
      "onERC721Received(address,address,uint256,bytes)": {
        "details": "See {IERC721Receiver-onERC721Received}. Always returns `IERC721Receiver.onERC721Received.selector`."
      },
      "supportsInterface(bytes4)": {
        "details": "See {IERC165-supportsInterface}."
      }
    },
    "version": 1
  },
  "userdoc": {
    "kind": "user",
    "methods": {},
    "version": 1
  },
  "storageLayout": {
    "storage": [],
    "types": null
  }
}