{
  "address": "0x66fc62c1748E45435b06cF8dD105B73E9855F93E",
  "abi": [
    {
      "inputs": [
        {
          "internalType": "address",
          "name": "ensoBeacon_",
          "type": "address"
        }
      ],
      "stateMutability": "nonpayable",
      "type": "constructor"
    },
    {
      "inputs": [],
      "name": "AlreadyInit",
      "type": "error"
    },
    {
      "inputs": [],
      "name": "InvalidAccount",
      "type": "error"
    },
    {
      "inputs": [],
      "name": "NoLabel",
      "type": "error"
    },
    {
      "inputs": [],
      "name": "NotOwner",
      "type": "error"
    },
    {
      "inputs": [],
      "name": "NotPermitted",
      "type": "error"
    },
    {
      "anonymous": false,
      "inputs": [
        {
          "indexed": false,
          "internalType": "address",
          "name": "previousAdmin",
          "type": "address"
        },
        {
          "indexed": false,
          "internalType": "address",
          "name": "newAdmin",
          "type": "address"
        }
      ],
      "name": "AdminChanged",
      "type": "event"
    },
    {
      "anonymous": false,
      "inputs": [
        {
          "indexed": true,
          "internalType": "address",
          "name": "beacon",
          "type": "address"
        }
      ],
      "name": "BeaconUpgraded",
      "type": "event"
    },
    {
      "anonymous": false,
      "inputs": [
        {
          "indexed": false,
          "internalType": "contract IEnsoWallet",
          "name": "instance",
          "type": "address"
        },
        {
          "indexed": false,
          "internalType": "string",
          "name": "label",
          "type": "string"
        },
        {
          "indexed": false,
          "internalType": "address",
          "name": "deployer",
          "type": "address"
        }
      ],
      "name": "Deployed",
      "type": "event"
    },
    {
      "anonymous": false,
      "inputs": [
        {
          "indexed": false,
          "internalType": "address",
          "name": "previousOwner",
          "type": "address"
        },
        {
          "indexed": false,
          "internalType": "address",
          "name": "newOwner",
          "type": "address"
        }
      ],
      "name": "OwnershipTransferStarted",
      "type": "event"
    },
    {
      "anonymous": false,
      "inputs": [
        {
          "indexed": false,
          "internalType": "address",
          "name": "previousOwner",
          "type": "address"
        },
        {
          "indexed": false,
          "internalType": "address",
          "name": "newOwner",
          "type": "address"
        }
      ],
      "name": "OwnershipTransferred",
      "type": "event"
    },
    {
      "anonymous": false,
      "inputs": [
        {
          "indexed": true,
          "internalType": "address",
          "name": "implementation",
          "type": "address"
        }
      ],
      "name": "Upgraded",
      "type": "event"
    },
    {
      "inputs": [],
      "name": "acceptOwnership",
      "outputs": [],
      "stateMutability": "nonpayable",
      "type": "function"
    },
    {
      "inputs": [
        {
          "internalType": "bytes32",
          "name": "shortcutId",
          "type": "bytes32"
        },
        {
          "internalType": "bytes32[]",
          "name": "commands",
          "type": "bytes32[]"
        },
        {
          "internalType": "bytes[]",
          "name": "state",
          "type": "bytes[]"
        }
      ],
      "name": "deploy",
      "outputs": [
        {
          "internalType": "contract IEnsoWallet",
          "name": "",
          "type": "address"
        }
      ],
      "stateMutability": "payable",
      "type": "function"
    },
    {
      "inputs": [
        {
          "internalType": "string",
          "name": "label",
          "type": "string"
        },
        {
          "internalType": "bytes32",
          "name": "shortcutId",
          "type": "bytes32"
        },
        {
          "internalType": "bytes32[]",
          "name": "commands",
          "type": "bytes32[]"
        },
        {
          "internalType": "bytes[]",
          "name": "state",
          "type": "bytes[]"
        }
      ],
      "name": "deployCustom",
      "outputs": [
        {
          "internalType": "contract IEnsoWallet",
          "name": "",
          "type": "address"
        }
      ],
      "stateMutability": "payable",
      "type": "function"
    },
    {
      "inputs": [],
      "name": "ensoBeacon",
      "outputs": [
        {
          "internalType": "address",
          "name": "",
          "type": "address"
        }
      ],
      "stateMutability": "view",
      "type": "function"
    },
    {
      "inputs": [],
      "name": "getAddress",
      "outputs": [
        {
          "internalType": "address payable",
          "name": "",
          "type": "address"
        }
      ],
      "stateMutability": "view",
      "type": "function"
    },
    {
      "inputs": [
        {
          "internalType": "address",
          "name": "user",
          "type": "address"
        },
        {
          "internalType": "string",
          "name": "label",
          "type": "string"
        }
      ],
      "name": "getCustomAddress",
      "outputs": [
        {
          "internalType": "address payable",
          "name": "",
          "type": "address"
        }
      ],
      "stateMutability": "view",
      "type": "function"
    },
    {
      "inputs": [
        {
          "internalType": "address",
          "name": "user",
          "type": "address"
        }
      ],
      "name": "getUserAddress",
      "outputs": [
        {
          "internalType": "address payable",
          "name": "",
          "type": "address"
        }
      ],
      "stateMutability": "view",
      "type": "function"
    },
    {
      "inputs": [
        {
          "internalType": "address",
          "name": "newOwner",
          "type": "address"
        }
      ],
      "name": "initialize",
      "outputs": [],
      "stateMutability": "nonpayable",
      "type": "function"
    },
    {
      "inputs": [],
      "name": "owner",
      "outputs": [
        {
          "internalType": "address",
          "name": "",
          "type": "address"
        }
      ],
      "stateMutability": "view",
      "type": "function"
    },
    {
      "inputs": [],
      "name": "proxiableUUID",
      "outputs": [
        {
          "internalType": "bytes32",
          "name": "",
          "type": "bytes32"
        }
      ],
      "stateMutability": "view",
      "type": "function"
    },
    {
      "inputs": [
        {
          "internalType": "address",
          "name": "newOwner",
          "type": "address"
        }
      ],
      "name": "transferOwnership",
      "outputs": [],
      "stateMutability": "nonpayable",
      "type": "function"
    },
    {
      "inputs": [
        {
          "internalType": "address",
          "name": "newImplementation",
          "type": "address"
        }
      ],
      "name": "upgradeTo",
      "outputs": [],
      "stateMutability": "nonpayable",
      "type": "function"
    },
    {
      "inputs": [
        {
          "internalType": "address",
          "name": "newImplementation",
          "type": "address"
        },
        {
          "internalType": "bytes",
          "name": "data",
          "type": "bytes"
        }
      ],
      "name": "upgradeToAndCall",
      "outputs": [],
      "stateMutability": "payable",
      "type": "function"
    }
  ],
  "transactionHash": "0xd9529ce34c5ef634eed2020f20a0f093280d296f100f5e888daebc05dfb49e41",
  "args": [
    "0x277D98D33b7F44921d4230697DeF8d1D56aBAa62"
  ],
  "numDeployments": 1,
  "solcInputHash": "6d09fa0e7c4fcae67eb2b5b0c23fbfcc",
  "bytecode": "0x60c0346100b757601f611c1038819003918201601f19168301916001600160401b038311848410176100bc578084926020946040528339810103126100b757516001600160a01b039081811681036100b7573060805260a0527febef2b212afb6c9cfdbd10b61834a8dc955e5fbf0aacd1c641d5cbdedf4022d055604051611b3d90816100d382396080518181816104250152818161069e0152610743015260a051818181610599015281816117a20152611a3d0152f35b600080fd5b634e487b7160e01b600052604160045260246000fdfe60806040526004361015610013575b600080fd5b60003560e01c80631289ad05146101175780633659cfe61461010e57806338cc48311461010557806349061ae6146100fc5780634d6849d2146100f35780634f1ef286146100ea57806352d1902d146100e157806379ba5097146100d85780638454525b146100cf5780638da5cb5b146100c6578063c4d66de8146100bd578063f2fde38b146100b45763ffa2ca3b146100ac57600080fd5b61000e610be8565b5061000e610ae9565b5061000e610a14565b5061000e6109a2565b5061000e61092f565b5061000e610818565b5061000e6106fc565b5061000e61061f565b5061000e6105bd565b5061000e61054d565b5061000e6104f4565b5061000e6103d2565b5061000e6102b9565b507f4e487b7100000000000000000000000000000000000000000000000000000000600052604160045260246000fd5b67ffffffffffffffff811161016457604052565b61016c610120565b604052565b6020810190811067ffffffffffffffff82111761016457604052565b6060810190811067ffffffffffffffff82111761016457604052565b90601f7fffffffffffffffffffffffffffffffffffffffffffffffffffffffffffffffe0910116810190811067ffffffffffffffff82111761016457604052565b7fffffffffffffffffffffffffffffffffffffffffffffffffffffffffffffffe0601f60209267ffffffffffffffff8111610226575b01160190565b61022e610120565b610220565b92919261023f826101ea565b9161024d60405193846101a9565b82948184528183011161000e578281602093846000960137010152565b9080601f8301121561000e5781602061028593359101610233565b90565b9181601f8401121561000e5782359167ffffffffffffffff831161000e576020808501948460051b01011161000e57565b5060807ffffffffffffffffffffffffffffffffffffffffffffffffffffffffffffffffc36011261000e5767ffffffffffffffff60043581811161000e5761030590369060040161026a565b60443582811161000e5761031d903690600401610288565b909260643590811161000e57610337903690600401610288565b91835115610385576103819461035a9460243590610355813361195a565b611716565b60405173ffffffffffffffffffffffffffffffffffffffff90911681529081906020820190565b0390f35b60046040517f19240aab000000000000000000000000000000000000000000000000000000008152fd5b6004359073ffffffffffffffffffffffffffffffffffffffff8216820361000e57565b503461000e5760207ffffffffffffffffffffffffffffffffffffffffffffffffffffffffffffffffc36011261000e5761040a6103af565b73ffffffffffffffffffffffffffffffffffffffff61047b817f00000000000000000000000000000000000000000000000000000000000000001661045181301415610c89565b827f360894a13ba1a3210667c828492db98dca3e2076cc3735a920a3ca505d382bbc541614610d14565b7febef2b212afb6c9cfdbd10b61834a8dc955e5fbf0aacd1c641d5cbdedf4022d0541633036104bf576040516104bd916104b482610171565b60008252610e46565b005b60046040517f30cd7471000000000000000000000000000000000000000000000000000000008152fd5b600091031261000e57565b503461000e5760007ffffffffffffffffffffffffffffffffffffffffffffffffffffffffffffffffc36011261000e57602061052f336119c7565b73ffffffffffffffffffffffffffffffffffffffff60405191168152f35b503461000e5760007ffffffffffffffffffffffffffffffffffffffffffffffffffffffffffffffffc36011261000e57602060405173ffffffffffffffffffffffffffffffffffffffff7f0000000000000000000000000000000000000000000000000000000000000000168152f35b503461000e5760207ffffffffffffffffffffffffffffffffffffffffffffffffffffffffffffffffc36011261000e57602073ffffffffffffffffffffffffffffffffffffffff610616816106106103af565b166119c7565b60405191168152f35b5060407ffffffffffffffffffffffffffffffffffffffffffffffffffffffffffffffffc36011261000e576106526103af565b60243567ffffffffffffffff811161000e573660238201121561000e57610683903690602481600401359101610233565b73ffffffffffffffffffffffffffffffffffffffff6106ca817f00000000000000000000000000000000000000000000000000000000000000001661045181301415610c89565b7febef2b212afb6c9cfdbd10b61834a8dc955e5fbf0aacd1c641d5cbdedf4022d0541633036104bf576104bd91610fc3565b503461000e5760007ffffffffffffffffffffffffffffffffffffffffffffffffffffffffffffffffc36011261000e5773ffffffffffffffffffffffffffffffffffffffff7f0000000000000000000000000000000000000000000000000000000000000000163003610794576040517f360894a13ba1a3210667c828492db98dca3e2076cc3735a920a3ca505d382bbc8152602090f35b60846040517f08c379a000000000000000000000000000000000000000000000000000000000815260206004820152603860248201527f555550535570677261646561626c653a206d757374206e6f742062652063616c60448201527f6c6564207468726f7567682064656c656761746563616c6c00000000000000006064820152fd5b503461000e5760007ffffffffffffffffffffffffffffffffffffffffffffffffffffffffffffffffc36011261000e577f4be222fb9f9e9f4aed563932b8b081b3887ff710df7cb9700c19ef7af1497d8e73ffffffffffffffffffffffffffffffffffffffff815416330361090557600090557febef2b212afb6c9cfdbd10b61834a8dc955e5fbf0aacd1c641d5cbdedf4022d0805433918290556040805173ffffffffffffffffffffffffffffffffffffffff909216825260208201929092527f8be0079c531659141344cd1fd0a4f28419497f9722a3daafe3b4186f6b6457e091819081015b0390a1005b60046040517f39218f3b000000000000000000000000000000000000000000000000000000008152fd5b503461000e5760407ffffffffffffffffffffffffffffffffffffffffffffffffffffffffffffffffc36011261000e576109676103af565b60243567ffffffffffffffff811161000e5761098790369060040161026a565b8051156103855761099d61052f9160209361195a565b6119c7565b503461000e5760007ffffffffffffffffffffffffffffffffffffffffffffffffffffffffffffffffc36011261000e5760207febef2b212afb6c9cfdbd10b61834a8dc955e5fbf0aacd1c641d5cbdedf4022d05473ffffffffffffffffffffffffffffffffffffffff60405191168152f35b503461000e5760207ffffffffffffffffffffffffffffffffffffffffffffffffffffffffffffffffc36011261000e57610a4c6103af565b73ffffffffffffffffffffffffffffffffffffffff80821615610abf577febef2b212afb6c9cfdbd10b61834a8dc955e5fbf0aacd1c641d5cbdedf4022d090815416610a955755005b60046040517fef34ca5c000000000000000000000000000000000000000000000000000000008152fd5b60046040517f6d187b28000000000000000000000000000000000000000000000000000000008152fd5b503461000e5760207ffffffffffffffffffffffffffffffffffffffffffffffffffffffffffffffffc36011261000e57610b216103af565b7febef2b212afb6c9cfdbd10b61834a8dc955e5fbf0aacd1c641d5cbdedf4022d0549073ffffffffffffffffffffffffffffffffffffffff808316908133036104bf5782168015610abf5714610abf577f4be222fb9f9e9f4aed563932b8b081b3887ff710df7cb9700c19ef7af1497d8e8190556040805173ffffffffffffffffffffffffffffffffffffffff93841681529290911660208301527f38d16b8cac22d99fc7c124b9cd0de2d3fa1faef420bfe791d8c362d765e22700919081908101610900565b5060607ffffffffffffffffffffffffffffffffffffffffffffffffffffffffffffffffc36011261000e5767ffffffffffffffff60243581811161000e57610c34903690600401610288565b91906044359180831161000e57602093610c5561052f943690600401610288565b6040519094919387820190811182821017610c7c575b604052600081526004359033611716565b610c84610120565b610c6b565b15610c9057565b60846040517f08c379a000000000000000000000000000000000000000000000000000000000815260206004820152602c60248201527f46756e6374696f6e206d7573742062652063616c6c6564207468726f7567682060448201527f64656c656761746563616c6c00000000000000000000000000000000000000006064820152fd5b15610d1b57565b60846040517f08c379a000000000000000000000000000000000000000000000000000000000815260206004820152602c60248201527f46756e6374696f6e206d7573742062652063616c6c6564207468726f7567682060448201527f6163746976652070726f787900000000000000000000000000000000000000006064820152fd5b9081602091031261000e575190565b506040513d6000823e3d90fd5b15610dc257565b60846040517f08c379a000000000000000000000000000000000000000000000000000000000815260206004820152602960248201527f45524331393637557067726164653a20756e737570706f727465642070726f7860448201527f6961626c655555494400000000000000000000000000000000000000000000006064820152fd5b90610e727f4910fdfa16fed3260ed0e7147f7cc6da11a60208b5b9406d12a635614ffd91435460ff1690565b15610e835750610e819061112a565b565b604051917f52d1902d00000000000000000000000000000000000000000000000000000000835260208360048173ffffffffffffffffffffffffffffffffffffffff85165afa60009381610f93575b50610f60576040517f08c379a000000000000000000000000000000000000000000000000000000000815260206004820152602e60248201527f45524331393637557067726164653a206e657720696d706c656d656e7461746960448201527f6f6e206973206e6f7420555550530000000000000000000000000000000000006064820152608490fd5b0390fd5b610f8e7f360894a13ba1a3210667c828492db98dca3e2076cc3735a920a3ca505d382bbc610e819414610dbb565b611216565b610fb591945060203d8111610fbc575b610fad81836101a9565b810190610d9f565b9238610ed2565b503d610fa3565b90610fef7f4910fdfa16fed3260ed0e7147f7cc6da11a60208b5b9406d12a635614ffd91435460ff1690565b15610ffe5750610e819061112a565b604051917f52d1902d00000000000000000000000000000000000000000000000000000000835260208360048173ffffffffffffffffffffffffffffffffffffffff85165afa6000938161110a575b506110d7576040517f08c379a000000000000000000000000000000000000000000000000000000000815260206004820152602e60248201527f45524331393637557067726164653a206e657720696d706c656d656e7461746960448201527f6f6e206973206e6f7420555550530000000000000000000000000000000000006064820152608490fd5b6111057f360894a13ba1a3210667c828492db98dca3e2076cc3735a920a3ca505d382bbc610e819414610dbb565b611327565b61112391945060203d8111610fbc57610fad81836101a9565b923861104d565b803b156111925773ffffffffffffffffffffffffffffffffffffffff7f360894a13ba1a3210667c828492db98dca3e2076cc3735a920a3ca505d382bbc91167fffffffffffffffffffffffff0000000000000000000000000000000000000000825416179055565b60846040517f08c379a000000000000000000000000000000000000000000000000000000000815260206004820152602d60248201527f455243313936373a206e657720696d706c656d656e746174696f6e206973206e60448201527f6f74206120636f6e7472616374000000000000000000000000000000000000006064820152fd5b61121f8161112a565b6040519060009073ffffffffffffffffffffffffffffffffffffffff81167fbc7cd75a20ee27fd9adebab32041f755214dbc6bffa90cc0225b39da2e5c2d3b8385a2835115801590611320575b611277575b50505050565b818061130d956112868661018d565b602786527f416464726573733a206c6f772d6c6576656c2064656c65676174652063616c6c60208701527f206661696c6564000000000000000000000000000000000000000000000000006040870152602081519101845af4903d15611317573d6112f0816101ea565b906112fe60405192836101a9565b8152809360203d92013e61142e565b5038808080611271565b6060925061142e565b508161126c565b6113308161112a565b6040519073ffffffffffffffffffffffffffffffffffffffff81167fbc7cd75a20ee27fd9adebab32041f755214dbc6bffa90cc0225b39da2e5c2d3b600084a2825115801590611426575b61138457505050565b60008061141b946113948561018d565b602785527f416464726573733a206c6f772d6c6576656c2064656c65676174652063616c6c60208601527f206661696c6564000000000000000000000000000000000000000000000000006040860152602081519101845af43d1561141e573d916113fe836101ea565b9261140c60405194856101a9565b83523d6000602085013e61142e565b50565b60609161142e565b50600161137b565b919290156114a95750815115611442575090565b3b1561144b5790565b60646040517f08c379a000000000000000000000000000000000000000000000000000000000815260206004820152601d60248201527f416464726573733a2063616c6c20746f206e6f6e2d636f6e74726163740000006044820152fd5b8251909150156114bc5750805190602001fd5b610f5c906040519182917f08c379a00000000000000000000000000000000000000000000000000000000083526020600484015260248301905b919082519283825260005b8481106115405750507fffffffffffffffffffffffffffffffffffffffffffffffffffffffffffffffe0601f8460006020809697860101520116010190565b602081830181015184830182015201611501565b601f82602094937fffffffffffffffffffffffffffffffffffffffffffffffffffffffffffffffe0938186528686013760008582860101520116010190565b939194929073ffffffffffffffffffffffffffffffffffffffff9097969716845260209485850152604084015260a060608401528160a08401527f07ffffffffffffffffffffffffffffffffffffffffffffffffffffffffffffff821161000e5784939295949160051b809160c088013785019460c0860190608060c0828903019101525260e084019360e08360051b82010194846000925b85841061163d575050505050505090565b909192939495967fffffffffffffffffffffffffffffffffffffffffffffffffffffffffffffff2082820301845287357fffffffffffffffffffffffffffffffffffffffffffffffffffffffffffffffe18436030181121561000e57830186810191903567ffffffffffffffff811161000e57803603831361000e576116c888928392600195611554565b99019401940192959493919061162c565b919061170f60409295949573ffffffffffffffffffffffffffffffffffffffff80931685526060602086015260608501906114f6565b9416910152565b9396959490929173ffffffffffffffffffffffffffffffffffffffff8560c66040517f6080604052348015600f57600080fd5b5060a88061001e6000396000f3fe608081527f6040526040517f5c60da1b0000000000000000000000000000000000000000006020820152788152600060016020826004857300000000000000000000000060408201527f000000000000000000000000000000000000000000000000000000000000000060601b60548201527f5afa0360705780513682833781823684845af490503d82833e808015606c573d60688201527f83f35b3d83fd5b00fea264697066735822122002f8a2f5acabeb1d754972351e60888201527fc784958a7f99e64f368c267a38bb375594c03c64736f6c63430008100033000060a88201526000f5169485156118fc578598863b1561000e577ffb896a1c46a5b12a7e44f5f16c83d1bb4d9598a3501f4eb920f2966e0def0523976000946118ad9260405197889687967ff4adeb750000000000000000000000000000000000000000000000000000000088523360048901611593565b038134875af180156118ef575b6118d6575b506118d16040519283923391846116d9565b0390a1565b806118e36118e992610150565b806104e9565b386118bf565b6118f7610dae565b6118ba565b60646040517f08c379a000000000000000000000000000000000000000000000000000000000815260206004820152600e60248201527f63726561746532206661696c65640000000000000000000000000000000000006044820152fd5b906119c16119959160405192839173ffffffffffffffffffffffffffffffffffffffff602084019616865260408084015260608301906114f6565b037fffffffffffffffffffffffffffffffffffffffffffffffffffffffffffffffe081018352826101a9565b51902090565b605560c661028592604051907f6080604052348015600f57600080fd5b5060a88061001e6000396000f3fe608082527f6040526040517f5c60da1b0000000000000000000000000000000000000000006020830152788152600060016020826004857300000000000000000000000060408301527f000000000000000000000000000000000000000000000000000000000000000060601b60548301527f5afa0360705780513682833781823684845af490503d82833e808015606c573d60688301527f83f35b3d83fd5b00fea264697066735822122002f8a2f5acabeb1d754972351e60888301527fc784958a7f99e64f368c267a38bb375594c03c64736f6c63430008100033ff0060a88301523060601b60c783015260db82015281812060fb820152012073ffffffffffffffffffffffffffffffffffffffff169056fea26469706673582212207777c6fc2a0ebecbe240ee783e01cb618360093568379d4ca81a0301c8868c5d64736f6c63430008100033",
  "devdoc": {
    "kind": "dev",
    "methods": {
      "proxiableUUID()": {
        "details": "Implementation of the ERC1822 {proxiableUUID} function. This returns the storage slot used by the implementation. It is used to validate the implementation's compatibility when performing an upgrade. IMPORTANT: A proxy pointing at a proxiable contract should not be considered proxiable itself, because this risks bricking a proxy that upgrades to it, by delegating to itself until out of gas. Thus it is critical that this function revert if invoked through a proxy. This is guaranteed by the `notDelegated` modifier."
      },
      "upgradeTo(address)": {
        "details": "Upgrade the implementation of the proxy to `newImplementation`. Calls {_authorizeUpgrade}. Emits an {Upgraded} event."
      },
      "upgradeToAndCall(address,bytes)": {
        "details": "Upgrade the implementation of the proxy to `newImplementation`, and subsequently execute the function call encoded in `data`. Calls {_authorizeUpgrade}. Emits an {Upgraded} event."
      }
    },
    "version": 1
  },
  "userdoc": {
    "kind": "user",
    "methods": {},
    "version": 1
  },
  "storageLayout": {
    "storage": [],
    "types": null
  }
}