{
  "address": "0xc3a77152e7C91109438fEc3962E778E2123Cb26e",
  "abi": [
    {
      "inputs": [
        {
          "internalType": "address",
          "name": "owner",
          "type": "address"
        },
        {
          "internalType": "address",
          "name": "factoryImplementation",
          "type": "address"
        }
      ],
      "stateMutability": "nonpayable",
      "type": "constructor"
    },
    {
      "inputs": [],
      "name": "factory",
      "outputs": [
        {
          "internalType": "address",
          "name": "",
          "type": "address"
        }
      ],
      "stateMutability": "view",
      "type": "function"
    }
  ],
  "transactionHash": "0x7e50b63750e4b5d17e0d84f9c77b62a155de90b5080f014dde3f817aa88ef33c",
  "args": [
    "0x277D98D33b7F44921d4230697DeF8d1D56aBAa62",
    "0x66fc62c1748E45435b06cF8dD105B73E9855F93E"
  ],
  "numDeployments": 1,
  "solcInputHash": "6d09fa0e7c4fcae67eb2b5b0c23fbfcc",
  "bytecode": "0x60a0346101315761032c906001600160401b03601f38849003908101601f19168301908282118483101761011b578084916040968794855283398101031261013157610056602061004f84610136565b9301610136565b9083519161011592838101938185108486111761011b5761021782396001600160a01b0391821684526000938190036020019084f080156101115781169384608052843b1561010d579060248492838851978894859363189acdbd60e31b85521660048401525af18015610103576100de575b835160cc908161014b823960805181606e0152f35b82116100ef575081523880806100c9565b634e487b7160e01b81526041600452602490fd5b84513d84823e3d90fd5b8380fd5b85513d85823e3d90fd5b634e487b7160e01b600052604160045260246000fd5b600080fd5b51906001600160a01b03821682036101315756fe6080806040526004361015601257600080fd5b600090813560e01c63c45a015514602857600080fd5b34609257817ffffffffffffffffffffffffffffffffffffffffffffffffffffffffffffffffc36011260925760209073ffffffffffffffffffffffffffffffffffffffff7f0000000000000000000000000000000000000000000000000000000000000000168152f35b5080fdfea2646970667358221220c15ed828a122ef102e733c0baf1f10268888e5f2bfcbead7fff9da20d0f3556664736f6c6343000810003360803461007f57601f61011538819003918201601f19168301916001600160401b038311848410176100845780849260209460405283398101031261007f57516001600160a01b038116810361007f577f360894a13ba1a3210667c828492db98dca3e2076cc3735a920a3ca505d382bbc55604051607a908161009b8239f35b600080fd5b634e487b7160e01b600052604160045260246000fdfe60806040527f360894a13ba1a3210667c828492db98dca3e2076cc3735a920a3ca505d382bbc546000808092368280378136915af43d82803e156040573d90f35b3d90fdfea2646970667358221220046a161a8425923cc58596cf54b20bbb46d2831a8f95750922f86f6ec33c285764736f6c63430008100033",
  "devdoc": {
    "kind": "dev",
    "methods": {},
    "version": 1
  },
  "userdoc": {
    "kind": "user",
    "methods": {},
    "version": 1
  },
  "storageLayout": {
    "storage": [],
    "types": null
  }
}