{
  "address": "0xb8D76a79B60449deda533B9eeE68a1efcCc9a04C",
  "abi": [
    {
      "inputs": [],
      "name": "InvalidArrayLength",
      "type": "error"
    },
    {
      "inputs": [],
      "name": "NotPermitted",
      "type": "error"
    },
    {
      "inputs": [],
      "name": "WithdrawFailed",
      "type": "error"
    },
    {
      "inputs": [],
      "name": "EXECUTOR_ROLE",
      "outputs": [
        {
          "internalType": "bytes32",
          "name": "",
          "type": "bytes32"
        }
      ],
      "stateMutability": "view",
      "type": "function"
    },
    {
      "inputs": [],
      "name": "MODULE_ROLE",
      "outputs": [
        {
          "internalType": "bytes32",
          "name": "",
          "type": "bytes32"
        }
      ],
      "stateMutability": "view",
      "type": "function"
    },
    {
      "inputs": [],
      "name": "OWNER_ROLE",
      "outputs": [
        {
          "internalType": "bytes32",
          "name": "",
          "type": "bytes32"
        }
      ],
      "stateMutability": "view",
      "type": "function"
    },
    {
      "inputs": [
        {
          "internalType": "bytes32",
          "name": "role",
          "type": "bytes32"
        },
        {
          "internalType": "address",
          "name": "account",
          "type": "address"
        }
      ],
      "name": "getPermission",
      "outputs": [
        {
          "internalType": "bool",
          "name": "",
          "type": "bool"
        }
      ],
      "stateMutability": "view",
      "type": "function"
    },
    {
      "inputs": [
        {
          "internalType": "address",
          "name": "",
          "type": "address"
        },
        {
          "internalType": "address",
          "name": "",
          "type": "address"
        },
        {
          "internalType": "uint256[]",
          "name": "",
          "type": "uint256[]"
        },
        {
          "internalType": "uint256[]",
          "name": "",
          "type": "uint256[]"
        },
        {
          "internalType": "bytes",
          "name": "",
          "type": "bytes"
        }
      ],
      "name": "onERC1155BatchReceived",
      "outputs": [
        {
          "internalType": "bytes4",
          "name": "",
          "type": "bytes4"
        }
      ],
      "stateMutability": "nonpayable",
      "type": "function"
    },
    {
      "inputs": [
        {
          "internalType": "address",
          "name": "",
          "type": "address"
        },
        {
          "internalType": "address",
          "name": "",
          "type": "address"
        },
        {
          "internalType": "uint256",
          "name": "",
          "type": "uint256"
        },
        {
          "internalType": "uint256",
          "name": "",
          "type": "uint256"
        },
        {
          "internalType": "bytes",
          "name": "",
          "type": "bytes"
        }
      ],
      "name": "onERC1155Received",
      "outputs": [
        {
          "internalType": "bytes4",
          "name": "",
          "type": "bytes4"
        }
      ],
      "stateMutability": "nonpayable",
      "type": "function"
    },
    {
      "inputs": [
        {
          "internalType": "address",
          "name": "",
          "type": "address"
        },
        {
          "internalType": "address",
          "name": "",
          "type": "address"
        },
        {
          "internalType": "uint256",
          "name": "",
          "type": "uint256"
        },
        {
          "internalType": "bytes",
          "name": "",
          "type": "bytes"
        }
      ],
      "name": "onERC721Received",
      "outputs": [
        {
          "internalType": "bytes4",
          "name": "",
          "type": "bytes4"
        }
      ],
      "stateMutability": "nonpayable",
      "type": "function"
    },
    {
      "inputs": [
        {
          "components": [
            {
              "internalType": "enum MinimalWallet.Protocol",
              "name": "protocol",
              "type": "uint8"
            },
            {
              "internalType": "address",
              "name": "token",
              "type": "address"
            },
            {
              "internalType": "address[]",
              "name": "operators",
              "type": "address[]"
            }
          ],
          "internalType": "struct MinimalWallet.ApprovalNote[]",
          "name": "notes",
          "type": "tuple[]"
        }
      ],
      "name": "revokeApprovals",
      "outputs": [],
      "stateMutability": "nonpayable",
      "type": "function"
    },
    {
      "inputs": [
        {
          "internalType": "contract IERC1155",
          "name": "erc1155",
          "type": "address"
        },
        {
          "internalType": "address[]",
          "name": "operators",
          "type": "address[]"
        }
      ],
      "name": "revokeERC1155Approvals",
      "outputs": [],
      "stateMutability": "nonpayable",
      "type": "function"
    },
    {
      "inputs": [
        {
          "internalType": "contract IERC20",
          "name": "erc20",
          "type": "address"
        },
        {
          "internalType": "address[]",
          "name": "operators",
          "type": "address[]"
        }
      ],
      "name": "revokeERC20Approvals",
      "outputs": [],
      "stateMutability": "nonpayable",
      "type": "function"
    },
    {
      "inputs": [
        {
          "internalType": "contract IERC721",
          "name": "erc721",
          "type": "address"
        },
        {
          "internalType": "address[]",
          "name": "operators",
          "type": "address[]"
        }
      ],
      "name": "revokeERC721Approvals",
      "outputs": [],
      "stateMutability": "nonpayable",
      "type": "function"
    },
    {
      "inputs": [
        {
          "internalType": "bytes4",
          "name": "interfaceId",
          "type": "bytes4"
        }
      ],
      "name": "supportsInterface",
      "outputs": [
        {
          "internalType": "bool",
          "name": "",
          "type": "bool"
        }
      ],
      "stateMutability": "view",
      "type": "function"
    },
    {
      "inputs": [
        {
          "components": [
            {
              "internalType": "enum MinimalWallet.Protocol",
              "name": "protocol",
              "type": "uint8"
            },
            {
              "internalType": "address",
              "name": "token",
              "type": "address"
            },
            {
              "internalType": "uint256[]",
              "name": "ids",
              "type": "uint256[]"
            },
            {
              "internalType": "uint256[]",
              "name": "amounts",
              "type": "uint256[]"
            }
          ],
          "internalType": "struct MinimalWallet.TransferNote[]",
          "name": "notes",
          "type": "tuple[]"
        }
      ],
      "name": "withdraw",
      "outputs": [],
      "stateMutability": "nonpayable",
      "type": "function"
    },
    {
      "inputs": [
        {
          "internalType": "contract IERC1155",
          "name": "erc1155",
          "type": "address"
        },
        {
          "internalType": "uint256[]",
          "name": "ids",
          "type": "uint256[]"
        },
        {
          "internalType": "uint256[]",
          "name": "amounts",
          "type": "uint256[]"
        }
      ],
      "name": "withdrawERC1155s",
      "outputs": [],
      "stateMutability": "nonpayable",
      "type": "function"
    },
    {
      "inputs": [
        {
          "internalType": "contract IERC20[]",
          "name": "erc20s",
          "type": "address[]"
        },
        {
          "internalType": "uint256[]",
          "name": "amounts",
          "type": "uint256[]"
        }
      ],
      "name": "withdrawERC20s",
      "outputs": [],
      "stateMutability": "nonpayable",
      "type": "function"
    },
    {
      "inputs": [
        {
          "internalType": "contract IERC721",
          "name": "erc721",
          "type": "address"
        },
        {
          "internalType": "uint256[]",
          "name": "ids",
          "type": "uint256[]"
        }
      ],
      "name": "withdrawERC721s",
      "outputs": [],
      "stateMutability": "nonpayable",
      "type": "function"
    },
    {
      "inputs": [
        {
          "internalType": "uint256",
          "name": "amount",
          "type": "uint256"
        }
      ],
      "name": "withdrawETH",
      "outputs": [],
      "stateMutability": "nonpayable",
      "type": "function"
    },
    {
      "stateMutability": "payable",
      "type": "receive"
    }
  ],
  "transactionHash": "0xd8856475b1c18e6126c37678a8d87f7c4d573743da02cd16943847414bd9705d",
  "args": [],
  "numDeployments": 1,
  "solcInputHash": "6d09fa0e7c4fcae67eb2b5b0c23fbfcc",
  "bytecode": "0x60808060405234610016576119bb908161001c8239f35b600080fdfe6080604081815260049182361015610022575b505050361561002057600080fd5b005b600090813560e01c90816301ffc9a714610f355750806307bd026514610edc5780630fe786e114610e47578063150b7a0214610dbb57806331b455a514610cef57806356255c5314610c8157806360d6c7cf14610c085780638a2685a914610aa3578063a4508b1f1461099a578063a6b520c014610941578063bc197c8114610884578063dedd65241461057d578063e1084a1314610313578063e58378bb146102b6578063e5cb370314610221578063f14210a6146101745763f23a6e610361001257346101715760a07ffffffffffffffffffffffffffffffffffffffffffffffffffffffffffffffffc3601126101715761011d610ff2565b5061012661104b565b506084359067ffffffffffffffff8211610171575060209261014a91369101611185565b50517ff23a6e61000000000000000000000000000000000000000000000000000000008152f35b80fd5b50913461021d5760207ffffffffffffffffffffffffffffffffffffffffffffffffffffffffffffffffc36011261021d57815160208101907f3fbe42dcb277543d3741131fe04ce9fb205e3b7154603a23a25efd63ed2c9e1b825233848201528381526101e0816110da565b51902054156101f6576101f390356113a5565b51f35b90517f39218f3b000000000000000000000000000000000000000000000000000000008152fd5b8280fd5b50913461021d57610231366111cc565b909192845160208101907f3fbe42dcb277543d3741131fe04ce9fb205e3b7154603a23a25efd63ed2c9e1b8252338782015286815261026f816110da565b519020541561028f57506101f3929161028991369161131f565b906118de565b84517f39218f3b000000000000000000000000000000000000000000000000000000008152fd5b50903461030f57817ffffffffffffffffffffffffffffffffffffffffffffffffffffffffffffffffc36011261030f57602090517f3fbe42dcb277543d3741131fe04ce9fb205e3b7154603a23a25efd63ed2c9e1b8152f35b5080fd5b50913461021d576020807ffffffffffffffffffffffffffffffffffffffffffffffffffffffffffffffffc3601126105795767ffffffffffffffff823581811161057557610364903690850161101a565b92908551828101907f3fbe42dcb277543d3741131fe04ce9fb205e3b7154603a23a25efd63ed2c9e1b825233888201528781526103a0816110da565b519020541561054d579085929183516103b8816110da565b888152888382015260609485910152875b8581106103d557888851f35b8060051b8201357fffffffffffffffffffffffffffffffffffffffffffffffffffffffffffffffa18336030181121561054957820190858236031261054957885191610420836110da565b80358981101561054157835261043785820161106e565b908584019182528a81013590878211610545570136601f8201121561054157610466903690878135910161131f565b928a8101938452519289841015610515576001938085036104ab575073ffffffffffffffffffffffffffffffffffffffff6104a5925116905190611853565b016103c9565b600281036104dc575073ffffffffffffffffffffffffffffffffffffffff6104d79251169051906118de565b6104a5565b6003146104eb575b50506104a5565b73ffffffffffffffffffffffffffffffffffffffff61050e9251169051906118de565b38806104e4565b60248c60218c7f4e487b7100000000000000000000000000000000000000000000000000000000835252fd5b8b80fd5b8c80fd5b8980fd5b8486517f39218f3b000000000000000000000000000000000000000000000000000000008152fd5b8580fd5b8380fd5b50913461021d57602090817ffffffffffffffffffffffffffffffffffffffffffffffffffffffffffffffffc3601126105795767ffffffffffffffff8135818111610575576105cf903690840161101a565b9390918551828101907f3fbe42dcb277543d3741131fe04ce9fb205e3b7154603a23a25efd63ed2c9e1b8252338882015287815261060c816110da565b519020541561085c578551926106218461108f565b878452878385015260608085818a819801520152875b86811061064357888851f35b8060051b8201357fffffffffffffffffffffffffffffffffffffffffffffffffffffffffffffff81833603018112156105495782016080813603126105495788519061068e8261108f565b8035888110156105415782526106a586820161106e565b8683019081528a820135868111610545576106c390369084016112a1565b918b84019283528881013590878211610858576106e2913691016112a1565b9288810193845251918983101561082c578261074857505050516001815103610720579061071a6107146001936112bf565b516113a5565b01610637565b8689517f9d89020a000000000000000000000000000000000000000000000000000000008152fd5b60019391928085036107bb5750505191825103610793576001929161078773ffffffffffffffffffffffffffffffffffffffff61078e935116916112bf565b51906113eb565b61071a565b878a517f9d89020a000000000000000000000000000000000000000000000000000000008152fd5b600195945090929190600281036107f057505073ffffffffffffffffffffffffffffffffffffffff61078e9251915116611693565b600314610800575b50505061071a565b73ffffffffffffffffffffffffffffffffffffffff6108249351915192511661177b565b3880806107f8565b60248d60218c7f4e487b7100000000000000000000000000000000000000000000000000000000835252fd5b8d80fd5b8386517f39218f3b000000000000000000000000000000000000000000000000000000008152fd5b50346101715760a07ffffffffffffffffffffffffffffffffffffffffffffffffffffffffffffffffc360112610171576108bc610ff2565b506108c561104b565b5067ffffffffffffffff9060443582811161030f576108e790369086016112a1565b5060643582811161030f576108ff90369086016112a1565b50608435918211610171575060209261091a91369101611185565b50517fbc197c81000000000000000000000000000000000000000000000000000000008152f35b50903461030f57817ffffffffffffffffffffffffffffffffffffffffffffffffffffffffffffffffc36011261030f57602090517fc3757b2598fc76eee6f032de6e0c1a33b52273c8afc630e889b8d170f8a26b1a8152f35b50913461021d5760607ffffffffffffffffffffffffffffffffffffffffffffffffffffffffffffffffc36011261021d576109d3610ff2565b9067ffffffffffffffff90602435828111610575576109f5903690830161101a565b92604435908111610a9f57610a0d903690840161101a565b939092865160208101907f3fbe42dcb277543d3741131fe04ce9fb205e3b7154603a23a25efd63ed2c9e1b82523389820152888152610a4b816110da565b5190205415610a78575091610a6a610a72926101f39695943691611253565b923691611253565b9161177b565b86517f39218f3b000000000000000000000000000000000000000000000000000000008152fd5b8680fd5b50913461021d57817ffffffffffffffffffffffffffffffffffffffffffffffffffffffffffffffffc36011261021d5767ffffffffffffffff908035828111610c0457610af3903690830161101a565b91909260243590811161057557610b0d903690830161101a565b929091855160208101907f3fbe42dcb277543d3741131fe04ce9fb205e3b7154603a23a25efd63ed2c9e1b82523388820152878152610b4b816110da565b5190205415610bdd57818403610bb65750855b818110610b6a57868651f35b610b7581838761130f565b359073ffffffffffffffffffffffffffffffffffffffff82168203610bb257610bac600192610ba583888861130f565b35906113eb565b01610b5e565b8780fd5b85517f9d89020a000000000000000000000000000000000000000000000000000000008152fd5b85517f39218f3b000000000000000000000000000000000000000000000000000000008152fd5b8480fd5b50913461021d57817ffffffffffffffffffffffffffffffffffffffffffffffffffffffffffffffffc36011261021d5760209250610c4461104b565b73ffffffffffffffffffffffffffffffffffffffff835191858301933584521683820152828152610c74816110da565b5190205490519015158152f35b50913461021d57610c91366111cc565b909192845160208101907f3fbe42dcb277543d3741131fe04ce9fb205e3b7154603a23a25efd63ed2c9e1b82523387820152868152610ccf816110da565b519020541561028f57506101f39291610ce9913691611253565b90611693565b50913461021d57817ffffffffffffffffffffffffffffffffffffffffffffffffffffffffffffffffc36011261021d5780359073ffffffffffffffffffffffffffffffffffffffff821682036105795760243567ffffffffffffffff8111610c0457610d5e903690830161101a565b9091845160208101907f3fbe42dcb277543d3741131fe04ce9fb205e3b7154603a23a25efd63ed2c9e1b82523387820152868152610d9b816110da565b519020541561028f57506101f39291610db591369161131f565b90611853565b50346101715760807ffffffffffffffffffffffffffffffffffffffffffffffffffffffffffffffffc36011261017157610df3610ff2565b50610dfc61104b565b506064359067ffffffffffffffff82116101715750602092610e2091369101611185565b50517f150b7a02000000000000000000000000000000000000000000000000000000008152f35b50913461021d57817ffffffffffffffffffffffffffffffffffffffffffffffffffffffffffffffffc36011261021d57610e7f610ff2565b9060243567ffffffffffffffff8111610c0457610e9f903690830161101a565b9091845160208101907f3fbe42dcb277543d3741131fe04ce9fb205e3b7154603a23a25efd63ed2c9e1b8252338782015286815261026f816110da565b50903461030f57817ffffffffffffffffffffffffffffffffffffffffffffffffffffffffffffffffc36011261030f57602090517fd931ed5eea9427443091b211e417e6f83bd1d1a5235f4e7adbb05b556120802f8152f35b9050833461021d5760207ffffffffffffffffffffffffffffffffffffffffffffffffffffffffffffffffc36011261021d57357fffffffff00000000000000000000000000000000000000000000000000000000811680910361021d57602092507f4e2312e0000000000000000000000000000000000000000000000000000000008114908115610fc8575b5015158152f35b7f01ffc9a70000000000000000000000000000000000000000000000000000000091501483610fc1565b6004359073ffffffffffffffffffffffffffffffffffffffff8216820361101557565b600080fd5b9181601f840112156110155782359167ffffffffffffffff8311611015576020808501948460051b01011161101557565b6024359073ffffffffffffffffffffffffffffffffffffffff8216820361101557565b359073ffffffffffffffffffffffffffffffffffffffff8216820361101557565b6080810190811067ffffffffffffffff8211176110ab57604052565b7f4e487b7100000000000000000000000000000000000000000000000000000000600052604160045260246000fd5b6060810190811067ffffffffffffffff8211176110ab57604052565b67ffffffffffffffff81116110ab57604052565b90601f7fffffffffffffffffffffffffffffffffffffffffffffffffffffffffffffffe0910116810190811067ffffffffffffffff8211176110ab57604052565b67ffffffffffffffff81116110ab57601f017fffffffffffffffffffffffffffffffffffffffffffffffffffffffffffffffe01660200190565b81601f820112156110155780359061119c8261114b565b926111aa604051948561110a565b8284526020838301011161101557816000926020809301838601378301015290565b9060407ffffffffffffffffffffffffffffffffffffffffffffffffffffffffffffffffc8301126110155760043573ffffffffffffffffffffffffffffffffffffffff8116810361101557916024359067ffffffffffffffff8211611015576112379160040161101a565b9091565b67ffffffffffffffff81116110ab5760051b60200190565b929161125e8261123b565b9161126c604051938461110a565b829481845260208094019160051b810192831161101557905b8282106112925750505050565b81358152908301908301611285565b9080601f83011215611015578160206112bc93359101611253565b90565b8051156112cc5760200190565b7f4e487b7100000000000000000000000000000000000000000000000000000000600052603260045260246000fd5b80518210156112cc5760209160051b010190565b91908110156112cc5760051b0190565b929161132a8261123b565b91611338604051938461110a565b829481845260208094019160051b810192831161101557905b82821061135e5750505050565b83809161136a8461106e565b815201910190611351565b3d156113a0573d906113868261114b565b91611394604051938461110a565b82523d6000602084013e565b606090565b600080809260405190335af16113b9611375565b50156113c157565b60046040517f750b219c000000000000000000000000000000000000000000000000000000008152fd5b9061143791604051917fa9059cbb0000000000000000000000000000000000000000000000000000000060208401523360248401526044830152604482526114328261108f565b611439565b565b73ffffffffffffffffffffffffffffffffffffffff1690604051604081019080821067ffffffffffffffff8311176110ab576114b9916040526020938482527f5361666545524332303a206c6f772d6c6576656c2063616c6c206661696c6564858301526000808587829751910182855af16114b3611375565b91611571565b8051806114c7575b50505050565b8184918101031261030f578201519081159182150361017157506114ed578080806114c1565b608490604051907f08c379a00000000000000000000000000000000000000000000000000000000082526004820152602a60248201527f5361666545524332303a204552433230206f7065726174696f6e20646964206e60448201527f6f742073756363656564000000000000000000000000000000000000000000006064820152fd5b919290156115ec5750815115611585575090565b3b1561158e5790565b60646040517f08c379a000000000000000000000000000000000000000000000000000000000815260206004820152601d60248201527f416464726573733a2063616c6c20746f206e6f6e2d636f6e74726163740000006044820152fd5b8251909150156115ff5750805190602001fd5b604051907f08c379a000000000000000000000000000000000000000000000000000000000825281602080600483015282519283602484015260005b84811061167c575050507fffffffffffffffffffffffffffffffffffffffffffffffffffffffffffffffe0601f836000604480968601015201168101030190fd5b81810183015186820160440152859350820161163b565b81519060005b8281106116a65750505050565b73ffffffffffffffffffffffffffffffffffffffff82166116c782866112fb565b51813b1561101557600080926064604093845195869384927f42842e0e00000000000000000000000000000000000000000000000000000000845230600485015233602485015260448401525af190811561173d5750906001929161172e575b5001611699565b611737906110f6565b38611727565b513d6000823e3d90fd5b90815180825260208080930193019160005b828110611767575050505090565b835185529381019392810192600101611759565b73ffffffffffffffffffffffffffffffffffffffff1691823b1561101557611821926000928360206117f0948260405198899788967f2eb2c2d600000000000000000000000000000000000000000000000000000000885230600489015233602489015260a0604489015260a4880190611747565b7ffffffffffffffffffffffffffffffffffffffffffffffffffffffffffffffffc9384888303016064890152611747565b85810392830160848701525201925af180156118475761183e5750565b611437906110f6565b6040513d6000823e3d90fd5b90805191600091825b84811061186a575050505050565b806118d873ffffffffffffffffffffffffffffffffffffffff61188f600194866112fb565b5116604051907f095ea7b300000000000000000000000000000000000000000000000000000000602083015260248201526044878183015281526118d28161108f565b85611439565b0161185c565b81519060005b8281106118f15750505050565b73ffffffffffffffffffffffffffffffffffffffff8083169061191483876112fb565b5116813b1561101557600080926044604093845195869384927fa22cb46500000000000000000000000000000000000000000000000000000000845260048401528160248401525af190811561173d57509060019291611976575b50016118e4565b61197f906110f6565b3861196f56fea26469706673582212203f779f58fb8b4b7a79bb4189327c09725b7d991511fe9eb1080aadebb456f63a64736f6c63430008100033",
  "devdoc": {
    "kind": "dev",
    "methods": {
      "onERC721Received(address,address,uint256,bytes)": {
        "details": "See {IERC721Receiver-onERC721Received}. Always returns `IERC721Receiver.onERC721Received.selector`."
      },
      "supportsInterface(bytes4)": {
        "details": "See {IERC165-supportsInterface}."
      }
    },
    "version": 1
  },
  "userdoc": {
    "kind": "user",
    "methods": {},
    "version": 1
  },
  "storageLayout": {
    "storage": [],
    "types": null
  }
}