{
  "address": "0x5b022fC123825299Ac0b48b29477b5af4314014D",
  "abi": [
    {
      "inputs": [],
      "name": "VERSION",
      "outputs": [
        {
          "internalType": "uint256",
          "name": "",
          "type": "uint256"
        }
      ],
      "stateMutability": "view",
      "type": "function"
    },
    {
      "inputs": [
        {
          "internalType": "bytes32",
          "name": "input",
          "type": "bytes32"
        }
      ],
      "name": "bytes32ToAddress",
      "outputs": [
        {
          "internalType": "address",
          "name": "",
          "type": "address"
        }
      ],
      "stateMutability": "pure",
      "type": "function"
    },
    {
      "inputs": [
        {
          "internalType": "bytes32",
          "name": "input",
          "type": "bytes32"
        }
      ],
      "name": "bytes32ToUint256",
      "outputs": [
        {
          "internalType": "uint256",
          "name": "",
          "type": "uint256"
        }
      ],
      "stateMutability": "pure",
      "type": "function"
    },
    {
      "inputs": [
        {
          "internalType": "bytes",
          "name": "input",
          "type": "bytes"
        }
      ],
      "name": "bytesToString",
      "outputs": [
        {
          "internalType": "string",
          "name": "",
          "type": "string"
        }
      ],
      "stateMutability": "pure",
      "type": "function"
    },
    {
      "inputs": [
        {
          "internalType": "address",
          "name": "balanceAddress",
          "type": "address"
        }
      ],
      "name": "getBalance",
      "outputs": [
        {
          "internalType": "uint256",
          "name": "balance",
          "type": "uint256"
        }
      ],
      "stateMutability": "view",
      "type": "function"
    },
    {
      "inputs": [],
      "name": "getBlockTimestamp",
      "outputs": [
        {
          "internalType": "uint256",
          "name": "timestamp",
          "type": "uint256"
        }
      ],
      "stateMutability": "view",
      "type": "function"
    },
    {
      "inputs": [
        {
          "internalType": "int256",
          "name": "value",
          "type": "int256"
        }
      ],
      "name": "int256ToUint256",
      "outputs": [
        {
          "internalType": "uint256",
          "name": "",
          "type": "uint256"
        }
      ],
      "stateMutability": "pure",
      "type": "function"
    },
    {
      "inputs": [
        {
          "internalType": "address",
          "name": "a",
          "type": "address"
        },
        {
          "internalType": "address",
          "name": "b",
          "type": "address"
        }
      ],
      "name": "isAddressEqual",
      "outputs": [
        {
          "internalType": "bool",
          "name": "",
          "type": "bool"
        }
      ],
      "stateMutability": "pure",
      "type": "function"
    },
    {
      "inputs": [
        {
          "internalType": "uint256",
          "name": "a",
          "type": "uint256"
        },
        {
          "internalType": "uint256",
          "name": "b",
          "type": "uint256"
        }
      ],
      "name": "isEqual",
      "outputs": [
        {
          "internalType": "bool",
          "name": "",
          "type": "bool"
        }
      ],
      "stateMutability": "pure",
      "type": "function"
    },
    {
      "inputs": [
        {
          "internalType": "uint256",
          "name": "a",
          "type": "uint256"
        },
        {
          "internalType": "uint256",
          "name": "b",
          "type": "uint256"
        }
      ],
      "name": "isEqualOrGreaterThan",
      "outputs": [
        {
          "internalType": "bool",
          "name": "",
          "type": "bool"
        }
      ],
      "stateMutability": "pure",
      "type": "function"
    },
    {
      "inputs": [
        {
          "internalType": "uint256",
          "name": "a",
          "type": "uint256"
        },
        {
          "internalType": "uint256",
          "name": "b",
          "type": "uint256"
        }
      ],
      "name": "isEqualOrLessThan",
      "outputs": [
        {
          "internalType": "bool",
          "name": "",
          "type": "bool"
        }
      ],
      "stateMutability": "pure",
      "type": "function"
    },
    {
      "inputs": [
        {
          "internalType": "uint256",
          "name": "a",
          "type": "uint256"
        },
        {
          "internalType": "uint256",
          "name": "b",
          "type": "uint256"
        }
      ],
      "name": "isGreaterThan",
      "outputs": [
        {
          "internalType": "bool",
          "name": "",
          "type": "bool"
        }
      ],
      "stateMutability": "pure",
      "type": "function"
    },
    {
      "inputs": [
        {
          "internalType": "uint256",
          "name": "a",
          "type": "uint256"
        },
        {
          "internalType": "uint256",
          "name": "b",
          "type": "uint256"
        }
      ],
      "name": "isLessThan",
      "outputs": [
        {
          "internalType": "bool",
          "name": "",
          "type": "bool"
        }
      ],
      "stateMutability": "pure",
      "type": "function"
    },
    {
      "inputs": [
        {
          "internalType": "bool",
          "name": "condition",
          "type": "bool"
        }
      ],
      "name": "not",
      "outputs": [
        {
          "internalType": "bool",
          "name": "",
          "type": "bool"
        }
      ],
      "stateMutability": "pure",
      "type": "function"
    },
    {
      "inputs": [
        {
          "internalType": "bool",
          "name": "condition",
          "type": "bool"
        },
        {
          "internalType": "uint256",
          "name": "a",
          "type": "uint256"
        },
        {
          "internalType": "uint256",
          "name": "b",
          "type": "uint256"
        }
      ],
      "name": "toggle",
      "outputs": [
        {
          "internalType": "uint256",
          "name": "",
          "type": "uint256"
        }
      ],
      "stateMutability": "pure",
      "type": "function"
    },
    {
      "inputs": [
        {
          "internalType": "uint256",
          "name": "value",
          "type": "uint256"
        }
      ],
      "name": "uint256ToInt256",
      "outputs": [
        {
          "internalType": "int256",
          "name": "",
          "type": "int256"
        }
      ],
      "stateMutability": "pure",
      "type": "function"
    }
  ],
  "transactionHash": "0xdad275988dcdb15edc31a113f229ac86bb20aaf8f5e64a6531b7f3ef3a1ade72",
  "args": [],
  "numDeployments": 2,
  "solcInputHash": "99e5ec2fca31f3a2b0fc5b66a6a885cb",
  "bytecode": "0x608060405234801561001057600080fd5b5061060f806100206000396000f3fe608060405234801561001057600080fd5b50600436106101005760003560e01c8063b0ad3a5f11610097578063e9970b6c11610066578063e9970b6c14610227578063f158392614610239578063f8b2cb4f14610265578063ffa1ad741461028d57600080fd5b8063b0ad3a5f146101e2578063ba5f9e81146101f4578063dcf6a59214610207578063ddcd52201461021957600080fd5b80635ced058e116100d35780635ced058e146101805780636e7a43a3146101b6578063796b89b9146101c9578063b004cd0d146101cf57600080fd5b8063294dc2231461010557806339614e4f1461012b5780633ced224a1461014b578063503971021461016d575b600080fd5b6101186101133660046103db565b610295565b6040519081526020015b60405180910390f35b61013e6101393660046103f4565b61030a565b6040516101229190610466565b61015d6101593660046104d2565b1490565b6040519015158152602001610122565b61015d61017b3660046104d2565b101590565b61019161018e3660046103db565b90565b60405173ffffffffffffffffffffffffffffffffffffffff9091168152602001610122565b61015d6101c43660046104d2565b111590565b42610118565b6101186101dd3660046103db565b610336565b61015d6101f0366004610509565b1590565b610118610202366004610524565b6103c2565b61015d6102153660046104d2565b1090565b61011861018e3660046103db565b61015d6102353660046104d2565b1190565b61015d61024736600461057b565b73ffffffffffffffffffffffffffffffffffffffff90811691161490565b6101186102733660046105ae565b73ffffffffffffffffffffffffffffffffffffffff163190565b610118600281565b600080821215610306576040517f08c379a000000000000000000000000000000000000000000000000000000000815260206004820152601660248201527f56616c7565206d75737420626520706f7369746976650000000000000000000060448201526064015b60405180910390fd5b5090565b6060828260405160200161031f9291906105c9565b604051602081830303815290604052905092915050565b60007f7fffffffffffffffffffffffffffffffffffffffffffffffffffffffffffffff821115610306576040517f08c379a000000000000000000000000000000000000000000000000000000000815260206004820152601f60248201527f56616c756520646f6573206e6f742066697420696e20616e20696e743235360060448201526064016102fd565b600083156103d15750816103d4565b50805b9392505050565b6000602082840312156103ed57600080fd5b5035919050565b6000806020838503121561040757600080fd5b823567ffffffffffffffff8082111561041f57600080fd5b818501915085601f83011261043357600080fd5b81358181111561044257600080fd5b86602082850101111561045457600080fd5b60209290920196919550909350505050565b600060208083528351808285015260005b8181101561049357858101830151858201604001528201610477565b5060006040828601015260407fffffffffffffffffffffffffffffffffffffffffffffffffffffffffffffffe0601f8301168501019250505092915050565b600080604083850312156104e557600080fd5b50508035926020909101359150565b8035801515811461050457600080fd5b919050565b60006020828403121561051b57600080fd5b6103d4826104f4565b60008060006060848603121561053957600080fd5b610542846104f4565b95602085013595506040909401359392505050565b803573ffffffffffffffffffffffffffffffffffffffff8116811461050457600080fd5b6000806040838503121561058e57600080fd5b61059783610557565b91506105a560208401610557565b90509250929050565b6000602082840312156105c057600080fd5b6103d482610557565b818382376000910190815291905056fea2646970667358221220b88e8f69e2c1b2f2216efaf432a2638f5b244514e0b4461b5be75ce04854bbcf64736f6c63430008100033",
  "devdoc": {
    "details": "SignedMathHelpers contract is recommended to use only in Shortcuts passed to EnsoWallet. This contract functions allow to dynamically get the data during Shortcut transaction execution that usually would be read between transactions",
    "kind": "dev",
    "methods": {
      "bytes32ToAddress(bytes32)": {
        "details": "Returns `input` bytes32 as address."
      },
      "bytes32ToUint256(bytes32)": {
        "details": "Returns `input` bytes32 as uint256."
      },
      "bytesToString(bytes)": {
        "details": "Returns `input` bytes as string."
      },
      "getBalance(address)": {
        "details": "Returns the ether balance of given `balanceAdderess`."
      },
      "getBlockTimestamp()": {
        "details": "Returns the current block timestamp."
      },
      "int256ToUint256(int256)": {
        "details": "Returns int256 `value` as uint256."
      },
      "isAddressEqual(address,address)": {
        "details": "Returns bool for a == b"
      },
      "isEqual(uint256,uint256)": {
        "details": "Returns bool for a == b"
      },
      "isEqualOrGreaterThan(uint256,uint256)": {
        "details": "Returns bool for a >= b"
      },
      "isEqualOrLessThan(uint256,uint256)": {
        "details": "Returns bool for a <= b"
      },
      "isGreaterThan(uint256,uint256)": {
        "details": "Returns bool for a > b"
      },
      "isLessThan(uint256,uint256)": {
        "details": "Returns bool for a < b"
      },
      "not(bool)": {
        "details": "Returns the inverse bool"
      },
      "toggle(bool,uint256,uint256)": {
        "details": "Returns a value depending on a truth condition"
      },
      "uint256ToInt256(uint256)": {
        "details": "Returns uint256 `value` as int256."
      }
    },
    "version": 1
  },
  "userdoc": {
    "kind": "user",
    "methods": {},
    "version": 1
  },
  "storageLayout": {
    "storage": [],
    "types": null
  }
}