{
  "address": "0xEB3Ae33373ead1022BB4E6a4d308cC6f79f3e925",
  "abi": [
    {
      "inputs": [
        {
          "internalType": "address",
          "name": "coreImplementation_",
          "type": "address"
        },
        {
          "internalType": "address",
          "name": "fallbackImplementation_",
          "type": "address"
        }
      ],
      "stateMutability": "nonpayable",
      "type": "constructor"
    },
    {
      "inputs": [],
      "name": "InvalidAccount",
      "type": "error"
    },
    {
      "inputs": [],
      "name": "InvalidImplementation",
      "type": "error"
    },
    {
      "inputs": [],
      "name": "NoPendingUpgrade",
      "type": "error"
    },
    {
      "inputs": [],
      "name": "NotPermitted",
      "type": "error"
    },
    {
      "inputs": [],
      "name": "Wait",
      "type": "error"
    },
    {
      "anonymous": false,
      "inputs": [
        {
          "indexed": false,
          "internalType": "address",
          "name": "previousAdmin",
          "type": "address"
        },
        {
          "indexed": false,
          "internalType": "address",
          "name": "newAdmin",
          "type": "address"
        }
      ],
      "name": "AdministrationTransferStarted",
      "type": "event"
    },
    {
      "anonymous": false,
      "inputs": [
        {
          "indexed": false,
          "internalType": "address",
          "name": "previousAdmin",
          "type": "address"
        },
        {
          "indexed": false,
          "internalType": "address",
          "name": "newAdmin",
          "type": "address"
        }
      ],
      "name": "AdministrationTransferred",
      "type": "event"
    },
    {
      "anonymous": false,
      "inputs": [
        {
          "indexed": false,
          "internalType": "address",
          "name": "previousImplementation",
          "type": "address"
        },
        {
          "indexed": false,
          "internalType": "address",
          "name": "newImplementation",
          "type": "address"
        }
      ],
      "name": "CoreUpgraded",
      "type": "event"
    },
    {
      "anonymous": false,
      "inputs": [
        {
          "indexed": false,
          "internalType": "uint256",
          "name": "newDelay",
          "type": "uint256"
        }
      ],
      "name": "Delay",
      "type": "event"
    },
    {
      "anonymous": false,
      "inputs": [
        {
          "indexed": false,
          "internalType": "address",
          "name": "previousDelegate",
          "type": "address"
        },
        {
          "indexed": false,
          "internalType": "address",
          "name": "newDelegate",
          "type": "address"
        }
      ],
      "name": "DelegationTransferStarted",
      "type": "event"
    },
    {
      "anonymous": false,
      "inputs": [
        {
          "indexed": false,
          "internalType": "address",
          "name": "previousDelegate",
          "type": "address"
        },
        {
          "indexed": false,
          "internalType": "address",
          "name": "newDelegate",
          "type": "address"
        }
      ],
      "name": "DelegationTransferred",
      "type": "event"
    },
    {
      "anonymous": false,
      "inputs": [],
      "name": "EmergencyUpgrade",
      "type": "event"
    },
    {
      "anonymous": false,
      "inputs": [
        {
          "indexed": false,
          "internalType": "address",
          "name": "newFactory",
          "type": "address"
        }
      ],
      "name": "Factory",
      "type": "event"
    },
    {
      "anonymous": false,
      "inputs": [
        {
          "indexed": false,
          "internalType": "address",
          "name": "previousImplementation",
          "type": "address"
        },
        {
          "indexed": false,
          "internalType": "address",
          "name": "newImplementation",
          "type": "address"
        }
      ],
      "name": "FallbackUpgraded",
      "type": "event"
    },
    {
      "inputs": [],
      "name": "acceptAdministration",
      "outputs": [],
      "stateMutability": "nonpayable",
      "type": "function"
    },
    {
      "inputs": [],
      "name": "acceptDelegation",
      "outputs": [],
      "stateMutability": "nonpayable",
      "type": "function"
    },
    {
      "inputs": [
        {
          "internalType": "address",
          "name": "ownable",
          "type": "address"
        }
      ],
      "name": "acceptOwnership",
      "outputs": [],
      "stateMutability": "nonpayable",
      "type": "function"
    },
    {
      "inputs": [],
      "name": "admin",
      "outputs": [
        {
          "internalType": "address",
          "name": "",
          "type": "address"
        }
      ],
      "stateMutability": "view",
      "type": "function"
    },
    {
      "inputs": [],
      "name": "coreImplementation",
      "outputs": [
        {
          "internalType": "address",
          "name": "",
          "type": "address"
        }
      ],
      "stateMutability": "view",
      "type": "function"
    },
    {
      "inputs": [],
      "name": "delay",
      "outputs": [
        {
          "internalType": "uint256",
          "name": "",
          "type": "uint256"
        }
      ],
      "stateMutability": "view",
      "type": "function"
    },
    {
      "inputs": [],
      "name": "delegate",
      "outputs": [
        {
          "internalType": "address",
          "name": "",
          "type": "address"
        }
      ],
      "stateMutability": "view",
      "type": "function"
    },
    {
      "inputs": [],
      "name": "emergencyUpgrade",
      "outputs": [],
      "stateMutability": "nonpayable",
      "type": "function"
    },
    {
      "inputs": [],
      "name": "factory",
      "outputs": [
        {
          "internalType": "address",
          "name": "",
          "type": "address"
        }
      ],
      "stateMutability": "view",
      "type": "function"
    },
    {
      "inputs": [],
      "name": "fallbackImplementation",
      "outputs": [
        {
          "internalType": "address",
          "name": "",
          "type": "address"
        }
      ],
      "stateMutability": "view",
      "type": "function"
    },
    {
      "inputs": [],
      "name": "finalizeUpgrade",
      "outputs": [],
      "stateMutability": "nonpayable",
      "type": "function"
    },
    {
      "inputs": [],
      "name": "implementation",
      "outputs": [
        {
          "internalType": "address",
          "name": "",
          "type": "address"
        }
      ],
      "stateMutability": "view",
      "type": "function"
    },
    {
      "inputs": [],
      "name": "pendingAdmin",
      "outputs": [
        {
          "internalType": "address",
          "name": "",
          "type": "address"
        }
      ],
      "stateMutability": "view",
      "type": "function"
    },
    {
      "inputs": [],
      "name": "pendingCoreImplementation",
      "outputs": [
        {
          "internalType": "address",
          "name": "",
          "type": "address"
        }
      ],
      "stateMutability": "view",
      "type": "function"
    },
    {
      "inputs": [],
      "name": "pendingDelegate",
      "outputs": [
        {
          "internalType": "address",
          "name": "",
          "type": "address"
        }
      ],
      "stateMutability": "view",
      "type": "function"
    },
    {
      "inputs": [],
      "name": "pendingFactoryImplementation",
      "outputs": [
        {
          "internalType": "address",
          "name": "",
          "type": "address"
        }
      ],
      "stateMutability": "view",
      "type": "function"
    },
    {
      "inputs": [],
      "name": "pendingFactoryUpgradeData",
      "outputs": [
        {
          "internalType": "bytes",
          "name": "",
          "type": "bytes"
        }
      ],
      "stateMutability": "view",
      "type": "function"
    },
    {
      "inputs": [],
      "name": "renounceAdministration",
      "outputs": [],
      "stateMutability": "nonpayable",
      "type": "function"
    },
    {
      "inputs": [],
      "name": "renounceDelegation",
      "outputs": [],
      "stateMutability": "nonpayable",
      "type": "function"
    },
    {
      "inputs": [
        {
          "internalType": "uint256",
          "name": "newDelay",
          "type": "uint256"
        }
      ],
      "name": "setDelay",
      "outputs": [],
      "stateMutability": "nonpayable",
      "type": "function"
    },
    {
      "inputs": [
        {
          "internalType": "address",
          "name": "newFactory",
          "type": "address"
        }
      ],
      "name": "setFactory",
      "outputs": [],
      "stateMutability": "nonpayable",
      "type": "function"
    },
    {
      "inputs": [
        {
          "internalType": "address",
          "name": "newAdmin",
          "type": "address"
        }
      ],
      "name": "transferAdministration",
      "outputs": [],
      "stateMutability": "nonpayable",
      "type": "function"
    },
    {
      "inputs": [
        {
          "internalType": "address",
          "name": "newDelegate",
          "type": "address"
        }
      ],
      "name": "transferDelegation",
      "outputs": [],
      "stateMutability": "nonpayable",
      "type": "function"
    },
    {
      "inputs": [
        {
          "internalType": "address",
          "name": "ownable",
          "type": "address"
        },
        {
          "internalType": "address",
          "name": "newOwner",
          "type": "address"
        }
      ],
      "name": "transferOwnership",
      "outputs": [],
      "stateMutability": "nonpayable",
      "type": "function"
    },
    {
      "inputs": [
        {
          "internalType": "address",
          "name": "newImplementation",
          "type": "address"
        },
        {
          "internalType": "address",
          "name": "factoryImplementation",
          "type": "address"
        },
        {
          "internalType": "bytes",
          "name": "data",
          "type": "bytes"
        }
      ],
      "name": "upgradeCore",
      "outputs": [],
      "stateMutability": "nonpayable",
      "type": "function"
    },
    {
      "inputs": [
        {
          "internalType": "address",
          "name": "newImplementation",
          "type": "address"
        },
        {
          "internalType": "bytes",
          "name": "data",
          "type": "bytes"
        }
      ],
      "name": "upgradeFactory",
      "outputs": [],
      "stateMutability": "nonpayable",
      "type": "function"
    },
    {
      "inputs": [
        {
          "internalType": "address",
          "name": "newImplementation",
          "type": "address"
        }
      ],
      "name": "upgradeFallback",
      "outputs": [],
      "stateMutability": "nonpayable",
      "type": "function"
    },
    {
      "inputs": [],
      "name": "upgradeTimestamp",
      "outputs": [
        {
          "internalType": "uint256",
          "name": "",
          "type": "uint256"
        }
      ],
      "stateMutability": "view",
      "type": "function"
    }
  ],
  "transactionHash": "0x21fb6e033e6876452cdbe98be028db2e5a39ff133df54e5dc03d94c1a0330834",
  "args": [
    "0x498D5a77E1b7f508AF018f5BCd286134Ea91179c",
    "0xb8c70beFAd54641951FC43604d5e0CEFeE5F0565"
  ],
  "numDeployments": 1,
  "solcInputHash": "57e8446a1a1beec4cd2f90e168165735",
  "bytecode": "0x60803461009e57601f62001c9738819003918201601f19168301916001600160401b038311848410176100a357808492604094855283398101031261009e57610053602061004c836100b9565b92016100b9565b9060018060a01b031991338360005416176000553383600154161760015560018060a01b0380921683600354161760035516906004541617600455604051611bc99081620000ce8239f35b600080fd5b634e487b7160e01b600052604160045260246000fd5b51906001600160a01b038216820361009e5756fe608060408181526004918236101561001657600080fd5b600092833560e01c918263230eae2f146117195750816324e0f57e1461169857816326782247146116455781633cf21738146115f25781634859e3821461159f57816351710e45146114bf5781635bb478081461140c5781635c60da1b146108e25781636a42b8f8146113cf5781636d435421146112d15781637babfffc1461119757816390c210bf14610eb5578163913ee93d14610d7f57816391d751dc14610c59578163921bd6f014610c1c5781639a508c8e146109355781639d492a2c146108e2578163addd34f5146107a7578163b346761914610754578163c45a015514610701578163c780b63d146105a0578163c89e43611461054d578163d0ff6fc1146104f8578163e03b874114610431578163e177246e14610386578163ea1466d3146102ae578163f0025d96146101ac575063f851a4401461015957600080fd5b346101a857817ffffffffffffffffffffffffffffffffffffffffffffffffffffffffffffffffc3601126101a85773ffffffffffffffffffffffffffffffffffffffff60209254169051908152f35b5080fd5b9050346102aa57827ffffffffffffffffffffffffffffffffffffffffffffffffffffffffffffffffc3601126102aa576005549073ffffffffffffffffffffffffffffffffffffffff90818316330361028357507fffffffffffffffffffffffff0000000000000000000000000000000000000000918216600555835433928116831785558351911673ffffffffffffffffffffffffffffffffffffffff16815260208101919091527ffd11f9fc2b7f18358a6f98ed3df762cdba9d98f2365d3021b5fd38d1240b0fad9080604081015b0390a151f35b83517f39218f3b000000000000000000000000000000000000000000000000000000008152fd5b8280fd5b9050346102aa57827ffffffffffffffffffffffffffffffffffffffffffffffffffffffffffffffffc3601126102aa576006549073ffffffffffffffffffffffffffffffffffffffff90818316330361028357507fffffffffffffffffffffffff0000000000000000000000000000000000000000918216600655600180543393811684179091558351911673ffffffffffffffffffffffffffffffffffffffff16815260208101919091527fd0f8e6a439689cb66a57cb879faad9da11c6b662caf1ec096fef086d15ea16c790806040810161027d565b9050346102aa5760207ffffffffffffffffffffffffffffffffffffffffffffffffffffffffffffffffc3601126102aa5780359073ffffffffffffffffffffffffffffffffffffffff845416330361040a57506020817fb4f57ed9d2d33313fbef9b5fd9b2630e98df381e33ee8d77a02ed4c01228e39692600a558351908152a151f35b82517f39218f3b000000000000000000000000000000000000000000000000000000008152fd5b9050346102aa57827ffffffffffffffffffffffffffffffffffffffffffffffffffffffffffffffffc3601126102aa5760015473ffffffffffffffffffffffffffffffffffffffff81169182330361028357507fffffffffffffffffffffffff000000000000000000000000000000000000000016600155815173ffffffffffffffffffffffffffffffffffffffff9091168152600060208201527fd0f8e6a439689cb66a57cb879faad9da11c6b662caf1ec096fef086d15ea16c790806040810161027d565b82843461054a57807ffffffffffffffffffffffffffffffffffffffffffffffffffffffffffffffffc36011261054a575073ffffffffffffffffffffffffffffffffffffffff60209254169051908152f35b80fd5b5050346101a857817ffffffffffffffffffffffffffffffffffffffffffffffffffffffffffffffffc3601126101a85760209073ffffffffffffffffffffffffffffffffffffffff600154169051908152f35b9050346102aa57827ffffffffffffffffffffffffffffffffffffffffffffffffffffffffffffffffc3601126102aa57825473ffffffffffffffffffffffffffffffffffffffff91828216908133036106da5750907ffd11f9fc2b7f18358a6f98ed3df762cdba9d98f2365d3021b5fd38d1240b0fad6106aa7fd0f8e6a439689cb66a57cb879faad9da11c6b662caf1ec096fef086d15ea16c79493600154937fffffffffffffffffffffffff00000000000000000000000000000000000000008091168955808516600155806005541660055560065416600655865191829182602060009193929373ffffffffffffffffffffffffffffffffffffffff60408201951681520152565b0390a18351911673ffffffffffffffffffffffffffffffffffffffff16815260006020820152806040810161027d565b84517f39218f3b000000000000000000000000000000000000000000000000000000008152fd5b5050346101a857817ffffffffffffffffffffffffffffffffffffffffffffffffffffffffffffffffc3601126101a85760209073ffffffffffffffffffffffffffffffffffffffff600254169051908152f35b5050346101a857817ffffffffffffffffffffffffffffffffffffffffffffffffffffffffffffffffc3601126101a85760209073ffffffffffffffffffffffffffffffffffffffff600854169051908152f35b8383346101a85760207ffffffffffffffffffffffffffffffffffffffffffffffffffffffffffffffffc3601126101a8576107e06117c6565b73ffffffffffffffffffffffffffffffffffffffff9384845416330361040a578482169081156108bb57805495861691828114610893577fffffffffffffffffffffffff000000000000000000000000000000000000000096909616909517909455815173ffffffffffffffffffffffffffffffffffffffff94851681529316602084015290917f15f8f9d98aca62ebf41c76141e6c4f210567ad0c6b6e64a662dbca0891fe01c990806040810161027d565b5083517f68155f9a000000000000000000000000000000000000000000000000000000008152fd5b83517f68155f9a000000000000000000000000000000000000000000000000000000008152fd5b5050346101a857817ffffffffffffffffffffffffffffffffffffffffffffffffffffffffffffffffc3601126101a85760209073ffffffffffffffffffffffffffffffffffffffff600354169051908152f35b9050346102aa57827ffffffffffffffffffffffffffffffffffffffffffffffffffffffffffffffffc3601126102aa57600b548015610bf457600a548101809111610bc8574210610ba15782600b5560075473ffffffffffffffffffffffffffffffffffffffff8082169060085490811693855193600092600954926109ba8461190a565b8088528760019687871680600014610b6557600114610b05575b6109e092500388611854565b8515610ade57507fffffffffffffffffffffffff000000000000000000000000000000000000000091821660075516600855610a1b9061190a565b9081610a43575b5050610a2d906119bb565b81610a3757505051f35b610a4091611a8c565b51f35b601f8211600114610a61575050610a2d9060006009555b9038610a22565b7f6e1540171b6c0c960b71a7020d9f60077f6af931a8bbf590da0223dacf75c7b0929187917f6e1540171b6c0c960b71a7020d9f60077f6af931a8bbf590da0223dacf75c7af91601f0160051c82015b808610610ace575050610a2d935060098252600060095555610a5a565b6000865594810194899350610ab1565b88517f68155f9a000000000000000000000000000000000000000000000000000000008152fd5b509060096000527f6e1540171b6c0c960b71a7020d9f60077f6af931a8bbf590da0223dacf75c7af90876000925b828410610b4c575050509060206109e0928201016109d4565b6020929483858354920101520191019091878a93610b33565b505060206109e0927fffffffffffffffffffffffffffffffffffffffffffffffffffffffffffffff00881682840152151560051b8201016109d4565b90517f47e103ca000000000000000000000000000000000000000000000000000000008152fd5b6024846011847f4e487b7100000000000000000000000000000000000000000000000000000000835252fd5b5090517fdd61275e000000000000000000000000000000000000000000000000000000008152fd5b5050346101a857817ffffffffffffffffffffffffffffffffffffffffffffffffffffffffffffffffc3601126101a857602090600b549051908152f35b82843461054a57807ffffffffffffffffffffffffffffffffffffffffffffffffffffffffffffffffc36011261054a57508051600091600954610c9b8161190a565b80845290600190818116908115610d395750600114610cdc575b5050610cc682610cd8940383611854565b5191829160208352602083019061195d565b0390f35b6009600090815294507f6e1540171b6c0c960b71a7020d9f60077f6af931a8bbf590da0223dacf75c7af5b828610610d215750505091810160200191610cc682610cb5565b80546020878701810191909152909501948101610d07565b610cd8965085925060209150927fffffffffffffffffffffffffffffffffffffffffffffffffffffffffffffff00610cc6941682840152151560051b8201019450610cb5565b9050346102aa5760207ffffffffffffffffffffffffffffffffffffffffffffffffffffffffffffffffc3601126102aa57610db86117c6565b9073ffffffffffffffffffffffffffffffffffffffff908185541691823303610e8d578316908115610e6657828214610e665750600580547fffffffffffffffffffffffff0000000000000000000000000000000000000000169091179055825173ffffffffffffffffffffffffffffffffffffffff9182168152911660208201527fc84b53e36f9cc4d47cde3c091e2817c6da2d24e3acf415caa7162388440c41cd90806040810161027d565b84517f6d187b28000000000000000000000000000000000000000000000000000000008152fd5b5083517f39218f3b000000000000000000000000000000000000000000000000000000008152fd5b8383346101a85760607ffffffffffffffffffffffffffffffffffffffffffffffffffffffffffffffffc3601126101a857610eee6117c6565b92610ef76117ee565b67ffffffffffffffff919060443583811161119357610f199036908401611895565b9573ffffffffffffffffffffffffffffffffffffffff9081875416330361116b5781169182156111435742600b557fffffffffffffffffffffffff0000000000000000000000000000000000000000928360075416176007551690600854161760085584519182116111175750610f9160095461190a565b601f81116110b3575b50602080601f8311600114610ff55750839482939492610fea575b50507fffffffffffffffffffffffffffffffffffffffffffffffffffffffffffffffff8260011b9260031b1c19161760095551f35b015190508480610fb5565b907fffffffffffffffffffffffffffffffffffffffffffffffffffffffffffffffe0831695600986527f6e1540171b6c0c960b71a7020d9f60077f6af931a8bbf590da0223dacf75c7af9286905b88821061109b57505083600195969710611064575b505050811b0160095551f35b01517fffffffffffffffffffffffffffffffffffffffffffffffffffffffffffffffff60f88460031b161c19169055848080611058565b80600185968294968601518155019501930190611043565b600984527f6e1540171b6c0c960b71a7020d9f60077f6af931a8bbf590da0223dacf75c7af601f830160051c8101916020841061110d575b601f0160051c01905b8181106111015750610f9a565b600081556001016110f4565b90915081906110eb565b8360416024927f4e487b7100000000000000000000000000000000000000000000000000000000835252fd5b8386517f68155f9a000000000000000000000000000000000000000000000000000000008152fd5b8386517f39218f3b000000000000000000000000000000000000000000000000000000008152fd5b8580fd5b9050346102aa5760207ffffffffffffffffffffffffffffffffffffffffffffffffffffffffffffffffc3601126102aa576111d06117c6565b9073ffffffffffffffffffffffffffffffffffffffff8085541633036112a957808316908115611281576001541691828214610e665750600680547fffffffffffffffffffffffff0000000000000000000000000000000000000000169091179055825173ffffffffffffffffffffffffffffffffffffffff9182168152911660208201527fb3efe8834d414d488190f39a997544d1e941aa3e5ebad80baa2abd82015482bf90806040810161027d565b8285517f6d187b28000000000000000000000000000000000000000000000000000000008152fd5b5082517f39218f3b000000000000000000000000000000000000000000000000000000008152fd5b9050346102aa57817ffffffffffffffffffffffffffffffffffffffffffffffffffffffffffffffffc3601126102aa576113096117c6565b6113116117ee565b9073ffffffffffffffffffffffffffffffffffffffff908186541633036113a75790808694939216803b156113a357849283602492885196879586947ff2fde38b00000000000000000000000000000000000000000000000000000000865216908401525af180156113965761138657505051f35b61138f90611811565b6101a85751f35b50505051903d90823e3d90fd5b8480fd5b8385517f39218f3b000000000000000000000000000000000000000000000000000000008152fd5b5050346101a857817ffffffffffffffffffffffffffffffffffffffffffffffffffffffffffffffffc3601126101a857602090600a549051908152f35b9050346102aa5760207ffffffffffffffffffffffffffffffffffffffffffffffffffffffffffffffffc3601126102aa576114456117c6565b73ffffffffffffffffffffffffffffffffffffffff9182855416330361028357507f194d5292f3fd797c05e95926ce4b1d4d7f7f10c7dd0c467e55a42d82006bbc699160209116807fffffffffffffffffffffffff000000000000000000000000000000000000000060025416176002558351908152a151f35b839150346101a85760207ffffffffffffffffffffffffffffffffffffffffffffffffffffffffffffffffc3601126101a8576114f96117c6565b73ffffffffffffffffffffffffffffffffffffffff90818454163303611577571690813b156102aa57829182918551809481937f79ba50970000000000000000000000000000000000000000000000000000000083525af1801561156d5761156057509051f35b61156990611811565b9051f35b83513d84823e3d90fd5b8285517f39218f3b000000000000000000000000000000000000000000000000000000008152fd5b5050346101a857817ffffffffffffffffffffffffffffffffffffffffffffffffffffffffffffffffc3601126101a85760209073ffffffffffffffffffffffffffffffffffffffff600654169051908152f35b5050346101a857817ffffffffffffffffffffffffffffffffffffffffffffffffffffffffffffffffc3601126101a85760209073ffffffffffffffffffffffffffffffffffffffff600754169051908152f35b5050346101a857817ffffffffffffffffffffffffffffffffffffffffffffffffffffffffffffffffc3601126101a85760209073ffffffffffffffffffffffffffffffffffffffff600554169051908152f35b9050346102aa57817ffffffffffffffffffffffffffffffffffffffffffffffffffffffffffffffffc3601126102aa576116d06117c6565b60243567ffffffffffffffff81116113a3576116ef9036908401611895565b9173ffffffffffffffffffffffffffffffffffffffff8554163303610283575090610a4091611a8c565b9150346117c257837ffffffffffffffffffffffffffffffffffffffffffffffffffffffffffffffffc3601126117c25773ffffffffffffffffffffffffffffffffffffffff918260015416330361179d57505461177691166119bb565b517f014f4edb46826c5e74e23ca091de2d3fdfe2cc9d62b5eebf7f5a63eff16d55be8282a1f35b7f39218f3b000000000000000000000000000000000000000000000000000000008152fd5b8380fd5b6004359073ffffffffffffffffffffffffffffffffffffffff821682036117e957565b600080fd5b6024359073ffffffffffffffffffffffffffffffffffffffff821682036117e957565b67ffffffffffffffff811161182557604052565b7f4e487b7100000000000000000000000000000000000000000000000000000000600052604160045260246000fd5b90601f7fffffffffffffffffffffffffffffffffffffffffffffffffffffffffffffffe0910116810190811067ffffffffffffffff82111761182557604052565b81601f820112156117e95780359067ffffffffffffffff821161182557604051926118e860207fffffffffffffffffffffffffffffffffffffffffffffffffffffffffffffffe0601f8601160185611854565b828452602083830101116117e957816000926020809301838601378301015290565b90600182811c92168015611953575b602083101461192457565b7f4e487b7100000000000000000000000000000000000000000000000000000000600052602260045260246000fd5b91607f1691611919565b919082519283825260005b8481106119a75750507fffffffffffffffffffffffffffffffffffffffffffffffffffffffffffffffe0601f8460006020809697860101520116010190565b602081830181015184830182015201611968565b73ffffffffffffffffffffffffffffffffffffffff8082168015611a6257611a5d7f2b9f11f4582762e8a9ecf21df1568858e252337862913c695101c20a6e8bdc9a93600354927fffffffffffffffffffffffff0000000000000000000000000000000000000000841617600355604051938493168390602090939293604083019473ffffffffffffffffffffffffffffffffffffffff809216845216910152565b0390a1565b60046040517f68155f9a000000000000000000000000000000000000000000000000000000008152fd5b815115611b295773ffffffffffffffffffffffffffffffffffffffff918260025416803b156117e957611b019360008094604051968795869485937f4f1ef28600000000000000000000000000000000000000000000000000000000855216600484015260406024840152604483019061195d565b03925af18015611b1d57611b125750565b611b1b90611811565b565b6040513d6000823e3d90fd5b60025473ffffffffffffffffffffffffffffffffffffffff9081169250823b156117e95760246000928360405195869485937f3659cfe60000000000000000000000000000000000000000000000000000000085521660048401525af18015611b1d57611b12575056fea2646970667358221220458960e2b332804880438f69eb1cc8c355532ad608da6c4fb9a4728c76f29eb864736f6c63430008100033",
  "devdoc": {
    "kind": "dev",
    "methods": {},
    "version": 1
  },
  "userdoc": {
    "kind": "user",
    "methods": {},
    "version": 1
  },
  "storageLayout": {
    "storage": [
      {
        "astId": 6638,
        "contract": "contracts/EnsoBeacon.sol:EnsoBeacon",
        "label": "admin",
        "offset": 0,
        "slot": "0",
        "type": "t_address"
      },
      {
        "astId": 6640,
        "contract": "contracts/EnsoBeacon.sol:EnsoBeacon",
        "label": "delegate",
        "offset": 0,
        "slot": "1",
        "type": "t_address"
      },
      {
        "astId": 6642,
        "contract": "contracts/EnsoBeacon.sol:EnsoBeacon",
        "label": "factory",
        "offset": 0,
        "slot": "2",
        "type": "t_address"
      },
      {
        "astId": 6644,
        "contract": "contracts/EnsoBeacon.sol:EnsoBeacon",
        "label": "coreImplementation",
        "offset": 0,
        "slot": "3",
        "type": "t_address"
      },
      {
        "astId": 6646,
        "contract": "contracts/EnsoBeacon.sol:EnsoBeacon",
        "label": "fallbackImplementation",
        "offset": 0,
        "slot": "4",
        "type": "t_address"
      },
      {
        "astId": 6648,
        "contract": "contracts/EnsoBeacon.sol:EnsoBeacon",
        "label": "pendingAdmin",
        "offset": 0,
        "slot": "5",
        "type": "t_address"
      },
      {
        "astId": 6650,
        "contract": "contracts/EnsoBeacon.sol:EnsoBeacon",
        "label": "pendingDelegate",
        "offset": 0,
        "slot": "6",
        "type": "t_address"
      },
      {
        "astId": 6652,
        "contract": "contracts/EnsoBeacon.sol:EnsoBeacon",
        "label": "pendingCoreImplementation",
        "offset": 0,
        "slot": "7",
        "type": "t_address"
      },
      {
        "astId": 6654,
        "contract": "contracts/EnsoBeacon.sol:EnsoBeacon",
        "label": "pendingFactoryImplementation",
        "offset": 0,
        "slot": "8",
        "type": "t_address"
      },
      {
        "astId": 6656,
        "contract": "contracts/EnsoBeacon.sol:EnsoBeacon",
        "label": "pendingFactoryUpgradeData",
        "offset": 0,
        "slot": "9",
        "type": "t_bytes_storage"
      },
      {
        "astId": 6658,
        "contract": "contracts/EnsoBeacon.sol:EnsoBeacon",
        "label": "delay",
        "offset": 0,
        "slot": "10",
        "type": "t_uint256"
      },
      {
        "astId": 6660,
        "contract": "contracts/EnsoBeacon.sol:EnsoBeacon",
        "label": "upgradeTimestamp",
        "offset": 0,
        "slot": "11",
        "type": "t_uint256"
      }
    ],
    "types": {
      "t_address": {
        "encoding": "inplace",
        "label": "address",
        "numberOfBytes": "20"
      },
      "t_bytes_storage": {
        "encoding": "bytes",
        "label": "bytes",
        "numberOfBytes": "32"
      },
      "t_uint256": {
        "encoding": "inplace",
        "label": "uint256",
        "numberOfBytes": "32"
      }
    }
  }
}