{
  "address": "0x6bb52BE538A1E5668a9c45626EDF2C590e86CA76",
  "abi": [
    {
      "inputs": [],
      "name": "AlreadyInit",
      "type": "error"
    },
    {
      "inputs": [
        {
          "internalType": "uint256",
          "name": "command_index",
          "type": "uint256"
        },
        {
          "internalType": "address",
          "name": "target",
          "type": "address"
        },
        {
          "internalType": "string",
          "name": "message",
          "type": "string"
        }
      ],
      "name": "ExecutionFailed",
      "type": "error"
    },
    {
      "inputs": [],
      "name": "InvalidAddress",
      "type": "error"
    },
    {
      "inputs": [],
      "name": "NotCaller",
      "type": "error"
    },
    {
      "inputs": [],
      "name": "caller",
      "outputs": [
        {
          "internalType": "address",
          "name": "",
          "type": "address"
        }
      ],
      "stateMutability": "view",
      "type": "function"
    },
    {
      "inputs": [
        {
          "internalType": "bytes32[]",
          "name": "commands",
          "type": "bytes32[]"
        },
        {
          "internalType": "bytes[]",
          "name": "state",
          "type": "bytes[]"
        }
      ],
      "name": "execute",
      "outputs": [
        {
          "internalType": "bytes[]",
          "name": "returnData",
          "type": "bytes[]"
        }
      ],
      "stateMutability": "payable",
      "type": "function"
    },
    {
      "inputs": [
        {
          "internalType": "address",
          "name": "caller_",
          "type": "address"
        },
        {
          "internalType": "bytes32[]",
          "name": "commands",
          "type": "bytes32[]"
        },
        {
          "internalType": "bytes[]",
          "name": "state",
          "type": "bytes[]"
        }
      ],
      "name": "initialize",
      "outputs": [],
      "stateMutability": "payable",
      "type": "function"
    },
    {
      "inputs": [],
      "name": "initialized",
      "outputs": [
        {
          "internalType": "bool",
          "name": "",
          "type": "bool"
        }
      ],
      "stateMutability": "view",
      "type": "function"
    },
    {
      "stateMutability": "payable",
      "type": "receive"
    }
  ],
  "transactionHash": "0xa0069418f32ad7f6018776bb6898f81b772c607bd223b93d67245589d294e5da",
  "args": [],
  "numDeployments": 1,
  "solcInputHash": "391e1a666fcdfbf504cfbe92f13b98de",
  "bytecode": "0x60a060405234801561001057600080fd5b5030608052608051610fde61002d60003960005050610fde6000f3fe6080604052600436106100435760003560e01c8063158ef93e1461004f57806387258e8e14610096578063de792d5f146100ab578063fc9c8d39146100cb57600080fd5b3661004a57005b600080fd5b34801561005b57600080fd5b506000546100819074010000000000000000000000000000000000000000900460ff1681565b60405190151581526020015b60405180910390f35b6100a96100a4366004610ac5565b610103565b005b6100be6100b9366004610b54565b6101ae565b60405161008d9190610c1c565b3480156100d757600080fd5b506000546100eb906001600160a01b031681565b6040516001600160a01b03909116815260200161008d565b60005474010000000000000000000000000000000000000000900460ff1615610158576040517fef34ca5c00000000000000000000000000000000000000000000000000000000815260040160405180910390fd5b600080547fffffffffffffffffffffffff0000000000000000000000000000000000000000166001600160a01b03871617905582156101a7576101a584846101a08486610d2f565b61020d565b505b5050505050565b6000546060906001600160a01b031633146101f5576040517f16c618d800000000000000000000000000000000000000000000000000000000815260040160405180910390fd5b61020485856101a08587610d2f565b95945050505050565b606060008080808487825b81811015610628578a8a8281811061023257610232610de4565b90506020020135965060d887901c60001c60ff1695506040861660001461027e578a8a61025e83610e10565b92508281811061027057610270610de4565b9050602002013594506102a2565b602887901b79ffffffffffffffffffffffffffffffffffffffffffffffffffff1794505b60038616610317576001600160a01b0387166102bf8a898861063a565b6040516102cc9190610e48565b600060405180830381855af49150503d8060008114610307576040519150601f19603f3d011682016040523d82523d6000602084013e61030c565b606091505b50909450925061055d565b60016003871603610381576001600160a01b0387166103378a898861063a565b6040516103449190610e48565b6000604051808303816000865af19150503d8060008114610307576040519150601f19603f3d011682016040523d82523d6000602084013e61030c565b600260038716036103e9576001600160a01b0387166103a18a898861063a565b6040516103ae9190610e48565b600060405180830381855afa9150503d8060008114610307576040519150601f19603f3d011682016040523d82523d6000602084013e61030c565b600380871603610515576000808a8760f81c60ff168151811061040e5761040e610de4565b6020026020010151905080516020146104945760405162461bcd60e51b815260206004820152602c60248201527f5f657865637574653a2076616c75652063616c6c20686173206e6f2076616c7560448201527f6520696e646963617465642e000000000000000000000000000000000000000060648201526084015b60405180910390fd5b602081015191506001600160a01b038916826104b88d8c60088c901b60ff1761063a565b6040516104c59190610e48565b60006040518083038185875af1925050503d8060008114610502576040519150601f19603f3d011682016040523d82523d6000602084013e610507565b606091505b50909650945061055d915050565b60405162461bcd60e51b815260206004820152601060248201527f496e76616c69642063616c6c7479706500000000000000000000000000000000604482015260640161048b565b836105f157825115610570576044830192505b60008760001c60008551116105ba576040518060400160405280600781526020017f556e6b6e6f776e000000000000000000000000000000000000000000000000008152506105bc565b845b6040517fef3dcb2f00000000000000000000000000000000000000000000000000000000815260040161048b93929190610e64565b608086161561060e5761060989605889901b8561083a565b610620565b61061d89605889901b856108df565b98505b600101610218565b508796505050505050505b9392505050565b606060008060005b60208110156106795784816020811061065d5761065d610de4565b1a915060fe198201156106795760209290920191600101610642565b5060408051808201909152602081018690529250600460006060815b602081101561082b578781602081106106b0576106b0610de4565b1a945060fe1985011561082b5760808516156107dc5760fe850361076c57601f19605f8501168701604052602483880101869052815160209094019360000361071657896040516020016107049190610c1c565b60405160208183030381529060405291505b8151603f9401938401601f1916870160405261074d8260208961073a8a6004610e8c565b602087516107489190610ea4565b610a5f565b6020825161075b9190610ea4565b6107659087610e8c565b955061081c565b60008a607f87168151811061078357610783610de4565b6020908102919091018101518051868b016024018a9052968701605f8101601f19168b01604052909101959091506107c98260008b6107c38c6004610e8c565b85610a5f565b6107d38189610e8c565b9750505061081c565b60008a607f8716815181106107f3576107f3610de4565b6020908102919091018101518051603f9701968701601f19168a01604052015184890160240152505b60209290920191600101610695565b50505083525090949350505050565b60f882901c60fe19810161084e5750505050565b60008251602061085e9190610e8c565b67ffffffffffffffff81111561087657610876610c9c565b6040519080825280601f01601f1916602001820160405280156108a0576020820181803683370190505b508583815181106108b3576108b3610de4565b6020026020010181905290506108cf8360008360208751610a5f565b8251806020830152505050505050565b606060f883901c60fe1981016108f85784915050610633565b60808116156109bd5760fe8103610924578280602001905181019061091d9190610ebb565b9450610a56565b60208381015190811461099f5760405162461bcd60e51b815260206004820152602a60248201527f4f6e6c79206f6e652072657475726e2076616c7565207065726d69747465642060448201527f287661726961626c652900000000000000000000000000000000000000000000606482015260840161048b565b508251601f19016020848101918252607f8316810287010152610a56565b8251602014610a345760405162461bcd60e51b815260206004820152602860248201527f4f6e6c79206f6e652072657475726e2076616c7565207065726d69747465642060448201527f2873746174696329000000000000000000000000000000000000000000000000606482015260840161048b565b8285607f831681518110610a4a57610a4a610de4565b60200260200101819052505b50929392505050565b808260208501018286602089010160045afa505050505050565b60008083601f840112610a8b57600080fd5b50813567ffffffffffffffff811115610aa357600080fd5b6020830191508360208260051b8501011115610abe57600080fd5b9250929050565b600080600080600060608688031215610add57600080fd5b85356001600160a01b0381168114610af457600080fd5b9450602086013567ffffffffffffffff80821115610b1157600080fd5b610b1d89838a01610a79565b90965094506040880135915080821115610b3657600080fd5b50610b4388828901610a79565b969995985093965092949392505050565b60008060008060408587031215610b6a57600080fd5b843567ffffffffffffffff80821115610b8257600080fd5b610b8e88838901610a79565b90965094506020870135915080821115610ba757600080fd5b50610bb487828801610a79565b95989497509550505050565b60005b83811015610bdb578181015183820152602001610bc3565b83811115610bea576000848401525b50505050565b60008151808452610c08816020860160208601610bc0565b601f01601f19169290920160200192915050565b6000602080830181845280855180835260408601915060408160051b870101925083870160005b82811015610c8f577fffffffffffffffffffffffffffffffffffffffffffffffffffffffffffffffc0888603018452610c7d858351610bf0565b94509285019290850190600101610c43565b5092979650505050505050565b634e487b7160e01b600052604160045260246000fd5b604051601f8201601f1916810167ffffffffffffffff81118282101715610cdb57610cdb610c9c565b604052919050565b600067ffffffffffffffff821115610cfd57610cfd610c9c565b5060051b60200190565b600067ffffffffffffffff821115610d2157610d21610c9c565b50601f01601f191660200190565b6000610d42610d3d84610ce3565b610cb2565b80848252602080830192508560051b850136811115610d6057600080fd5b855b81811015610dd857803567ffffffffffffffff811115610d825760008081fd5b870136601f820112610d945760008081fd5b8035610da2610d3d82610d07565b8181523686838501011115610db75760008081fd5b81868401878301376000918101860191909152865250938201938201610d62565b50919695505050505050565b634e487b7160e01b600052603260045260246000fd5b634e487b7160e01b600052601160045260246000fd5b60007fffffffffffffffffffffffffffffffffffffffffffffffffffffffffffffffff8203610e4157610e41610dfa565b5060010190565b60008251610e5a818460208701610bc0565b9190910192915050565b8381526001600160a01b03831660208201526060604082015260006102046060830184610bf0565b60008219821115610e9f57610e9f610dfa565b500190565b600082821015610eb657610eb6610dfa565b500390565b60006020808385031215610ece57600080fd5b825167ffffffffffffffff80821115610ee657600080fd5b818501915085601f830112610efa57600080fd5b8151610f08610d3d82610ce3565b81815260059190911b83018401908481019088831115610f2757600080fd5b8585015b83811015610f9b57805185811115610f435760008081fd5b8601603f81018b13610f555760008081fd5b878101516040610f67610d3d83610d07565b8281528d82848601011115610f7c5760008081fd5b610f8b838c8301848701610bc0565b8652505050918601918601610f2b565b509897505050505050505056fea2646970667358221220629ef2d93952c76a8ca9e79c9c073c05bcc6c5cde78bd7a8ce306059aa6016df64736f6c634300080d0033",
  "devdoc": {
    "kind": "dev",
    "methods": {},
    "version": 1
  },
  "userdoc": {
    "kind": "user",
    "methods": {},
    "version": 1
  },
  "storageLayout": {
    "storage": [
      {
        "astId": 772,
        "contract": "contracts/Portal.sol:Portal",
        "label": "caller",
        "offset": 0,
        "slot": "0",
        "type": "t_address"
      },
      {
        "astId": 774,
        "contract": "contracts/Portal.sol:Portal",
        "label": "initialized",
        "offset": 20,
        "slot": "0",
        "type": "t_bool"
      }
    ],
    "types": {
      "t_address": {
        "encoding": "inplace",
        "label": "address",
        "numberOfBytes": "20"
      },
      "t_bool": {
        "encoding": "inplace",
        "label": "bool",
        "numberOfBytes": "1"
      }
    }
  }
}