{
  "address": "0x2194C49E54e16f393115E9c2e3bfbDdEe5A43c7E",
  "abi": [
    {
      "inputs": [],
      "name": "VERSION",
      "outputs": [
        {
          "internalType": "uint256",
          "name": "",
          "type": "uint256"
        }
      ],
      "stateMutability": "view",
      "type": "function"
    },
    {
      "inputs": [
        {
          "internalType": "int256",
          "name": "n",
          "type": "int256"
        }
      ],
      "name": "abs",
      "outputs": [
        {
          "internalType": "uint256",
          "name": "",
          "type": "uint256"
        }
      ],
      "stateMutability": "pure",
      "type": "function"
    },
    {
      "inputs": [
        {
          "internalType": "int256",
          "name": "a",
          "type": "int256"
        },
        {
          "internalType": "int256",
          "name": "b",
          "type": "int256"
        }
      ],
      "name": "add",
      "outputs": [
        {
          "internalType": "int256",
          "name": "",
          "type": "int256"
        }
      ],
      "stateMutability": "pure",
      "type": "function"
    },
    {
      "inputs": [
        {
          "internalType": "int256",
          "name": "a",
          "type": "int256"
        },
        {
          "internalType": "int256",
          "name": "b",
          "type": "int256"
        }
      ],
      "name": "average",
      "outputs": [
        {
          "internalType": "int256",
          "name": "",
          "type": "int256"
        }
      ],
      "stateMutability": "pure",
      "type": "function"
    },
    {
      "inputs": [
        {
          "internalType": "int256",
          "name": "a",
          "type": "int256"
        },
        {
          "internalType": "int256",
          "name": "b",
          "type": "int256"
        }
      ],
      "name": "div",
      "outputs": [
        {
          "internalType": "int256",
          "name": "",
          "type": "int256"
        }
      ],
      "stateMutability": "pure",
      "type": "function"
    },
    {
      "inputs": [
        {
          "internalType": "int256",
          "name": "a",
          "type": "int256"
        },
        {
          "internalType": "int256",
          "name": "b",
          "type": "int256"
        }
      ],
      "name": "max",
      "outputs": [
        {
          "internalType": "int256",
          "name": "",
          "type": "int256"
        }
      ],
      "stateMutability": "pure",
      "type": "function"
    },
    {
      "inputs": [
        {
          "internalType": "int256",
          "name": "a",
          "type": "int256"
        },
        {
          "internalType": "int256",
          "name": "b",
          "type": "int256"
        }
      ],
      "name": "min",
      "outputs": [
        {
          "internalType": "int256",
          "name": "",
          "type": "int256"
        }
      ],
      "stateMutability": "pure",
      "type": "function"
    },
    {
      "inputs": [
        {
          "internalType": "int256",
          "name": "a",
          "type": "int256"
        },
        {
          "internalType": "int256",
          "name": "b",
          "type": "int256"
        }
      ],
      "name": "mul",
      "outputs": [
        {
          "internalType": "int256",
          "name": "",
          "type": "int256"
        }
      ],
      "stateMutability": "pure",
      "type": "function"
    },
    {
      "inputs": [
        {
          "internalType": "int256",
          "name": "a",
          "type": "int256"
        },
        {
          "internalType": "int256",
          "name": "b",
          "type": "int256"
        }
      ],
      "name": "sub",
      "outputs": [
        {
          "internalType": "int256",
          "name": "",
          "type": "int256"
        }
      ],
      "stateMutability": "pure",
      "type": "function"
    }
  ],
  "args": [],
  "numDeployments": 1,
  "solcInputHash": "409b66573237965fd0ec3859c137dc04",
  "bytecode": "0x608060405234801561001057600080fd5b50610436806100206000396000f3fe608060405234801561001057600080fd5b50600436106100a35760003560e01c806381fe578611610076578063adefc37b1161005b578063adefc37b1461012c578063bbe93d911461013f578063ffa1ad741461015257600080fd5b806381fe578614610106578063a5f3c23b1461011957600080fd5b80631b5ac4b5146100a857806329aa9cbe146100cd57806343509138146100e05780637f0bb292146100f3575b600080fd5b6100bb6100b63660046101fc565b61015a565b60405190815260200160405180910390f35b6100bb6100db366004610215565b610175565b6100bb6100ee366004610215565b61018d565b6100bb610101366004610215565b610199565b6100bb610114366004610215565b6101c9565b6100bb610127366004610215565b6101d8565b6100bb61013a366004610215565b6101e4565b6100bb61014d366004610215565b6101f0565b6100bb600181565b60008082121561016d578160000361016f565b815b92915050565b60008183126101845781610186565b825b9392505050565b60006101868284610266565b6000806101ad84841860011d8585166102f5565b90506101c160ff82901c85851816826102f5565b949350505050565b60008183136101845781610186565b600061018682846102f5565b6000610186828461031d565b60006101868284610344565b60006020828403121561020e57600080fd5b5035919050565b6000806040838503121561022857600080fd5b50508035926020909101359150565b7f4e487b7100000000000000000000000000000000000000000000000000000000600052601160045260246000fd5b60008261029c577f4e487b7100000000000000000000000000000000000000000000000000000000600052601260045260246000fd5b7fffffffffffffffffffffffffffffffffffffffffffffffffffffffffffffffff83147f8000000000000000000000000000000000000000000000000000000000000000831416156102f0576102f0610237565b500590565b808201828112600083128015821682158216171561031557610315610237565b505092915050565b818103600083128015838313168383128216171561033d5761033d610237565b5092915050565b60007f7fffffffffffffffffffffffffffffffffffffffffffffffffffffffffffffff60008413600084138583048511828216161561038557610385610237565b7f800000000000000000000000000000000000000000000000000000000000000060008712868205881281841616156103c0576103c0610237565b600087129250878205871284841616156103dc576103dc610237565b878505871281841616156103f2576103f2610237565b50505092909302939250505056fea26469706673582212201ba6ed4fd50f34419a56ef22926dec576a59856f3e4c441b07a9000165245ae864736f6c63430008100033",
  "devdoc": {
    "details": "SignedMathHelpers contract is recommended to use only in Shortcuts passed to EnsoWallet Based on OpenZepplin Contracts 4.7.3: - utils/math/SignedMath.sol (https://github.com/OpenZeppelin/openzeppelin-contracts/blob/master/contracts/utils/math/SignedMath.sol) - utils/math/SignedSafeMath.sol (https://github.com/OpenZeppelin/openzeppelin-contracts/blob/master/contracts/utils/math/SignedSafeMath.sol)",
    "kind": "dev",
    "methods": {
      "abs(int256)": {
        "details": "Returns the absolute unsigned value of a signed value."
      },
      "add(int256,int256)": {
        "details": "Returns the addition of two signed integers, reverting on overflow. Counterpart to Solidity's `+` operator. Requirements: - Addition cannot overflow."
      },
      "average(int256,int256)": {
        "details": "Returns the average of two signed numbers without overflow. The result is rounded towards zero."
      },
      "div(int256,int256)": {
        "details": "Returns the integer division of two signed integers. Reverts on division by zero. The result is rounded towards zero. Counterpart to Solidity's `/` operator. Requirements: - The divisor cannot be zero."
      },
      "max(int256,int256)": {
        "details": "Returns the largest of two signed numbers."
      },
      "min(int256,int256)": {
        "details": "Returns the smallest of two signed numbers."
      },
      "mul(int256,int256)": {
        "details": "Returns the multiplication of two signed integers, reverting on overflow. Counterpart to Solidity's `*` operator. Requirements: - Multiplication cannot overflow."
      },
      "sub(int256,int256)": {
        "details": "Returns the subtraction of two signed integers, reverting on underflow. Counterpart to Solidity's `-` operator. Requirements: - Subtraction cannot overflow."
      }
    },
    "version": 1
  },
  "userdoc": {
    "kind": "user",
    "methods": {},
    "version": 1
  },
  "storageLayout": {
    "storage": [],
    "types": null
  }
}