{
  "address": "0x3A859e16b0752a53c9C694B8928FE5F77b6fA6E3",
  "abi": [
    {
      "inputs": [],
      "name": "AlreadyInit",
      "type": "error"
    },
    {
      "inputs": [
        {
          "internalType": "uint256",
          "name": "command_index",
          "type": "uint256"
        },
        {
          "internalType": "address",
          "name": "target",
          "type": "address"
        },
        {
          "internalType": "string",
          "name": "message",
          "type": "string"
        }
      ],
      "name": "ExecutionFailed",
      "type": "error"
    },
    {
      "inputs": [],
      "name": "InvalidAddress",
      "type": "error"
    },
    {
      "inputs": [],
      "name": "NotCaller",
      "type": "error"
    },
    {
      "inputs": [],
      "name": "caller",
      "outputs": [
        {
          "internalType": "address",
          "name": "",
          "type": "address"
        }
      ],
      "stateMutability": "view",
      "type": "function"
    },
    {
      "inputs": [
        {
          "internalType": "bytes32[]",
          "name": "commands",
          "type": "bytes32[]"
        },
        {
          "internalType": "bytes[]",
          "name": "state",
          "type": "bytes[]"
        }
      ],
      "name": "execute",
      "outputs": [
        {
          "internalType": "bytes[]",
          "name": "returnData",
          "type": "bytes[]"
        }
      ],
      "stateMutability": "payable",
      "type": "function"
    },
    {
      "inputs": [
        {
          "internalType": "address",
          "name": "caller_",
          "type": "address"
        },
        {
          "internalType": "bytes32[]",
          "name": "commands",
          "type": "bytes32[]"
        },
        {
          "internalType": "bytes[]",
          "name": "state",
          "type": "bytes[]"
        }
      ],
      "name": "initialize",
      "outputs": [],
      "stateMutability": "payable",
      "type": "function"
    },
    {
      "inputs": [],
      "name": "initialized",
      "outputs": [
        {
          "internalType": "bool",
          "name": "",
          "type": "bool"
        }
      ],
      "stateMutability": "view",
      "type": "function"
    },
    {
      "stateMutability": "payable",
      "type": "receive"
    }
  ],
  "transactionHash": "0x5720c778a57ecc70a31d3b63926fd16876cd0caa9ffc5ca6763de56036c15c21",
  "args": [],
  "numDeployments": 3,
  "solcInputHash": "c5bd95db501c40a4c333b1143683ebdd",
  "bytecode": "0x60808060405234610016576116da908161001c8239f35b600080fdfe6080604052600436101561001b575b361561001957600080fd5b005b6000803560e01c908163158ef93e1461006e5750806387258e8e14610065578063de792d5f1461005c5763fc9c8d390361000e576100576103c9565b61000e565b506100576102f5565b506100576100e8565b346100af57807ffffffffffffffffffffffffffffffffffffffffffffffffffffffffffffffffc3601126100af5760ff905460a01c16151560805260206080f35b80fd5b9181601f840112156100e35782359167ffffffffffffffff83116100e3576020808501948460051b0101116100e357565b600080fd5b5060607ffffffffffffffffffffffffffffffffffffffffffffffffffffffffffffffffc3601126100e35760043573ffffffffffffffffffffffffffffffffffffffff811681036100e35767ffffffffffffffff6024358181116100e3576101549036906004016100b2565b90916044359081116100e35761016e9036906004016100b2565b909361018060005460ff9060a01c1690565b6101e5576101c99073ffffffffffffffffffffffffffffffffffffffff167fffffffffffffffffffffffff00000000000000000000000000000000000000006000541617600055565b816101d057005b610019936101df91369161050a565b9161076e565b60046040517fef34ca5c000000000000000000000000000000000000000000000000000000008152fd5b60005b8381106102225750506000910152565b8181015183820152602001610212565b907fffffffffffffffffffffffffffffffffffffffffffffffffffffffffffffffe0601f60209361026e8151809281875287808801910161020f565b0116010190565b602080820190808352835180925260408301928160408460051b8301019501936000915b8483106102a95750505050505090565b90919293949584806102e5837fffffffffffffffffffffffffffffffffffffffffffffffffffffffffffffffc086600196030187528a51610232565b9801930193019194939290610299565b5060407ffffffffffffffffffffffffffffffffffffffffffffffffffffffffffffffffc3601126100e35767ffffffffffffffff6004358181116100e3576103419036906004016100b2565b90916024359081116100e35761035b9036906004016100b2565b92909173ffffffffffffffffffffffffffffffffffffffff60005416330361039f576101df61038f9361039b95369161050a565b60405191829182610275565b0390f35b60046040517f16c618d8000000000000000000000000000000000000000000000000000000008152fd5b50346100e35760007ffffffffffffffffffffffffffffffffffffffffffffffffffffffffffffffffc3601126100e357602073ffffffffffffffffffffffffffffffffffffffff60005416604051908152f35b507f4e487b7100000000000000000000000000000000000000000000000000000000600052604160045260246000fd5b90601f7fffffffffffffffffffffffffffffffffffffffffffffffffffffffffffffffe0910116810190811067ffffffffffffffff82111761048d57604052565b61049561041c565b604052565b60209067ffffffffffffffff81116104b4575b60051b0190565b6104bc61041c565b6104ad565b7fffffffffffffffffffffffffffffffffffffffffffffffffffffffffffffffe0601f60209267ffffffffffffffff81116104fd575b01160190565b61050561041c565b6104f7565b929190926105178461049a565b916040946105278651948561044c565b839581855260208095019160051b8401938385116100e35780925b8584106105525750505050505050565b833567ffffffffffffffff81116100e357820185601f820112156100e35780359161057c836104c1565b6105888651918261044c565b838152878a85850101116100e35760008a858196828097018386013783010152815201930192610542565b507f4e487b7100000000000000000000000000000000000000000000000000000000600052603260045260246000fd5b91908110156105f35760051b0190565b6104bc6105b3565b6020918151811015610610575b60051b010190565b6106186105b3565b610608565b3d15610648573d9061062e826104c1565b9161063c604051938461044c565b82523d6000602084013e565b606090565b507f4e487b7100000000000000000000000000000000000000000000000000000000600052601160045260246000fd5b907fffffffffffffffffffffffffffffffffffffffffffffffffffffffffffffffff82019182116106aa57565b6106b261064d565b565b907fffffffffffffffffffffffffffffffffffffffffffffffffffffffffffffffe082019182116106aa57565b604051906040820182811067ffffffffffffffff82111761072c575b604052600782527f556e6b6e6f776e000000000000000000000000000000000000000000000000006020830152565b61073461041c565b6106fd565b73ffffffffffffffffffffffffffffffffffffffff61076b949360609383521660208201528160408201520190610232565b90565b9060005b81811061077f5750505090565b61078a8183856105e3565b604091903560d881901c838116159283610b5a57600101936107ad8587896105e3565b355b60038381168061094e57505060008091602090818616158314610937576107f9907fffffffff0000000000000000000000000000000000000000000000000000000088168d610c19565b905b8151910173ffffffffffffffffffffffffffffffffffffffff87165af49361082161061d565b945b156108a55750506080161561086b57600192917fff000000000000000000000000000000000000000000000000000000000000006108659260581b1687611624565b01610772565b90600192957fff0000000000000000000000000000000000000000000000000000000000000061089f9360581b1690611578565b93610865565b61090b9250938573ffffffffffffffffffffffffffffffffffffffff95825161092d575b1561091e57905b80511561090f57915b519485947fef3dcb2f000000000000000000000000000000000000000000000000000000008652169060048501610739565b0390fd5b506109186106e1565b916108d9565b6109279061067d565b906108d0565b91604401916108c9565b607f6109479160f81c168c6105fb565b51906107fb565b600181036109dc575050600080916020908186161583146109c557610996907fffffffff0000000000000000000000000000000000000000000000000000000088168d610c19565b905b815191018273ffffffffffffffffffffffffffffffffffffffff88165af1936109bf61061d565b94610823565b607f6109d59160f81c168c6105fb565b5190610998565b60028103610a6357505060008091602090818616158314610a4c57610a24907fffffffff0000000000000000000000000000000000000000000000000000000088168d610c19565b905b8151910173ffffffffffffffffffffffffffffffffffffffff87165afa936109bf61061d565b607f610a5c9160f81c168c6105fb565b5190610a26565b03610afc576000809160209081610a7e8d8360f81c906105fb565b51015190828716158414610ae557610abc9060081b7fffffffff0000000000000000000000000000000000000000000000000000000089168e610c19565b915b825192019073ffffffffffffffffffffffffffffffffffffffff88165af1936109bf61061d565b607f610af59160f01c168d6105fb565b5191610abe565b50517f08c379a000000000000000000000000000000000000000000000000000000000815260206004820152601060248201527f496e76616c69642063616c6c74797065000000000000000000000000000000006044820152606490fd5b9379ffffffffffffffffffffffffffffffffffffffffffffffffffff8360281b176107af565b60405190610160820182811067ffffffffffffffff821117610baf575b604052600a8252610140366020840137565b610bb761041c565b610b9d565b90600482018092116106aa57565b90610bd4826104c1565b610be1604051918261044c565b8281527fffffffffffffffffffffffffffffffffffffffffffffffffffffffffffffffe0610c0f82946104c1565b0190602036910137565b929192600090818291610c2a610b80565b916060928596865b60209081891015610ec5578b891a60ff8114610d34576080811615610d265760fe8103610cc25750865115610c75575b90600191875101975b0197019695610c32565b9550600190604051610cb981610c8d89858301610275565b037fffffffffffffffffffffffffffffffffffffffffffffffffffffffffffffffe0810183528261044c565b96909150610c62565b92989197949193909260fd8103610cf35750916001949391610ce5938d8861101f565b989294919790979493610c6b565b60fc8103610d0d5750916001949391610ce5938d886110ca565b610d2090600193969992959a9488610f7c565b97610c6b565b610d20906001939288610eda565b5097985090969194939250610d5291610d4d9150610bbc565b610bca565b97602095868a0152600093849185965b898810610d755750505050505050505050565b889081891015610eb8575b8c838a1a6080811615610e935760fe8103610df1575081610de1826001959460248d7fffffffffffffffffffffffffffffffffffffffffffffffffffffffffffffffe096010152610dd083610bbc565b610dda8c516106b4565b918c611692565b885101019701975b019695610d62565b929895919260fd8103610e2757509160019991858589868560248c610e189a0101526111c7565b90509891979097940197610de9565b60fc8103610e4957509160019991858589868560248c610e189a010152611218565b92610e8a87602493610e798b859b9e979b610e6a607f60019b1680936105fb565b5151978895850101528c6105fb565b5190610e8485610bbc565b91611680565b01970197610de9565b9060248a85610eaa607f600198979e96168c6105fb565b510151920101520197610de9565b610ec06105b3565b610d80565b9050610d4d919750610d529295949350610bbc565b610eeb90607f6020939416906105fb565b515103610ef85760200190565b60846040517f08c379a000000000000000000000000000000000000000000000000000000000815260206004820152602760248201527f537461746963207374617465207661726961626c6573206d757374206265203360448201527f32206279746573000000000000000000000000000000000000000000000000006064820152fd5b607f610f8a929316906105fb565b5151601f8116610f9b570160200190565b60846040517f08c379a000000000000000000000000000000000000000000000000000000000815260206004820152603660248201527f44796e616d6963207374617465207661726961626c6573206d7573742062652060448201527f61206d756c7469706c65206f66203332206279746573000000000000000000006064820152fd5b92919093946001019360208510156110bd575b6020611043607f83881a16866105fb565b51510361105f5760206110579601936110ca565b929391929091565b60646040517f08c379a000000000000000000000000000000000000000000000000000000000815260206004820152601d60248201527f4172726179206c656e677468206d7573742062652033322062797465730000006044820152fd5b6110c56105b3565b611032565b9493909592600091600180960195808301986020809301985b8389106110f65750505050505093929190565b81891a60808116156111b45760fb810361112057505050505061111990836105fb565b5293929190565b9a849b978860fd869d949697999a9c959c146000146111605750906111489392918b8661101f565b9b929b9a919a96909a9b975b019501979092916110e3565b60fc9193959798508092949650146000146111985750928492611188928b958b8e99986110ca565b9b929b9a919a96909a9b97611154565b9a6111ae81939c87958d9799989d949a9d610f7c565b9a611154565b936111ae849582949b989c849694610eda565b93929190602060016111ff9801968188101561120b575b816111ee607f868b1a16856105fb565b510151602482890101520194611218565b92939192602090910191565b6112136105b3565b6111de565b949095929196939660009661122d89856105fb565b51906001808584019b019601975b602095868a101561138457848a1a60808116156113555760fb810361126857505050505050505093929190565b9b8498889d958660fd8a9f9b989e9596979a999e146000146112bc5750602486979861129b9697010152848c89886111c7565b919c9781019095019a91979094019501926001905b0197929390949161123b565b92949650509193955060fc81146000146113045750916112eb918594938960248f988f010152848c8988611218565b919c9781019095019a91979094019501926001906112b0565b9b8860248d83949b9f956113478a61133c8d607f60019b9e9d9c9e169061132b82826105fb565b5151988998899889960101526105fb565b518b610e8485610bbc565b019e019801019a01936112b0565b96869b81929497602483611373999e99607f6001989a9d168c6105fb565b5101519188010152019a01936112b0565b5050505050505093929190565b1561139857565b60846040517f08c379a000000000000000000000000000000000000000000000000000000000815260206004820152602860248201527f4f6e6c79206f6e652072657475726e2076616c7565207065726d69747465642060448201527f28737461746963290000000000000000000000000000000000000000000000006064820152fd5b1561142357565b60846040517f08c379a000000000000000000000000000000000000000000000000000000000815260206004820152602a60248201527f4f6e6c79206f6e652072657475726e2076616c7565207065726d69747465642060448201527f287661726961626c6529000000000000000000000000000000000000000000006064820152fd5b60209081818403126100e357805167ffffffffffffffff918282116100e357019083601f830112156100e35781516114de8161049a565b946040926114ee8451978861044c565b828752858088019360051b860101948286116100e357868101935b86851061151b57505050505050505090565b84518381116100e35782019084603f830112156100e3578882015190611540826104c1565b61154c8951918261044c565b828152868984860101116100e35761156d8b949385948b868501910161020f565b815201940193611509565b91908060f81c60ff811461161e5760808116156115f15760fe036115ab575061076b9150602080825183010191016114a7565b610fe06020917fffffffffffffffffffffffffffffffffffffffffffffffffffffffffffffffe0838501946115e28587511461141c565b5101845260f31c168301015290565b829150607f90611607602061161a955114611391565b169061161382856105fb565b52826105fb565b5090565b50505090565b9060f81c9060ff821461167b5760209161165c9161164c855185810180911161167357610bca565b61165683836105fb565b526105fb565b51918051604084018184840160045afa5051910152565b610d4d61064d565b505050565b916020809185930101920160045afa50565b910160200190829060400160045afa5056fea26469706673582212202d16beb5a60d0239735f2ab06959bf3b6baecba90639ee8fe0fe0ae82c084a4964736f6c63430008100033",
  "devdoc": {
    "kind": "dev",
    "methods": {},
    "version": 1
  },
  "userdoc": {
    "kind": "user",
    "methods": {},
    "version": 1
  },
  "storageLayout": {
    "storage": [
      {
        "astId": 1609,
        "contract": "contracts/EnsoWallet.sol:EnsoWallet",
        "label": "caller",
        "offset": 0,
        "slot": "0",
        "type": "t_address"
      },
      {
        "astId": 1611,
        "contract": "contracts/EnsoWallet.sol:EnsoWallet",
        "label": "initialized",
        "offset": 20,
        "slot": "0",
        "type": "t_bool"
      }
    ],
    "types": {
      "t_address": {
        "encoding": "inplace",
        "label": "address",
        "numberOfBytes": "20"
      },
      "t_bool": {
        "encoding": "inplace",
        "label": "bool",
        "numberOfBytes": "1"
      }
    }
  }
}