{
  "address": "0x39689981327f549e693dd1CcE71F06898ABa0F0D",
  "abi": [
    {
      "inputs": [
        {
          "internalType": "address",
          "name": "EnsoWallet_",
          "type": "address"
        }
      ],
      "stateMutability": "nonpayable",
      "type": "constructor"
    },
    {
      "anonymous": false,
      "inputs": [
        {
          "indexed": false,
          "internalType": "contract EnsoWallet",
          "name": "instance",
          "type": "address"
        }
      ],
      "name": "Deployed",
      "type": "event"
    },
    {
      "inputs": [
        {
          "internalType": "bytes32[]",
          "name": "commands",
          "type": "bytes32[]"
        },
        {
          "internalType": "bytes[]",
          "name": "state",
          "type": "bytes[]"
        }
      ],
      "name": "deploy",
      "outputs": [
        {
          "internalType": "contract EnsoWallet",
          "name": "instance",
          "type": "address"
        }
      ],
      "stateMutability": "payable",
      "type": "function"
    },
    {
      "inputs": [],
      "name": "ensoWallet",
      "outputs": [
        {
          "internalType": "address",
          "name": "",
          "type": "address"
        }
      ],
      "stateMutability": "view",
      "type": "function"
    },
    {
      "inputs": [],
      "name": "getAddress",
      "outputs": [
        {
          "internalType": "address payable",
          "name": "",
          "type": "address"
        }
      ],
      "stateMutability": "view",
      "type": "function"
    }
  ],
  "transactionHash": "0x302f0aca93c8c82ccafd262745984bccdf8e8d87e8723911a90f3f14353b81aa",
  "args": [
    "0x3A859e16b0752a53c9C694B8928FE5F77b6fA6E3"
  ],
  "numDeployments": 3,
  "solcInputHash": "c5bd95db501c40a4c333b1143683ebdd",
  "bytecode": "0x60a03461007757601f6106ec38819003918201601f19168301916001600160401b0383118484101761007c5780849260209460405283398101031261007757516001600160a01b0381168103610077576080526040516106599081610093823960805181818160a6015281816101bf01526102b90152f35b600080fd5b634e487b7160e01b600052604160045260246000fdfe60806040526004361015610013575b600080fd5b6000803560e01c90816338cc483114610052575080635548e1cd146100495763abbea9871461004157600080fd5b61000e610214565b5061000e610173565b3461016557807ffffffffffffffffffffffffffffffffffffffffffffffffffffffffffffffffc360112610165577f3d602d80600a3d3981f3363d3d373d3d3d363d730000000000000000000000006080527f000000000000000000000000000000000000000000000000000000000000000060601b6094527f5af43d82803e903d91602b57fd5bf3ff0000000000000000000000000000000060a8523060601b60b8523360cc52603760802060ec527fffffffffffffffffffffffffffffffffffffffffffffffffffffffffffffff8061016073ffffffffffffffffffffffffffffffffffffffff605560b720169073ffffffffffffffffffffffffffffffffffffffff60a09216608052565b016080f35b80fd5b600091031261000e57565b503461000e5760007ffffffffffffffffffffffffffffffffffffffffffffffffffffffffffffffffc36011261000e57602060405173ffffffffffffffffffffffffffffffffffffffff7f0000000000000000000000000000000000000000000000000000000000000000168152f35b9181601f8401121561000e5782359167ffffffffffffffff831161000e576020808501948460051b01011161000e57565b506040807ffffffffffffffffffffffffffffffffffffffffffffffffffffffffffffffffc36011261000e5767ffffffffffffffff9060043582811161000e576102629036906004016101e3565b91909260243590811161000e5761027d9036906004016101e3565b73ffffffffffffffffffffffffffffffffffffffff83517f3d602d80600a3d3981f3363d3d373d3d3d363d7300000000000000000000000081527f000000000000000000000000000000000000000000000000000000000000000060601b60148201527f5af43d82803e903d91602b57fd5bf300000000000000000000000000000000006028820152603733916000f5169384156103fd57843b1561000e576103d39561035a600093865195869485947f87258e8e00000000000000000000000000000000000000000000000000000000865233600487016104dc565b038134875af180156103f0575b6103d7575b50805173ffffffffffffffffffffffffffffffffffffffff831681527ff40fcec21964ffb566044d083b4073f29f7f7929110ea19e1b3ebe375d89055e90602090a15173ffffffffffffffffffffffffffffffffffffffff90911681529081906020820190565b0390f35b806103e46103ea9261045a565b80610168565b3861036c565b6103f8610616565b610367565b606484517f08c379a000000000000000000000000000000000000000000000000000000000815260206004820152601760248201527f455243313136373a2063726561746532206661696c65640000000000000000006044820152fd5b67ffffffffffffffff811161046e57604052565b7f4e487b7100000000000000000000000000000000000000000000000000000000600052604160045260246000fd5b601f82602094937fffffffffffffffffffffffffffffffffffffffffffffffffffffffffffffffe0938186528686013760008582860101520116010190565b91929073ffffffffffffffffffffffffffffffffffffffff909594951682526020926060848401528160608401527f07ffffffffffffffffffffffffffffffffffffffffffffffffffffffffffffff821161000e5784939295949160051b80916080880137850194608086019060406080828903019101525260a084019360a08360051b82010194846000925b85841061057a575050505050505090565b909192939495967fffffffffffffffffffffffffffffffffffffffffffffffffffffffffffffff6082820301845287357fffffffffffffffffffffffffffffffffffffffffffffffffffffffffffffffe18436030181121561000e57830186810191903567ffffffffffffffff811161000e57803603831361000e576106058892839260019561049d565b990194019401929594939190610569565b506040513d6000823e3d90fdfea264697066735822122020e038738ccb4e482d0dbdf76a0f9233613bdd9cebf79282938bcfa418594ccf64736f6c63430008100033",
  "devdoc": {
    "kind": "dev",
    "methods": {},
    "version": 1
  },
  "userdoc": {
    "kind": "user",
    "methods": {},
    "version": 1
  },
  "storageLayout": {
    "storage": [],
    "types": null
  }
}