{
  "address": "0x62f90bB98851469c24d250066adcFA53147C6866",
  "abi": [
    {
      "inputs": [
        {
          "internalType": "address",
          "name": "EnsoWallet_",
          "type": "address"
        }
      ],
      "stateMutability": "nonpayable",
      "type": "constructor"
    },
    {
      "anonymous": false,
      "inputs": [
        {
          "indexed": false,
          "internalType": "contract EnsoWallet",
          "name": "instance",
          "type": "address"
        }
      ],
      "name": "Deployed",
      "type": "event"
    },
    {
      "inputs": [
        {
          "internalType": "bytes32[]",
          "name": "commands",
          "type": "bytes32[]"
        },
        {
          "internalType": "bytes[]",
          "name": "state",
          "type": "bytes[]"
        }
      ],
      "name": "deploy",
      "outputs": [
        {
          "internalType": "contract EnsoWallet",
          "name": "instance",
          "type": "address"
        }
      ],
      "stateMutability": "payable",
      "type": "function"
    },
    {
      "inputs": [],
      "name": "ensoWallet",
      "outputs": [
        {
          "internalType": "address",
          "name": "",
          "type": "address"
        }
      ],
      "stateMutability": "view",
      "type": "function"
    },
    {
      "inputs": [],
      "name": "getAddress",
      "outputs": [
        {
          "internalType": "address payable",
          "name": "",
          "type": "address"
        }
      ],
      "stateMutability": "view",
      "type": "function"
    }
  ],
  "transactionHash": "0x79d67d2d48ff1a1c1f150cb530959f91ba642d7bc23c332716b8fd30cdc7ae49",
  "args": [
    "0x92e4F6D782C6750fa5084542400fE342e38A1964"
  ],
  "numDeployments": 1,
  "solcInputHash": "523272f74b6a05f4e481276af3e36b7e",
  "bytecode": "0x60a060405234801561001057600080fd5b5060405161067e38038061067e83398101604081905261002f91610040565b6001600160a01b0316608052610070565b60006020828403121561005257600080fd5b81516001600160a01b038116811461006957600080fd5b9392505050565b6080516105e76100976000396000818160890152818160da015261019101526105e76000f3fe6080604052600436106100345760003560e01c806338cc4831146100395780635548e1cd14610077578063abbea987146100ab575b600080fd5b34801561004557600080fd5b5061004e6100be565b60405173ffffffffffffffffffffffffffffffffffffffff909116815260200160405180910390f35b34801561008357600080fd5b5061004e7f000000000000000000000000000000000000000000000000000000000000000081565b61004e6100b93660046103b9565b610175565b600061017073ffffffffffffffffffffffffffffffffffffffff7f00000000000000000000000000000000000000000000000000000000000000001633306040517f3d602d80600a3d3981f3363d3d373d3d3d363d730000000000000000000000008152606093841b60148201527f5af43d82803e903d91602b57fd5bf3ff000000000000000000000000000000006028820152921b6038830152604c8201526037808220606c830152605591012090565b905090565b60006101b773ffffffffffffffffffffffffffffffffffffffff7f00000000000000000000000000000000000000000000000000000000000000001633610285565b90508073ffffffffffffffffffffffffffffffffffffffff166387258e8e3433888888886040518763ffffffff1660e01b81526004016101fb95949392919061046e565b6000604051808303818588803b15801561021457600080fd5b505af1158015610228573d6000803e3d6000fd5b505060405173ffffffffffffffffffffffffffffffffffffffff851681527ff40fcec21964ffb566044d083b4073f29f7f7929110ea19e1b3ebe375d89055e935060200191506102759050565b60405180910390a1949350505050565b60006040517f3d602d80600a3d3981f3363d3d373d3d3d363d7300000000000000000000000081528360601b60148201527f5af43d82803e903d91602b57fd5bf300000000000000000000000000000000006028820152826037826000f591505073ffffffffffffffffffffffffffffffffffffffff8116610367576040517f08c379a000000000000000000000000000000000000000000000000000000000815260206004820152601760248201527f455243313136373a2063726561746532206661696c6564000000000000000000604482015260640160405180910390fd5b92915050565b60008083601f84011261037f57600080fd5b50813567ffffffffffffffff81111561039757600080fd5b6020830191508360208260051b85010111156103b257600080fd5b9250929050565b600080600080604085870312156103cf57600080fd5b843567ffffffffffffffff808211156103e757600080fd5b6103f38883890161036d565b9096509450602087013591508082111561040c57600080fd5b506104198782880161036d565b95989497509550505050565b8183528181602085013750600060208284010152600060207fffffffffffffffffffffffffffffffffffffffffffffffffffffffffffffffe0601f840116840101905092915050565b73ffffffffffffffffffffffffffffffffffffffff86168152600060206060818401528560608401527f07ffffffffffffffffffffffffffffffffffffffffffffffffffffffffffffff8611156104c457600080fd5b8560051b808860808601378301838103608090810160408601528101859052600585901b810160a09081019082018760005b888110156105a0577fffffffffffffffffffffffffffffffffffffffffffffffffffffffffffffff6085850301835281357fffffffffffffffffffffffffffffffffffffffffffffffffffffffffffffffe18b360301811261055757600080fd5b8a01803567ffffffffffffffff81111561057057600080fd5b8036038c131561057f57600080fd5b61058c86828a8501610425565b9550505091850191908501906001016104f6565b50919b9a505050505050505050505056fea264697066735822122078068ab30247bf789ce354463282f3effb573e8c686dc00703c51c903bc594fe64736f6c634300080d0033",
  "devdoc": {
    "kind": "dev",
    "methods": {},
    "version": 1
  },
  "userdoc": {
    "kind": "user",
    "methods": {},
    "version": 1
  },
  "storageLayout": {
    "storage": [],
    "types": null
  }
}