{
  "address": "0x68D11bcf0e8266842D1cB28C62d61E4Ab970e4B1",
  "abi": [
    {
      "inputs": [
        {
          "internalType": "bytes32",
          "name": "input",
          "type": "bytes32"
        }
      ],
      "name": "bytes32ToAddress",
      "outputs": [
        {
          "internalType": "address",
          "name": "",
          "type": "address"
        }
      ],
      "stateMutability": "pure",
      "type": "function"
    },
    {
      "inputs": [
        {
          "internalType": "bytes32",
          "name": "input",
          "type": "bytes32"
        }
      ],
      "name": "bytes32ToUint256",
      "outputs": [
        {
          "internalType": "uint256",
          "name": "",
          "type": "uint256"
        }
      ],
      "stateMutability": "pure",
      "type": "function"
    },
    {
      "inputs": [
        {
          "internalType": "bytes",
          "name": "input",
          "type": "bytes"
        }
      ],
      "name": "bytesToString",
      "outputs": [
        {
          "internalType": "string",
          "name": "",
          "type": "string"
        }
      ],
      "stateMutability": "pure",
      "type": "function"
    },
    {
      "inputs": [
        {
          "internalType": "address",
          "name": "balanceAddress",
          "type": "address"
        }
      ],
      "name": "getBalance",
      "outputs": [
        {
          "internalType": "uint256",
          "name": "balance",
          "type": "uint256"
        }
      ],
      "stateMutability": "view",
      "type": "function"
    },
    {
      "inputs": [],
      "name": "getBlockTimestamp",
      "outputs": [
        {
          "internalType": "uint256",
          "name": "timestamp",
          "type": "uint256"
        }
      ],
      "stateMutability": "view",
      "type": "function"
    }
  ],
  "transactionHash": "0xda6f36637e0acbc6d79aceac85bdc654098b552420d547668447da59ff860ddb",
  "args": [],
  "numDeployments": 1,
  "solcInputHash": "523272f74b6a05f4e481276af3e36b7e",
  "bytecode": "0x608060405234801561001057600080fd5b506102be806100206000396000f3fe608060405234801561001057600080fd5b50600436106100675760003560e01c8063796b89b911610050578063796b89b9146100cb578063ddcd5220146100db578063f8b2cb4f146100e957600080fd5b806339614e4f1461006c5780635ced058e14610095575b600080fd5b61007f61007a36600461013d565b610111565b60405161008c91906101af565b60405180910390f35b6100a66100a3366004610222565b90565b60405173ffffffffffffffffffffffffffffffffffffffff909116815260200161008c565b425b60405190815260200161008c565b6100cd6100a3366004610222565b6100cd6100f736600461023b565b73ffffffffffffffffffffffffffffffffffffffff163190565b60608282604051602001610126929190610278565b604051602081830303815290604052905092915050565b6000806020838503121561015057600080fd5b823567ffffffffffffffff8082111561016857600080fd5b818501915085601f83011261017c57600080fd5b81358181111561018b57600080fd5b86602082850101111561019d57600080fd5b60209290920196919550909350505050565b600060208083528351808285015260005b818110156101dc578581018301518582016040015282016101c0565b818111156101ee576000604083870101525b50601f017fffffffffffffffffffffffffffffffffffffffffffffffffffffffffffffffe016929092016040019392505050565b60006020828403121561023457600080fd5b5035919050565b60006020828403121561024d57600080fd5b813573ffffffffffffffffffffffffffffffffffffffff8116811461027157600080fd5b9392505050565b818382376000910190815291905056fea26469706673582212202f0284ff4b8402da2f5538d39814baebd1fc4431a1e538abd8806fc23d064b3964736f6c634300080d0033",
  "devdoc": {
    "kind": "dev",
    "methods": {},
    "version": 1
  },
  "userdoc": {
    "kind": "user",
    "methods": {},
    "version": 1
  },
  "storageLayout": {
    "storage": [],
    "types": null
  }
}