{
  "address": "0x742F2c5D96c0858d00860039c22D2805bed420E8",
  "abi": [
    {
      "inputs": [],
      "name": "VERSION",
      "outputs": [
        {
          "internalType": "uint256",
          "name": "",
          "type": "uint256"
        }
      ],
      "stateMutability": "view",
      "type": "function"
    },
    {
      "inputs": [
        {
          "internalType": "uint256",
          "name": "a",
          "type": "uint256"
        },
        {
          "internalType": "uint256",
          "name": "b",
          "type": "uint256"
        }
      ],
      "name": "add",
      "outputs": [
        {
          "internalType": "uint256",
          "name": "",
          "type": "uint256"
        }
      ],
      "stateMutability": "pure",
      "type": "function"
    },
    {
      "inputs": [
        {
          "internalType": "uint256",
          "name": "a",
          "type": "uint256"
        },
        {
          "internalType": "uint256",
          "name": "b",
          "type": "uint256"
        }
      ],
      "name": "average",
      "outputs": [
        {
          "internalType": "uint256",
          "name": "",
          "type": "uint256"
        }
      ],
      "stateMutability": "pure",
      "type": "function"
    },
    {
      "inputs": [
        {
          "internalType": "bool",
          "name": "condition",
          "type": "bool"
        },
        {
          "internalType": "bytes4",
          "name": "method",
          "type": "bytes4"
        },
        {
          "internalType": "uint256",
          "name": "a",
          "type": "uint256"
        },
        {
          "internalType": "uint256",
          "name": "b",
          "type": "uint256"
        }
      ],
      "name": "conditional",
      "outputs": [
        {
          "internalType": "uint256",
          "name": "",
          "type": "uint256"
        }
      ],
      "stateMutability": "view",
      "type": "function"
    },
    {
      "inputs": [
        {
          "internalType": "uint256",
          "name": "a",
          "type": "uint256"
        },
        {
          "internalType": "uint256",
          "name": "b",
          "type": "uint256"
        }
      ],
      "name": "div",
      "outputs": [
        {
          "internalType": "uint256",
          "name": "",
          "type": "uint256"
        }
      ],
      "stateMutability": "pure",
      "type": "function"
    },
    {
      "inputs": [
        {
          "internalType": "uint256",
          "name": "a",
          "type": "uint256"
        },
        {
          "internalType": "uint256",
          "name": "b",
          "type": "uint256"
        }
      ],
      "name": "max",
      "outputs": [
        {
          "internalType": "uint256",
          "name": "",
          "type": "uint256"
        }
      ],
      "stateMutability": "pure",
      "type": "function"
    },
    {
      "inputs": [
        {
          "internalType": "uint256",
          "name": "a",
          "type": "uint256"
        },
        {
          "internalType": "uint256",
          "name": "b",
          "type": "uint256"
        }
      ],
      "name": "min",
      "outputs": [
        {
          "internalType": "uint256",
          "name": "",
          "type": "uint256"
        }
      ],
      "stateMutability": "pure",
      "type": "function"
    },
    {
      "inputs": [
        {
          "internalType": "uint256",
          "name": "a",
          "type": "uint256"
        },
        {
          "internalType": "uint256",
          "name": "b",
          "type": "uint256"
        }
      ],
      "name": "mod",
      "outputs": [
        {
          "internalType": "uint256",
          "name": "",
          "type": "uint256"
        }
      ],
      "stateMutability": "pure",
      "type": "function"
    },
    {
      "inputs": [
        {
          "internalType": "uint256",
          "name": "a",
          "type": "uint256"
        },
        {
          "internalType": "uint256",
          "name": "b",
          "type": "uint256"
        }
      ],
      "name": "mul",
      "outputs": [
        {
          "internalType": "uint256",
          "name": "",
          "type": "uint256"
        }
      ],
      "stateMutability": "pure",
      "type": "function"
    },
    {
      "inputs": [
        {
          "internalType": "uint256",
          "name": "a",
          "type": "uint256"
        },
        {
          "internalType": "uint256",
          "name": "b",
          "type": "uint256"
        }
      ],
      "name": "sub",
      "outputs": [
        {
          "internalType": "uint256",
          "name": "",
          "type": "uint256"
        }
      ],
      "stateMutability": "pure",
      "type": "function"
    }
  ],
  "transactionHash": "0x34019d84259fc54cc9ae746a8a000892807f9cc4aa7acbdf385f0b9e0efec277",
  "args": [],
  "numDeployments": 2,
  "solcInputHash": "99e5ec2fca31f3a2b0fc5b66a6a885cb",
  "bytecode": "0x608060405234801561001057600080fd5b50610505806100206000396000f3fe608060405234801561001057600080fd5b50600436106100be5760003560e01c8063b67d77c511610076578063cf698e3d1161005b578063cf698e3d1461015a578063f43f523a1461016d578063ffa1ad741461018057600080fd5b8063b67d77c514610134578063c8a4ac9c1461014757600080fd5b8063771602f7116100a7578063771602f7146100fb5780637ae2b5c71461010e578063a391c15b1461012157600080fd5b80632b7423ab146100c35780636d5433e6146100e8575b600080fd5b6100d66100d136600461030c565b610188565b60405190815260200160405180910390f35b6100d66100f636600461030c565b6101ac565b6100d661010936600461030c565b6101c3565b6100d661011c36600461030c565b6101cf565b6100d661012f36600461030c565b6101de565b6100d661014236600461030c565b6101ea565b6100d661015536600461030c565b6101f6565b6100d661016836600461032e565b610202565b6100d661017b36600461030c565b610300565b6100d6600181565b600061019760028484186103fc565b6101a390848416610410565b90505b92915050565b6000818310156101bc57816101a3565b5090919050565b60006101a38284610410565b60008183106101bc57816101a3565b60006101a382846103fc565b60006101a38284610423565b60006101a38284610436565b600084156102f5576040805160248101859052604480820185905282518083039091018152606490910182526020810180517bffffffffffffffffffffffffffffffffffffffffffffffffffffffff167fffffffff00000000000000000000000000000000000000000000000000000000881617905290516000918291309161028a91610473565b600060405180830381855afa9150503d80600081146102c5576040519150601f19603f3d011682016040523d82523d6000602084013e6102ca565b606091505b509150915081156102f257808060200190518101906102e991906104a2565b925050506102f8565b50505b50815b949350505050565b60006101a382846104bb565b6000806040838503121561031f57600080fd5b50508035926020909101359150565b6000806000806080858703121561034457600080fd5b8435801515811461035457600080fd5b935060208501357fffffffff000000000000000000000000000000000000000000000000000000008116811461038957600080fd5b93969395505050506040820135916060013590565b7f4e487b7100000000000000000000000000000000000000000000000000000000600052601260045260246000fd5b7f4e487b7100000000000000000000000000000000000000000000000000000000600052601160045260246000fd5b60008261040b5761040b61039e565b500490565b808201808211156101a6576101a66103cd565b818103818111156101a6576101a66103cd565b6000817fffffffffffffffffffffffffffffffffffffffffffffffffffffffffffffffff048311821515161561046e5761046e6103cd565b500290565b6000825160005b81811015610494576020818601810151858301520161047a565b506000920191825250919050565b6000602082840312156104b457600080fd5b5051919050565b6000826104ca576104ca61039e565b50069056fea26469706673582212200ccedb3d28bfe3c2aff1aa0ab5b17c040c79f29d667193f17bc640e008aba08a64736f6c63430008100033",
  "devdoc": {
    "details": "MathHelpers contract is recommended to use only in Shortcuts passed to EnsoWallet Based on OpenZepplin Contracts v4.7.3: - utils/math/Math.sol (https://github.com/OpenZeppelin/openzeppelin-contracts/blob/master/contracts/utils/math/Math.sol) - utils/math/SafeMath.sol (https://github.com/OpenZeppelin/openzeppelin-contracts/blob/master/contracts/utils/math/SafeMath.sol)",
    "kind": "dev",
    "methods": {
      "add(uint256,uint256)": {
        "details": "Returns the addition of two unsigned integers, reverting on overflow. Counterpart to Solidity's `+` operator. Requirements: - Addition cannot overflow."
      },
      "average(uint256,uint256)": {
        "details": "Returns the average of two numbers. The result is rounded towards zero."
      },
      "conditional(bool,bytes4,uint256,uint256)": {
        "details": "Returns the results a math operation if a condition is met. Otherwise returns the 'a' value without any modification."
      },
      "div(uint256,uint256)": {
        "details": "Returns the integer division of two unsigned integers, reverting on division by zero. The result is rounded towards zero. Counterpart to Solidity's `/` operator. Requirements: - The divisor cannot be zero."
      },
      "max(uint256,uint256)": {
        "details": "Returns the largest of two numbers."
      },
      "min(uint256,uint256)": {
        "details": "Returns the smallest of two numbers."
      },
      "mod(uint256,uint256)": {
        "details": "Returns the remainder of dividing two unsigned integers. (unsigned integer modulo), reverting when dividing by zero. Counterpart to Solidity's `%` operator. This function uses a `revert` opcode (which leaves remaining gas untouched) while Solidity uses an invalid opcode to revert (consuming all remaining gas). Requirements: - The divisor cannot be zero."
      },
      "mul(uint256,uint256)": {
        "details": "Returns the multiplication of two unsigned integers, reverting on overflow. Counterpart to Solidity's `*` operator. Requirements: - Multiplication cannot overflow."
      },
      "sub(uint256,uint256)": {
        "details": "Returns the subtraction of two unsigned integers, reverting on overflow (when the result is negative). Counterpart to Solidity's `-` operator. Requirements: - Subtraction cannot overflow."
      }
    },
    "version": 1
  },
  "userdoc": {
    "kind": "user",
    "methods": {},
    "version": 1
  },
  "storageLayout": {
    "storage": [],
    "types": null
  }
}