{
  "address": "0x34Be3e153Bb78f5829FAD734F1F5Ef63D9258b61",
  "abi": [
    {
      "inputs": [
        {
          "internalType": "bytes",
          "name": "tuple",
          "type": "bytes"
        },
        {
          "internalType": "uint256",
          "name": "index",
          "type": "uint256"
        }
      ],
      "name": "extractArray",
      "outputs": [
        {
          "internalType": "bytes32",
          "name": "",
          "type": "bytes32"
        }
      ],
      "stateMutability": "pure",
      "type": "function"
    },
    {
      "inputs": [
        {
          "internalType": "bytes",
          "name": "tuple",
          "type": "bytes"
        },
        {
          "internalType": "uint256",
          "name": "index",
          "type": "uint256"
        }
      ],
      "name": "extractDynamicArray",
      "outputs": [
        {
          "internalType": "bytes32",
          "name": "",
          "type": "bytes32"
        }
      ],
      "stateMutability": "pure",
      "type": "function"
    },
    {
      "inputs": [
        {
          "internalType": "bytes",
          "name": "tuple",
          "type": "bytes"
        },
        {
          "internalType": "uint256",
          "name": "index",
          "type": "uint256"
        }
      ],
      "name": "extractDynamicElement",
      "outputs": [
        {
          "internalType": "bytes32",
          "name": "",
          "type": "bytes32"
        }
      ],
      "stateMutability": "pure",
      "type": "function"
    },
    {
      "inputs": [
        {
          "internalType": "bytes",
          "name": "tuple",
          "type": "bytes"
        },
        {
          "internalType": "uint256",
          "name": "index",
          "type": "uint256"
        }
      ],
      "name": "extractElement",
      "outputs": [
        {
          "internalType": "bytes32",
          "name": "",
          "type": "bytes32"
        }
      ],
      "stateMutability": "pure",
      "type": "function"
    },
    {
      "inputs": [
        {
          "internalType": "bytes",
          "name": "tuple",
          "type": "bytes"
        },
        {
          "internalType": "uint256",
          "name": "index",
          "type": "uint256"
        },
        {
          "internalType": "bool[]",
          "name": "isDynamicTypeFormat",
          "type": "bool[]"
        }
      ],
      "name": "extractTuple",
      "outputs": [
        {
          "internalType": "bytes32",
          "name": "",
          "type": "bytes32"
        }
      ],
      "stateMutability": "pure",
      "type": "function"
    },
    {
      "inputs": [
        {
          "internalType": "bytes",
          "name": "tuple",
          "type": "bytes"
        },
        {
          "internalType": "uint256",
          "name": "index",
          "type": "uint256"
        },
        {
          "internalType": "bool[]",
          "name": "isDynamicTypeFormat",
          "type": "bool[]"
        }
      ],
      "name": "extractTupleArray",
      "outputs": [
        {
          "internalType": "bytes32",
          "name": "",
          "type": "bytes32"
        }
      ],
      "stateMutability": "pure",
      "type": "function"
    }
  ],
  "transactionHash": "0xd319e01636e2492d0a951c9a4f609356b13678f1c95a718cc325a66a89f00944",
  "args": [],
  "numDeployments": 1,
  "solcInputHash": "d36c6c8210345d8eb2f0c1a58eac9192",
  "bytecode": "0x608060405234801561001057600080fd5b506105cb806100206000396000f3fe608060405234801561001057600080fd5b50600436106100725760003560e01c80639bd3b227116100505780639bd3b227146100c2578063a208b031146100d5578063df6d76b5146100e857600080fd5b80632fb402541461007757806348f263021461009c5780635305afc0146100af575b600080fd5b61008a6100853660046103ed565b6100fb565b60405190815260200160405180910390f35b61008a6100aa3660046104d2565b610190565b61008a6100bd3660046104d2565b6101c2565b61008a6100d03660046104d2565b610239565b61008a6100e33660046103ed565b610247565b61008a6100f63660046104d2565b61031b565b60206001830181028401516000910181805b845181101561017e5761012160208361052d565b915084818151811061013557610135610546565b60200260200101511561016c5760208181028401880151840188015101601f81161561016657602090819004600101025b91909101905b806101768161055c565b91505061010d565b50806020806001880102880151018701f35b60006020806001840102840151018084015160006020820611156101b957602090819004600101025b80602083018601f35b60008060006020806001860102860151019050808501519150600080600190505b83811161022157600181016020028301870151601f81161561020a57602090819004600101025b9190910190806102198161055c565b9150506101e3565b50602081016020806020600189010289015101018701f35b600060208060018401028401f35b6000806020806001860102860151018501519050600081602061026a9190610576565b905060015b8281116103075760005b85518110156102f45761028d60208461052d565b92508581815181106102a1576102a1610546565b6020026020010151156102e2576020600188810182028a015184830281018b01830151918401830291019081018a0182015101890181015193909301909201915b806102ec8161055c565b915050610279565b50806102ff8161055c565b91505061026f565b506001850160200286015181908701604001f35b60206001820181028301518301808201516000920290604001f35b634e487b7160e01b600052604160045260246000fd5b604051601f8201601f1916810167ffffffffffffffff8111828210171561037557610375610336565b604052919050565b600082601f83011261038e57600080fd5b813567ffffffffffffffff8111156103a8576103a8610336565b6103bb6020601f19601f8401160161034c565b8181528460208386010111156103d057600080fd5b816020850160208301376000918101602001919091529392505050565b60008060006060848603121561040257600080fd5b833567ffffffffffffffff8082111561041a57600080fd5b6104268783880161037d565b94506020915081860135935060408601358181111561044457600080fd5b8601601f8101881361045557600080fd5b80358281111561046757610467610336565b8060051b925061047884840161034c565b818152928201840192848101908a85111561049257600080fd5b928501925b848410156104c2578335925082151583146104b25760008081fd5b8282529285019290850190610497565b8096505050505050509250925092565b600080604083850312156104e557600080fd5b823567ffffffffffffffff8111156104fc57600080fd5b6105088582860161037d565b95602094909401359450505050565b634e487b7160e01b600052601160045260246000fd5b8082018082111561054057610540610517565b92915050565b634e487b7160e01b600052603260045260246000fd5b6000600019820361056f5761056f610517565b5060010190565b600081600019048311821515161561059057610590610517565b50029056fea2646970667358221220c6c3b6cf4e70d6348c3c63fb105b8e33bb2abd243752a1433f6a64311ea01bd964736f6c63430008100033",
  "devdoc": {
    "kind": "dev",
    "methods": {
      "extractArray(bytes,uint256)": {
        "details": "Use with .rawValue() in the weiroll planner",
        "params": {
          "index": "The index of the array to be extracted",
          "tuple": "The bytes encoded array"
        }
      },
      "extractDynamicArray(bytes,uint256)": {
        "details": "Use with .rawValue() in the weiroll planner",
        "params": {
          "index": "The index of the dynamic array to be extracted",
          "tuple": "The bytes encoded tuple"
        }
      },
      "extractDynamicElement(bytes,uint256)": {
        "details": "Use with .rawValue() in the weiroll planner",
        "params": {
          "index": "The index of the string or bytes to be extracted",
          "tuple": "The bytes encoded tuple"
        }
      },
      "extractElement(bytes,uint256)": {
        "details": "Use with .rawValue() in the weiroll planner",
        "params": {
          "index": "The index of the value to be extracted",
          "tuple": "The bytes encoded tuple"
        }
      },
      "extractTuple(bytes,uint256,bool[])": {
        "details": "Use with .rawValue() in the weiroll planner",
        "params": {
          "index": "The index of the tuple to be extracted",
          "isDynamicTypeFormat": "Boolean to define whether the child tuple is dynamically sized. If the child tuple contains bytes or string variables, set to \"true\"",
          "tuple": "The bytes encoded parent tuple"
        }
      },
      "extractTupleArray(bytes,uint256,bool[])": {
        "details": "Use with .rawValue() in the weiroll planner",
        "params": {
          "index": "The index of the tuple array to be extracted",
          "isDynamicTypeFormat": "Boolean to define whether the tuples in the array are dynamically sized. If the array tuple contains bytes or string variables, set to \"true\"",
          "tuple": "The bytes encoded tuple"
        }
      }
    },
    "version": 1
  },
  "userdoc": {
    "kind": "user",
    "methods": {
      "extractArray(bytes,uint256)": {
        "notice": "Extract a bytes encoded static array from a tuple"
      },
      "extractDynamicArray(bytes,uint256)": {
        "notice": "Extract a bytes encoded dynamic array from a tuple"
      },
      "extractDynamicElement(bytes,uint256)": {
        "notice": "Extract a bytes encoded dynamic type from a tuple"
      },
      "extractElement(bytes,uint256)": {
        "notice": "Extract a bytes32 encoded static type from a tuple"
      },
      "extractTuple(bytes,uint256,bool[])": {
        "notice": "Extract a bytes encoded tuple from another tuple"
      },
      "extractTupleArray(bytes,uint256,bool[])": {
        "notice": "Extract a bytes encoded array of tuples from a tuple"
      }
    },
    "notice": "Helper contract to extract a variety of types from a tuple within the context of a weiroll script",
    "version": 1
  },
  "storageLayout": {
    "storage": [],
    "types": null
  }
}